:020000040800F2
:10000000D08A0020650300086B540008D93300082B
:1000100069540008630F00083173000800000000F5
:10002000000000000000000000000000A502000821
:100030006D1000080000000001030008755800085A
:100040007F0300087F0300087F0300087F03000888
:100050007F0300087F0300087F0300087F03000878
:100060007F0300087F0300087F0300087F03000868
:100070007F0300087F030008D90F0008E50F000880
:100080007F0300087F0300087F0300087F03000848
:100090007F0300087F0300087F0300087F03000838
:1000A0007F0300087F0300087F0300087F03000828
:1000B000455900087F0300087F0300087F030008FC
:1000C0007F0300087F0300087F0300087F03000808
:1000D000615700087F0300087F0300087F030008C2
:1000E0007F0300087F0300087F0300087F030008E8
:1000F0007F0300087F0300087F0300087F030008D8
:100100007F0300087F0300087F0300087F030008C7
:100110007F0300087F0300087F0300087F030008B7
:100120007F0300087F0300087F0300087F030008A7
:100130007F03000800000000000000007F030008AB
:100140007F0300087F0300087F0300086D54000848
:100150007F0300087F0300087F0300087F03000877
:100160007F0300087F0300087F0300087F03000867
:100170007F0300087F0300087F03000800000000E1
:10018000000000007F0300080000000000000000E5
:100190007F03000800000000000000007F0300084B
:1001A0000000000000000000000000007F030008C5
:1001B0007F0300087F0300087F0300087F03000817
:1001C0007F03000800F002F800F05CF80AA090E855
:1001D000000C82448344AAF10107DA4501D100F002
:1001E00051F8AFF2090EBAE80F0013F0010F18BF73
:1001F000FB1A43F001031847A0940000C0940000CC
:100200000A444FF0000C10F8013B13F0070408BF3C
:1002100010F8014B1D1108BF10F8015B641E05D0DA
:1002200010F8016B641E01F8016BF9D113F0080F8F
:100230001EBF10F8014BAD1C0C1B09D16D1E58BF21
:1002400001F801CBFAD505E014F8016B01F8016B58
:100250006D1EF9D59142D6D37047000000230024CB
:1002600000250026103A28BF78C1FBD8520728BFC6
:1002700030C148BF0B6070471FB508F016FD1FBDA9
:1002800010B510BD00F096F91146FFF7F5FF07F025
:1002900097FE00F0B4F903B4FFF7F2FF03BC00F0DF
:1002A000B7F900002C4B19680868B0E8F04F80F3EC
:1002B0000988BFF36F8F4FF0000080F311887047FB
:1002C0000000000008480068006880F308884FF0CC
:1002D000000080F3148862B661B6BFF34F8FBFF39E
:1002E0006F8F00DF00BF00BF08ED00E0DFF80C00FB
:1002F000016841F470010160704700BF88ED00E0C3
:10030000EFF30980BFF36F8F134B1A681EF0100FC5
:1003100008BF20ED108A20E9F04F106009B44FF0BB
:10032000500080F31188BFF34F8FBFF36F8F08F039
:1003300003FA4FF0000080F3118809BC19680868BF
:10034000B0E8F04F1EF0100F08BFB0EC108A80F339
:100350000988BFF36F8F7047D4000020EFF305804A
:10036000704700000948804709480047FEE7FEE75C
:10037000FEE7FEE7FEE7FEE7FEE7FEE7FEE7FEE755
:1003800004480549054A064B7047000029590008F2
:10039000C5010008D07E0020D08A0020D082002035
:1003A000D082002053EA020C00F069802DE9F04B66
:1003B0004FF00006002B1FBFB3FA83F503FA05F4D4
:1003C00024FA05F65E4012BF1643B2FA82F502FA2D
:1003D00005F4C5F120051EBF22FA05FC44EA0C0411
:1003E000203556EA044C4FEA144418BF641C4FF001
:1003F00000084FF00009904271EB030C39D300293B
:1004000019BFB1FA81F701FA07F6B0FA80F700FADE
:1004100007F6C7F120071EBF20FA07FC46EA0C06C4
:100420002037B6FBF4FCA7EB0507103F07F01F0BC6
:10043000CBF120060CFA0BFB2CFA06F644BFB346B0
:100440000026202FA4BF5E464FF0000B5BEA060C8F
:1004500008BF4FF0010B19EB0B09ABFB027C48EB1B
:100460000608C01B06FB02CC0BFB03CC71EB0C0196
:10047000C1E70B46024641464846BDE8F08B13B53E
:100480004FF000004FF00001AFF30080BDE81C40CA
:10049000704710B5203AC0F00B80B1E81850203AF0
:1004A000A0E81850B1E81850A0E81850BFF4F5AF14
:1004B0005FEA027C24BFB1E81850A0E8185044BF9E
:1004C00018C918C0BDE810405FEA827C24BF51F80B
:1004D000043B40F8043B08BF7047D20728BF31F8FF
:1004E000023B48BF11F8012B28BF20F8023B48BF50
:1004F00000F8012B70474FF000020429C0F0128071
:1005000010F0030C00F01B80CCF1040CBCF1020FC6
:1005100018BF00F8012BA8BF20F8022BA1EB0C019B
:1005200000F00DB85FEAC17C24BF00F8012B00F891
:10053000012B48BF00F8012B70474FF0000200B5B7
:10054000134694469646203922BFA0E80C50A0E8F6
:100550000C50B1F12001BFF4F7AF090728BFA0E8A4
:100560000C5048BF0CC05DF804EB890028BF40F870
:10057000042B08BF704748BF20F8022B11F0804FB2
:1005800018BF00F8012B704770477047704710B5CF
:1005900000F008F8006810BD10B5044600F002F83D
:1005A000046010BD00487047707E0020004870470E
:1005B000707E00207546FFF7F9FFAE4605006946DC
:1005C000534620F00700854618B020B5FFF7D8FE47
:1005D000BDE820404FF000064FF000074FF0000844
:1005E0004FF0000B21F00701AC46ACE8C009ACE8C5
:1005F000C009ACE8C009ACE8C0098D46704710B529
:100600000446AFF300802046BDE81040FFF743BE2C
:1006100001491820ABBEFEE726000200704700002B
:100620009FED221A9FED222A20EE010AB5EE001A54
:1006300030EE010ABDEEC01A11EE100AB5EE400A06
:10064000F1EE10FAB8BF013801EE100AB8EEC11A87
:1006500030EE410A20EE020ABDEEC01A9FED152AC7
:1006600011EE100A002130EE021AB1EB502F48F6BD
:1006700094611CBF0020B0EE410AC0F6000101EEFB
:10068000100A01EB8001B8EE411A30EE410A91EDFB
:10069000001A91ED012AB7EE003A33EE403A23EE0C
:1006A000011A20EE020A31EE000A704783F9223E59
:1006B00000000044000000C4B0B5B0F800C00B88D2
:1006C0009C4553D145884B889D424FD113889C450A
:1006D0004CD153889D4249D143684968506805FB15
:1006E0000CFC0022B2EB9C0F30D04FEA9C0200BF02
:1006F00093ED000A91ED001A03F1100E30EE010A9D
:1007000080ED000A93ED010A91ED011A01F1100448
:1007100030EE010A80ED010A93ED020A91ED021A12
:1007200000F1100530EE010A80ED020A93ED030A94
:1007300091ED031A013A30EE010A80ED030A734687
:1007400028462146D4D12146284673461CF0030290
:100750000AD000BFB3EC010AB1EC011A013A30EE45
:10076000010AA0EC010AF5D1002000E0FD2040B212
:10077000B0BD018042804360704700002DE9F04F1A
:1007800081B02DED028B8EB0B0F800C0B0F802A0A1
:10079000D44540F03A810B88FD229C4540F03681DB
:1007A0004F88BB4240F0328140689FEDB08ABCF177
:1007B000000F009000F031814C686FF0030000EBF7
:1007C0008C09002700266546CDF828C020460994EC
:1007D0000A98401B08D0B1002046FFF7AEFE38460D
:1007E000013004F10404FBD304F1040BB5F101085A
:1007F0004FF07E50206012D0A9EB86015846FFF7DB
:100800009CFE01205C4600BF0130854204F10404D7
:10081000FAD10136013FB8F1000F4546D8D1DDF8D5
:1008200028C0BCF1000F00F0F8804FEACA00043085
:1008300002900998009900EB8A00C0F10009042099
:1008400000EB8A00ACF1010801EB8A054FEA8A034C
:10085000019001F1040B4FF0000E0F4656460020A8
:100860000A460490039300BF0EFB0AF002EB8001DE
:1008700091ED000A0C910999B5EE400AF1EE10FADB
:1008800001EB80000D90CDF82080CDE906950B920C
:100890002ED10EF1010060450DD20020414600BF6F
:1008A0002A1892ED000AB5EE400AF1EE10FA06D1D0
:1008B00001391844F4D10498012817D0D4E0A0EBF2
:1008C0000900002157F82130146842F8043B47F82A
:1008D000214001318E42F5D10D9A514613680468CA
:1008E00040F8043B013942F8044BF7D10120049051
:1008F0000C99AAEB0E0991ED008AB9F1010F4FF0A6
:100900007E5008600DD00120594600BF91ED000ACD
:10091000013080EE080A864281ED000A01F10401EF
:10092000F4D10D995046CDF814B000BF91ED000AF6
:10093000013880EE080AA1EC010AF7D1DDF82C801D
:100940000998A9F1010B0022654600BF724505D147
:1009500008EB890300EB8A0036E000BF0C9998EDA4
:10096000008A91ED000ABBF1000F28EE000A38EE74
:10097000400A88ED000A17D00123042107EB010C7F
:1009800008EB01049CED000A94ED001A28EE000A21
:10099000013331EE400A9E4201F1040184ED000A68
:1009A000ECD108EB010301E008F104030D9C514672
:1009B000B4EC011A90ED000A28EE011A30EE410A5B
:1009C000A0EC010A0139F3D103EB8E08013D02F1DD
:1009D0000102BBD1079D02980B9ADDF820800544E7
:1009E000039BDDF818900198DDF814B0DDF828C0FD
:1009F0000432013E0EF1010EA8F10108A9EB030932
:100A0000074483447FF430AF09E0FD2250B20EB0BA
:100A1000BDEC028B01B0BDE8F08F00200490B5EE74
:100A2000408AF1EE10FA4FF00002EFD1049801284D
:100A3000ECD00AFB0CF14FF000004FF0000271B156
:100A4000009B00BF93ED000AB5EE400AF1EE10FAEC
:100A500005D10132914203F10403F3D10A468A42DF
:100A600008BF6FF00400D2E7FB22CFE700000000D0
:100A70002DE9F04F85B047880B889F4240F0848075
:100A8000B0F800B013889B4540F07E80B1F802E0DA
:100A900053889E4578D1D0F8048050684968019009
:100AA000BC0827F0030008EB800604FB0EF09FED66
:100AB000390A07F0030C029101EB00104FEA8E0295
:100AC00000210090CDE903E70198DDF808A0009B24
:100AD00000EB8109B0EE401A5746404674B35546C4
:100AE00027464046B0EE401A95ED002A90ED003AB8
:100AF000154490ED014A23EE022A95ED003A154483
:100B000090ED025A31EE021A24EE032A95ED003AD6
:100B1000154490ED036A31EE021A25EE032A95ED95
:100B2000003A31EE021A26EE032A31EE021A013F94
:100B300000F110001544D7D11F463046BCF1000F1C
:100B40000CD0654690ED002A97ED003A043022EE75
:100B5000032A31EE021A013D1744F3D1A9EC011A20
:100B6000BEF1010E0AF1040A03F10403B2D1DDF86B
:100B70000CE0049F714408EB8708BBF1010B06EB06
:100B80008706A1D1002000E0FD2040B205B0BDE8FD
:100B9000F08F00BF00000000B0B5B0F800C00B88B7
:100BA0009C4553D145884B889D424FD113889C4525
:100BB0004CD153889D4249D143684968506805FB30
:100BC0000CFC0022B2EB9C0F30D04FEA9C0200BF1D
:100BD00093ED000A91ED001A03F1100E30EE410A78
:100BE00080ED000A93ED010A91ED011A01F1100464
:100BF00030EE410A80ED010A93ED020A91ED021AEE
:100C000000F1100530EE410A80ED020A93ED030A6F
:100C100091ED031A013A30EE410A80ED030A734662
:100C200028462146D4D12146284673461CF00302AB
:100C30000AD000BFB3EC010AB1EC011A013A30EE60
:100C4000410AA0EC010AF5D1002000E0FD2040B2ED
:100C5000B0BD00002DE9F04FB0F800A04A889245E1
:100C600045D142880B889A4241D1D1F804C04668E8
:100C70004FEA920802F003094FEA0A1E4FEA8A017E
:100C80004FF0000B624600BFB8F1000F1AD01546B6
:100C9000474600BF336828462B6073680D444350B5
:100CA000B3686C186B50F56806F110036618655050
:100CB000013F06EB01051E46ECD100EB0E071E4678
:100CC00002E000BF0CEB8B07B9F1000F06D04846DD
:100CD00056F8043B01383B600F44F9D10BF1010B8E
:100CE000BAF1010A02F10402CED1002000E0FD2099
:100CF00040B2BDE8F08F000001220221014800F05F
:100D0000F9BB00000004024000220221014800F06B
:100D1000F1BB0000000402407047000001221146B0
:100D2000014800F0E7BB000000040240002201215E
:100D3000014800F0DFBB000000040240704730B5FE
:100D400004464FF47A7502E0284600F004F8641E69
:100D5000A4B2F9D230BD70B54FF0E02500216C6926
:100D6000A822AB695043AA699A42FCD002D2A3EBF5
:100D7000020302E0A4EB0206334419441346814205
:100D8000F1D370BD10B5FFF7C7FFFFF7D7FF07F02E
:100D90000DF8044607F090F8204310BD2DE9FC4102
:100DA0000546002016460C4600900190FFF7ACFF68
:100DB000922000F0BDF806226946122000F09AF851
:100DC000FFF79AFF9DF801009DF80010000200B2A5
:100DD000084300EE100A464FB8EEC00AD7ED000AED
:100DE00020EE200A84ED000A9DF803009DF8021011
:100DF000000200B2084300EE100AF8EEC00A97EDB8
:100E0000000A60EE800AC4ED010A9DF805009DF815
:100E10000410000200B2084300EE900AF8EEE00A67
:100E200020EE800A84ED020AFFF780FF082269465F
:100E3000002000F05FF8FFF771FF9DF800000F2819
:100E400030D19DF803009DF80210000200B2084363
:100E500000EE100AD7ED010AB8EEC00A20EE200A13
:100E600085ED000A9DF805009DF80410000200B20F
:100E7000084300EE100AF8EEC00A97ED010A60EE92
:100E8000800AC5ED010A9DF807009DF806100002D2
:100E900000B2084300EE900AF8EEE00A20EE800A65
:100EA00085ED020AFFF730FFA22000F041F8022290
:100EB0006946222000F01EF8FFF71EFF9DF8000093
:100EC0009DF80110C00040EA5110B0F5806F01DBC1
:100ED000A0F5006000EE100AB4EE001AF8EEC00AA9
:100EE000B3EE070A00EE810A86ED000ABDE8FC8138
:100EF0000000002070B514460D4640F0800000F060
:100F000017F806E0552000F013F8641E05F8010BF1
:100F1000E4B2002CF6D170BD10B50C4640F0800054
:100F200000F006F8552000F003F8207010BD000016
:100F300001B582B04FF47A700090012301AA02A992
:100F4000024801F0ABFE9DF804000EBD801E00209B
:100F500010B50C46FFF7ECFF2046BDE81040FFF748
:100F6000E7BFFEE7002070470020704710B5002261
:100F70000449054804F028FF0449034804F01EFF13
:100F8000002010BDE82C002018200020E8240020BC
:100F900010B50146034804F011FF024804F0F3FEC7
:100FA000002010BD18200020002070470A46094983
:100FB00010B5D1F8BC12D1F8141209B1012010BD3E
:100FC0000146044804F000FFBDE81040014804F069
:100FD0005BBF000018200020014800F06DB8000041
:100FE000D81E0020014800F067B80000381F00201C
:100FF00001681823CAB2103AB2FBF3F2054B6FF343
:101000000901032A9B5CC36500D9091D8165084657
:1010100070470000F88C000810B5014600208B696D
:101020008A6A4FF0C07453B1B3F5005F15D072B146
:10103000012A0CD0022A0AD0032A09D104E01AB1ED
:10104000012A06D0022A03D1C96AC90100D50120AC
:1010500010BDC96AA142FAD010BD002AF7D0012AFA
:10106000F2D0022AF3D0032AF3D010BD70477047A4
:10107000014890ED690A704700780020014890ED22
:10108000680A704700780020014890ED6A0A7047AE
:101090000078002090F83510022903D080214165A6
:1010A00001207047052180F835100068016821F0A3
:1010B00001010160002070472DE9F84304464FF01C
:1010C0000009CDF8009063484FF41651A56D0068F3
:1010D000B0FBF1F72E6894F85C20082101FA02F0C9
:1010E00030420FD02068026852070BD5026822F008
:1010F0000402026094F85C008140A960606D40F0D9
:101100000100606594F85C104FF0010808FA01F0E6
:10111000304208D021684969090604D5A860606D8D
:1011200040F00200606594F85C1004208840304272
:1011300008D021680968890704D5A860606D40F06F
:101140000400606594F85C1010208840304218D08C
:1011500021680968090714D5A86020680168490357
:1011600004D50068000308D5A16C07E00168C90533
:1011700003D4016821F008010160216C09B1204607
:10118000884794F85C1020208840304231D0216894
:101190000968C9062DD5A86094F83500052820688F
:1011A000016806D0490347D5006800031DD4616C6F
:1011B0001CE021F0160101602068416921F08001E6
:1011C0004161206C08B9A06C20B12068016821F051
:1011D0000801016094F85C103F208840A86084F802
:1011E000349084F83580216D1FE0E16B09B1204611
:1011F0008847606D00282BD0606DC00714D0052093
:1012000084F835002068016821F001010160009830
:10121000401C0090B84203D820680068C007F6D18F
:1012200084F8349084F83580E16C002910D001B046
:101230002046BDE8F04308470168C905D5D40168D8
:1012400021F01001016084F8349084F83580CCE7F7
:10125000BDE8F883140300202DE9F041044600F0B6
:101260004FF905465CB1002684F83460022084F80A
:1012700035002068016821F0010101600DE00120C6
:10128000BDE8F08100F03CF9401B052805D920207D
:101290006065032084F83500F2E720680068C00725
:1012A000F0D121680A6820480240D4E901031843BC
:1012B000D4E903352B43184363691843A3691843E2
:1012C000E3691843236A18431043626A042A03D16E
:1012D000D4E90B231A431043086020684069656A0B
:1012E00020F0070128460D43012704280CD1A06AED
:1012F0000543E06A40B12046FFF78EFE20B1402052
:10130000606584F83570BAE7206845612046FFF7CC
:101310006FFE94F85C203F2191408160666584F8FF
:1013200035700020ACE700003F8010F070B5044637
:1013300000F0E6F80546601C02D00448007804443A
:1013400000F0DEF8401BA042FAD370BDC8000020B8
:101350002DE9F84FDFF874B100224FF003094FF088
:101360000F0A0BF1040E01250B6895402B40AB4290
:1013700072D14C68012C05D0022C03D0112C01D065
:10138000122C10D18668540009FA04F7BE43CF68C6
:10139000A740374387604468AC430D79C5F3001517
:1013A000954025434560C468570009FA07F58E68E3
:1013B000AC43BE402643C6604C68022C01D0122CC0
:1013C00012D1D40800EB840CDCF820605407E40E42
:1013D0000AFA04F826EA0806D1F8108008FA04F898
:1013E00048EA0608CCF820800468AC430D7905F083
:1013F0000305BD40254305604C68E40060D5344CCE
:10140000256845F480452560246822F0030504F42E
:10141000804400942F4C2E19D6F808789407250F95
:101420000AFA05F4A7432C4CA04201D100241FE086
:101430002A4CA04201D101241AE0294CA04201D13A
:10144000022415E0274CA04201D1032410E0264CD1
:10145000A04202D104240BE032E0244CA04201D18E
:10146000052405E0224CA04201D1062400E0072417
:10147000AC403C43C6F80848DBF800405D464E6887
:101480009C43F60300D51C432C60DEF800407546F3
:101490004E689C43B60300D51C432C600B4D0835A9
:1014A0002C684E689C43F60200D51C432C60074D07
:1014B0000C352C684E689C43B60200D51C432C604A
:1014C000521C102AFFF44FAFBDE8F88F003C0140DA
:1014D0004438024000300140000002400004024055
:1014E00000080240000C02400010024000140240BC
:1014F000001802400AB1816170470904FBE700004F
:101500000148806870470000C800002002488168D8
:101510000278114481607047C80000200B4810B564
:10152000016841F400710160016841F4806101606B
:10153000016841F480710160032000F09FF80F20E2
:1015400000F006F800F050F8002010BD003C02400A
:1015500030B50546204887B00024016841F00101FC
:101560000160006806A900F001000590684601F0DE
:101570004BF80398B0B101F06DF8400017494FF0F7
:101580008042B0FBF1F11648491E026040F2E7329A
:10159000C0E90324C0E90114846101F0B7FC040030
:1015A00003D015E001F056F8E8E70D4801F0DCFC47
:1015B00004000DD11C2000F033F8102D07D20022BA
:1015C00029461C2000F03AF80648056000E0012496
:1015D00007B0204630BD00004038024040420F00B6
:1015E000D81F0020CC0000200C4882B0016841F4D4
:1015F00080410160006800F4804000900748001FAF
:10160000016841F0805101600068002200F08050C4
:1016100000900F21901E02B000F010B84438024034
:10162000002809DB00F01F020121914040098000E1
:1016300000F1E020C0F8001170470000F0B40E4B3C
:101640001B68C3F30223C3F10704042C00D904244C
:101650001D1D072D01D2002300E0DB1E012606FA26
:1016600004F56D1E0D409D409E40761E164045EAD5
:101670000601F0BC05F076BE0CED00E0064A00F075
:10168000070110684FF6FF03184040EA01200349A4
:1016900008431060704700000CED00E00000FA0500
:1016A00001220168C0F8FC23002280F8F423886935
:1016B00040F000608861486D024A10434865002090
:1016C000704700000300001070B5164D0446A1B12C
:1016D000012911D12068D0F8001E41F00101C0F8A5
:1016E000001ED4F8040404F017FF206A002803D079
:1016F000286840F00600286070BD206A28B104F018
:10170000CFF8286820F0060028602068D0F8001E76
:1017100021F00101C0F8001ED4F80404BDE87040B7
:1017200004F096BE10ED00E00068416200207047B2
:10173000F0B50368586A39B19C6A4FF4827500EBC2
:10174000144400204E1E0AE040EA024098620FE076
:1017500005EB8007DF59401C04EB1744C0B2B042D0
:10176000F6D344EA02404FF4807202EB81015850F4
:101770000020F0BDD0F8040404F0D5BDC1EBC102D7
:1017800000EB8202D0F80404926C04F040BDC1EB7F
:10179000C10200EB8202D0F80404D2F8082204F05F
:1017A0008BBDD0F8040404F0C0BD70B504460B0630
:1017B00001F00F00C0EBC00104EB81014FF001020A
:1017C0004FF0000503D581F83D203C3103E081F85E
:1017D000FD5101F5FE71087094F8BC03012808D092
:1017E00084F8BC23206805F03DF984F8BC53002040
:1017F00070BD022070BD70B5044601F00F00626834
:10180000904201D9012070BD0B0601F00F01C1EB20
:10181000C10104EB81014FF001024FF0000503D537
:1018200081F83D203C3103E081F8FD5101F5FE7166
:101830008D70087094F8BC03012808D084F8BC238C
:10184000206805F009FB84F8BC53002070BD02201D
:1018500070BD01F00F01C1EBC10100EB8100D0F8B8
:10186000140270472DE9F04104460F0601F00F0005
:10187000C0EBC00104EB81014FF001064FF0000501
:1018800003D581F83D603C3103E081F8FD5101F55D
:10189000FE7108708A60CB704A7802B1C880022B52
:1018A00000D10D7194F8BC03012809D084F8BC6301
:1018B000206805F035F8284684F8BC53BDE8F0816F
:1018C0000220FBE770B50D4601F00F04C4EBC40124
:1018D00000EB8101C1F81032C1F808220023C1F8E1
:1018E000143281F8FD3181F8FC41036901F5FE7184
:1018F000012B00D10A612A07027C006803D005F0A1
:1019000003FB002070BD05F0EFF9FAE770B504465F
:101910000D4601F00F006168884201D9012070BDB9
:1019200029064FF000064FF0010207D5C0EBC001B9
:1019300004EB810181F83D203C3107E0C5EBC50196
:1019400004EB810181F8FD6101F5FE718A70087078
:1019500094F8BC03012807D084F8BC23206805F064
:10196000A7FA280702D007E0022070BD217C04F509
:101970007172206805F044FA84F8BC63002070BDE1
:1019800070B50D4601F00F04C4EBC40100EB8101FA
:101990000B658A6400234B65012381F83D3001F813
:1019A0003C4F0369012B00D10A612A07027C0068C1
:1019B00003D005F0A9FA002070BD05F095F9FAE70B
:1019C0002DE9F84F05680446284605F0C4FB0028B9
:1019D0007ED1206805F0EBFB002879D0206805F067
:1019E000E6FB800704D52068416901F002014161EE
:1019F000206805F0DCFBC10604F57170009034D559
:101A00002068816921F0100181612F6A07F00F00C1
:101A1000C0EBC00004EB8006C7F3434006F5FE763A
:101A2000022802D0062811D01AE047F6F0700742CB
:101A300016D0C7F30A1217462846F16805F0BBFB1B
:101A4000F0683844F060B069384408E0082228465D
:101A5000009905F0B0FBB069C7F30A110844B06102
:101A60002068816941F010018161206805F09FFBC9
:101A700000034FF0010B5AD50026206805F076FBD5
:101A80008046DFF89CA34FE05FEAC87049D0F1B20E
:101A9000206805F084FB0746C00707D005EB461118
:101AA000C1F808BB3146204603F0E6FC380722D5D2
:101AB00005EB46110820C1F8080B2068D0F84090CB
:101AC00000EB4610D0F8081BD14507D9090400E007
:101AD000A4E103D54FF40041C0F8081B204600F0F4
:101AE000A3FAD14507D92069012804D12068012132
:101AF000009A05F085F9F80604D505EB461110208B
:101B0000C1F8080BB80604D505EB46112020C1F832
:101B1000080BB80405D505EB46114FF40050C1F889
:101B2000080B4FEA5808761CB8F1000FACD12068BA
:101B300005F03DFB40034FF000095BD5206805F040
:101B40000EFB8046002652E05FEAC8704CD0F1B22E
:101B5000206805F012FB0746C00723D006F00F02ED
:101B60000BFA02F0D5F834288243C5F8342805EB87
:101B70004610C0F808B9206901280FD1C6EBC6008D
:101B800004EB8000D0E911211144816436B9206D45
:101B900020B920680121009A05F032F9F1B22046FF
:101BA000FFF7ECFD380704D505EB46110820C1F816
:101BB0000809F80604D505EB46111020C1F80809FC
:101BC000780604D505EB46114020C1F80809B8078E
:101BD00004D505EB46110220C1F80809380603D5E3
:101BE0003146204603F0AEFC4FEA5808761CB8F1A7
:101BF000000FA9D1206805F0DAFA002811DAD5F82B
:101C0000040820F00100C5F8040894F8F403012842
:101C100039D0204600F0ECF92068416901F000411C
:101C20004161206805F0C3FA00050BD5D5F8080816
:101C3000C00702D0204600F01FFA2068416901F475
:101C400000614161206805F0B2FA00010AD5206800
:101C5000416901F00061416194F8F403D0B120467C
:101C600000F00AFA206805F0A2FAC00475D5D5F88C
:101C7000040820F00100C5F804081021206805F0D0
:101C80004BFA002134E084F8F49300212046FFF75A
:101C90001BFDC1E784F8F4B32068406D0121C0F357
:101CA0008300C4F8F8032046FFF70EFDDAE705EBE2
:101CB00041104FF67F32C0F80829D0F8003923F4DC
:101CC0000013C0F80039D0F8003943F00063C0F8C1
:101CD0000039C0F8082BD0F8002B22F40012C0F80D
:101CE000002BD0F8002B42F00062C0F8002B491CFA
:101CF00060688842DBD8D5F81C0840F00110C5F8B0
:101D00001C08206B60B1D5F8840840F00B00C5F8C2
:101D10008408D5F8440840F00B00C5F844080CE0EE
:101D2000D5F8140842F22B010843C5F81408D5F879
:101D3000100840F00B00C5F81008D5F8000820F492
:101D4000FE60C5F80008217C2068009A05F058F86C
:101D50002068416901F480514161206805F027FA4B
:101D6000800415D5206804F01BFE206805F0E6F914
:101D7000E06000F069FC0146227B206805F052FA21
:101D8000204600F01FF92068416901F400514161CB
:101D9000206805F00CFA000707D5204600F02CF962
:101DA0002068416901F008014161206805F0FFF9F0
:101DB000C00208D50021204600F034F820684169AF
:101DC00001F480114161206805F0F1F9800208D525
:101DD0000021204600F02AF82068416901F4001132
:101DE0004161206805F0E3F9400007D52046FFF780
:101DF000C1FC2068416901F080414161206805F023
:101E0000D6F940070AD520684568680702D52046FC
:101E1000FFF7C7FC2068416829434160BDE8F88F9F
:101E20000A30544FD0F8040404F0D0BAD0F80404B7
:101E300004F0CEBA2DE9F0418AB0040005D094F840
:101E4000BD032668002520B108E001200AB0BDE8E6
:101E5000F08184F8BC53204600F064F8032084F835
:101E6000BD03F06BC00500D42561206804F036FF87
:101E700004F11001282288466846FEF70AFB94E820
:101E80000F0004F09BFD0227C8BB0021206805F06D
:101E9000A1F9002101260EE0C1EBC10004EB800096
:101EA00080F83D6000F83C1FC180C5708560C5604A
:101EB000491CC9B2456160688842EDD8002111E033
:101EC000C1EBC10004EB800080F8FD5180F8FC11EB
:101ED00080F8FF51C0F80452C0F80852491CC9B23A
:101EE000C0F8105260688842EAD828224146684605
:101EF000FEF7CFFA94E80F0004F038FE10B184F832
:101F0000BD73A2E784F8385084F8BD63606A012885
:101F100002D12046FFF7C4FB206804F019FE002020
:101F200094E7000010B59EB00446142117A8FEF7F0
:101F300004FB5C216846FEF700FB2068B0F1A04F6F
:101F400039D14FF48070002400901594684600F059
:101F5000ABF808B1FFF78BF81848016841F00101B0
:101F60000160006817A900F001001C904FF4C050F8
:101F700017900220CDE9180403201A900A201B9024
:101F80000F48FFF7E5F90D48001D016841F0800199
:101F900001600A481430016841F480410160006822
:101FA000002200F480401C9005214320FFF746FBEF
:101FB0004320FFF735FB1EB010BD00003038024053
:101FC0000000024070B50446C068012570B10228C7
:101FD00001D0FFF74CF82946D4F8040404F04EFA77
:101FE000D4F80404BDE8704004F009BA0025F2E713
:101FF000D0F8040404F02CBAD0F8040404F032BA87
:1020000010B5044690F8BC0301280BD0012084F8D9
:10201000BC0384F83810206805F0F3F8002084F839
:10202000BC0310BD022010BDD0F8042400F571716E
:10203000104604F02FBA10B50446006894F8BC139B
:10204000012906D0012184F8BC13A16A012902D01C
:1020500008E0022010BDA169012903D0816B41F481
:1020600080318163206805F041F8206804F062FD4A
:10207000002084F8BC0310BD10B50446D0F8040459
:1020800004F04AFA2068D0F8001E41F00101C0F8BF
:10209000001E206A002804D00248016841F00601B1
:1020A000016010BD10ED00E02DE9F84F0446002559
:1020B0000078F74F2E46C00708D03868A16B20F093
:1020C000C06008433860A06B00B901252078800704
:1020D00008D53868E16B20F0C05008433860E06BE9
:1020E00000B90125207840070ED53868216B20F40F
:1020F000401008433860206BB0F5801F01D010B14C
:1021000002E0012500E00126207800070ED538689E
:10211000616B20F4400008433860606BB0F5800FBD
:1021200001D010B102E0012500E0012620784FF037
:10213000000A80064FF0010B61D5D5484C38016884
:1021400041F0805101600068DFF8489300F0805052
:102150000090D9F8001041F48071C9F80010FFF721
:10216000CFF9804605E0FFF7CBF9A0EB0800022885
:1021700076D8D9F80000C005F5D5DFF81493A9F199
:102180001C09D9F8000010F4407024D0B4F84010B5
:1021900001F4407181421ED0D9F80010BE4A21F4EA
:1021A0004071C2F800B0C2F800A0C9F80010D9F818
:1021B0000000C0070FD0FFF7A3F9804607E0FFF744
:1021C0009FF9A0EB080141F288308142D0D8D9F8BC
:1021D00000008007F3D5206CAD49C0F3012284399B
:1021E000032A35D0086820F4F8100860D9F80010E8
:1021F000B4F84020C2F30B021143C9F80010207854
:10220000C00604D5A54994F85800C1F8E00120782B
:102210000106A34805D50168E26C21F44001114391
:1022200001602178490605D50168A26C21F0806122
:10223000114301602188C90514D50168626D21F040
:10224000006111430160616DB1F1006F09D009E0D7
:102250000A68944B22F4F812184002430A60C5E75A
:1022600015E101262188890505D50168626C21F0F8
:102270008051114301602188DFF82C92490509D56E
:102280000168226D21F0005111430160206DB0F111
:10229000005F04D01DB92068B0F5006F7ED183497E
:1022A000C1F868A0FFF72CF9794D80468C3D05E018
:1022B000FFF726F9A0EB0800022887D8286800015C
:1022C000F6D420687A49C20701D0A26B1AB1800700
:1022D00017D5E06BA8B908680A68C0F30140401C34
:1022E000D4E9013C43EA8C1320F0004CC2F30362B2
:1022F00009EB0C4040EA02600343207D43EA007092
:1023000008602068420703D5226BB2F5801F05D014
:10231000000721D5606BB0F5800F1DD108680A68F1
:10232000C0F30140401CD4E9013C43EA8C1320F087
:10233000004C09EB0C4094F810C0C2F3027240EA62
:102340000C60034343EA027008603868A26A20F018
:102350001F00521E10433860208840051AD5206D9A
:10236000B0F1005F16D108680A68C0F30140401C54
:10237000D4E9013C43EA8C13D4F80CC0C2F30272D6
:102380004FEA5C0809EB084C4CEA4060034343EA1F
:10239000027008602088000511D500E01FE0D4E934
:1023A000010240EA8210E268530809EB0342237CF1
:1023B00042EA03621043227D40EA027008603B4813
:1023C000C0F868B0FFF79CF8804605E0FFF798F882
:1023D000A0EB0800022874D828680001F6D5EEB3F7
:1023E000DFF8C880C8F870A0FFF78AF8304D0646BD
:1023F000843D04E0FFF784F8801B022861D8286838
:10240000C0438000F6D520682A49420701D5226BD7
:102410001AB100071DD5606BD8B90868D4E9062346
:10242000C0F30140401C42EA831220F0004309EB54
:10243000034094F8243040EA036002430A6038689D
:10244000E26A6FF0FF0320F4F85003EB022210431E
:1024500038602088C00514D5606D00E038E0B0F128
:10246000006F0ED10868D4E9062342EA8312236A7A
:10247000C0F303605C0809EB044343EA00600243D5
:102480000A60C8F870B0FFF73BF804461CE018E09B
:102490008C38024000700040400E47420010474216
:1024A00094380240FFFCFF0F0000FFFF000047428E
:1024B0008438024088380240FFF722F8001B0228C7
:1024C00002D90320BDE8F88F2868C0438000F3D408
:1024D0000020F7E72DE9F0470D46040065D0DFF84E
:1024E0001491D9F80000EFB200F00F00A84207D213
:1024F00089F80070D9F8000000F00F00A84254D10C
:1025000020683D4E810712D5400703D5306840F45E
:10251000E05030602078000703D5306840F4604018
:1025200030603068A16820F0F00008433060207807
:10253000C0072DD0304960680839012812D0022820
:1025400013D0032811D00968890700292DDA3168D2
:1025500021F0030101433160FEF7D2FF804641F2D2
:10256000883A0EE009688903EFE709688901ECE71A
:10257000FEF7C6FFA0EB0801514502D90320BDE8D4
:10258000F0873068616800F00C00B0EB810FEFD18C
:10259000D9F80010484601F00F01A94207D9077089
:1025A000006800F00F00A84201D00120E7E7207882
:1025B000400705D53068E16820F4E05008433060FA
:1025C0002078000706D53068216920F4604040EA91
:1025D000C100306000F04EF83168084AC1F30311C1
:1025E000515CC8400649086006480068FEF7B0FF25
:1025F0000020C4E7003C024008380240488E000832
:1026000014030020CC0000200F2202600C4A136843
:1026100003F003034360136803F0F003836013685F
:1026200003F4E053C36012684FF4E05303EAD202AC
:1026300002610448006800F00F0008607047000065
:1026400008380240003C0240014800687047000022
:10265000140300200448054900680968044AC1F3CE
:102660008221515CC84070471403002008380240A2
:10267000588E0008224810B5006810F00C0121485F
:1026800015D0214B042911D01D4C241F08290FD02F
:102690000C290CD1216801F03F022168490221D5A3
:1026A0002068C0F38810A0FB030120E0184610BD8D
:1026B000216801F03F022168490205D52068C0F376
:1026C0008810A0FB030104E02168C1F38811A1FB7D
:1026D00000010023FDF766FE2168C1F30141491C9A
:1026E00049000AE02168C1F38811A1FB0001002321
:1026F000FDF758FE2168C1F30271B0FBF1F010BD87
:10270000083802400024F400001BB7002DE9F84F00
:1027100004460078C44EC007A6F104054ED0301D13
:102720000168C1F3810101290FD00168C1F3810162
:10273000022902D13168490207D40068C0F3810040
:10274000032809D13068400206D52868800335D5B2
:10275000606800286FD031E06068B0F5803F10D02D
:10276000B0F5A02F286810D020F4803028602868A9
:1027700020F4802028606068A0B1FEF7C1FE074603
:102780000CE0286840F48030F4E740F480202860B2
:10279000F7E7FEF7B5FEC01B642875D828688003EC
:1027A000F7D50BE0FEF7ACFE074604E0FEF7A8FE07
:1027B000C01B6428F1D828688003F7D42078DFF89C
:1027C0006CA280074FF0000B44D59748001D0168AC
:1027D00011F00C0F0FD00168C1F38101022902D161
:1027E0003168490207D50068C0F38100032809D188
:1027F0003068400206D42868800714D5E0680128B4
:1028000019D110E0E068B8B10120CAF80000FEF765
:1028100077FE074604E0FEF773FEC01B0228BCD813
:1028200028688007F7D52868216920F0F80040EA79
:10283000C10028600EE0F4E0CAF800B0FEF760FEC8
:10284000074604E0FEF75CFEC01B02281CD828687F
:102850008007F7D42078000726D5DFF8CC817448AC
:10286000616908F1700881B101210160FEF748FE3D
:10287000074604E0FEF744FEC01B022804D8D8F83F
:1028800000008007F6D50FE088E0C0F800B0FEF742
:1028900037FE074604E0FEF733FEC01B02287DD852
:1028A000D8F800008007F6D42078400769D55E4844
:1028B0004FF000093C300068C0000BD45A483C304F
:1028C000016841F08051016000684FF0010900F09B
:1028D0008050009057480168C90511D401688046AE
:1028E00041F480710160FEF70BFE074604E0FEF73D
:1028F00007FEC01B022851D8D8F80000C005F6D545
:10290000494FA0686C3701280FD00528386810D0CF
:1029100020F001003860386820F004003860A068BA
:10292000B8B1FEF7EDFD80460FE0386840F00100D9
:10293000F4E740F004003860F7E7FEF7E1FDA0EBB4
:10294000080141F28830814263D838688007F4D5A5
:102950000EE0FEF7D5FD804607E0FEF7D1FDA0EBC7
:10296000080141F28830814253D838688007F4D496
:10297000B9F1000F05D02C483C30016821F080519E
:102980000160A069B0B32849091D0968C1F381013C
:10299000022946D00228CAF860B000E039E003D02E
:1029A000FEF7AEFD044637E0FEF7AAFD074604E059
:1029B000FEF7A6FDC01B02282BD828688001F7D49B
:1029C000F4E907010843E1681B4A490802EB0141A9
:1029D000A26841EA82110843217C40EA0160217D1E
:1029E00040EA017030600120CAF86000FEF788FDFF
:1029F000044605E013E0FEF783FD001B022808D81B
:102A000028688001F7D50AE0FEF77AFD001B02284E
:102A100002D90320BDE8F88F28688001F4D4002093
:102A2000F8E70120F6E700000438024000004742C2
:102A3000800E4742007000400000FFFF704700001A
:102A400038B5016804464A688868C043430606D51D
:102A5000C30704D1D3435B0601D4216C05E083078F
:102A600008D4D3431B0605D4616C01B02046BDE8F1
:102A700030400847830603D5430601D5C30551D42A
:102A8000D3439B064ED443060AD494F85130032B0B
:102A900049D0636D43F004036365CB688B68009392
:102AA000830609D4636D43F0010363658B6800936B
:102AB0000B6823F040030B60C00506D4606D40F046
:102AC00008006065206880680090606D002829D04B
:102AD0002068416821F0E0014160012084F8510044
:102AE000900701D4D00722D02068416821F003016B
:102AF0004160114DE06C40B10565E06CFEF7CAFA2B
:102B000018B1606D40F040006065A06C002809D0ED
:102B10000565A06CFEF7BEFA002803D0606D40F09A
:102B20004000606538BDC8688868009038BD2046A0
:102B3000FFF784FF38BD00006D57000870B5040032
:102B400005D00025A56294F8510010B106E00120DF
:102B500070BD84F85050204600F030F8022084F810
:102B600051002068016821F040010160D4E90101B1
:102B70000843D4E903121143084361690843218BD8
:102B800001F400710843E1690843216A0843A16A1E
:102B9000084321680860A069042101EA1040616AC5
:102BA0000843216848602068C16921F40061C1615F
:102BB0006565012084F85100002070BDF0B587B034
:102BC000044614216846FDF7B8FC2F492068884266
:102BD00058D12E480025016841F480410160006809
:102BE00000F48040059029481038016841F0020146
:102BF00001600068694600F0020005904FF444400F
:102C000000900220CDE901050320039005200490E7
:102C10001F48FEF79DFB204E1E48C6E9000507151C
:102C2000B560C6E9035775614FF44030B561C6E938
:102C3000075030467562FEF70FFB08B1FEF717FA32
:102C4000E664B463144E134860361830E6E80205B3
:102C50004020A1C6C00246F81459B561C6E9075024
:102C60000D4875626030FEF7F7FA08B1FEF7FFF91C
:102C7000A664002205212420B463FEF7DFFC242093
:102C8000FEF7CEFC07B0F0BD0038004040380240EF
:102C90000004024058600240D81E00202DE9F84F81
:102CA000044690F8500001250A9E1F4692468B4626
:102CB0004FF0000801280ED0012084F85000FEF7E4
:102CC0001FFC814694F85100616801280CD0B1F5D1
:102CD000827F07D102E00220BDE8F88FA16809B920
:102CE000042801D00220B6E0BBF1000F27D0BAF1D2
:102CF000000F24D01FB394F85100042802D00520FF
:102D000084F8510000206065C4F838A0E787A787E1
:102D1000C4F830B0E786A786206460642068016844
:102D2000490603D4016841F040010160E068B0F554
:102D3000006F606805D0E8B3012F43D079E001202F
:102D400089E008B1012F34D1206B21680088C86068
:102D5000206B801C2063E08E401EE08629E0206806
:102D6000816889070DD5E18E59B1012D09D1216BFB
:102D70000988C160206B801C2063E08E401EE086C5
:102D8000002520688168C9070BD0E18F49B1C06870
:102D9000A16B0880A06B801CA063E08F401EE087C1
:102DA0000125FEF7ADFBA0EB0900B04201D3701C7A
:102DB00050D100E006E0E08E0028D0D1E08F00285E
:102DC000CDD13CE0206B216800780873206B401C5B
:102DD0002063E08E401EE0862BE020688168890732
:102DE0000DD5E18E59B1012D09D1216B09780173FF
:102DF000206B401C2063E08E401EE086002520688A
:102E00008168C9070BD0E18F49B1C068A16B087018
:102E1000A06B401CA063E08F401EE0870125FEF7F9
:102E20006FFBA0EB0900B04202D3701C01D011E08F
:102E300086B1E08E0028D0D1E08F0028CDD14A465F
:102E40003146204602F09AFC38B120204FF00108AC
:102E5000606508E00320804605E0A06818B9206896
:102E6000C16880680090012084F85100002084F837
:102E70005000404630E770477047000070B590F84A
:102E80003C20012A32D0012580F83C50022280F8F3
:102E90003D2002685368946823F070060B68334342
:102EA0005360134B02689A4214D0B2F1804F11D094
:102EB000104B9A420ED0104B9A420BD00F4B9A42B5
:102EC00008D00F4B9A4205D00E4B9A4202D00E4BBF
:102ED0009A4204D1496824F080031943916080F834
:102EE0003D50002180F83C10084670BD022070BDA6
:102EF000000001400004004000080040000C0040B9
:102F000000040140004001400018004010B50400DA
:102F100003D094F83D0010B107E0012010BD00205F
:102F200084F83C00204600F00CF8022084F83D00B4
:102F3000211D206802F00CFD012084F83D000020D6
:102F400010BD7047022180F83D1001688A6802F0C8
:102F50000702062A03D00A6842F001020A60012132
:102F600080F83D10002070470168CA6842F00102F5
:102F7000CA600068816801F00701062903D0016872
:102F800041F00101016000207047704770B50446B0
:102F9000006801694FF00005C943890715D4C1686D
:102FA000C943890711D4E91E0161012020772068F7
:102FB00080698007204602D0FFF7E7FF04E000F0B9
:102FC000C9F8204600F05EF9257720680169C943F9
:102FD000490717D4C168C943490713D46FF00401E6
:102FE0000161022020772068806910F4407F20462C
:102FF00002D0FFF7CAFF04E000F0ACF8204600F072
:1030000041F9257720680169C943090716D4C168C9
:10301000C943090712D46FF0080101610420207729
:103020002068C0698007204602D0FFF7AEFF04E0A9
:1030300000F090F8204600F025F925772068016916
:10304000C943C90617D4C168C943C90613D46FF070
:1030500010010161082020772068C06910F4407FCA
:10306000204602D0FFF791FF04E000F073F82046FD
:1030700000F008F9257720680169C943C90708D11C
:10308000C168C943C90704D1891E0161204600F007
:103090001DF920680169C943090609D4C168C943FB
:1030A000090605D46FF0800101612046FFF7E3FEB9
:1030B00020680169C943490609D4C168C943490662
:1030C00005D46FF040010161204600F006F9206848
:1030D0000169C94389060BD4C168C943890607D46D
:1030E0006FF0200101612046BDE87040FFF7C4BECB
:1030F00070BD000010B586B0044614216846FDF787
:103100001CFA1049206888421AD10F48016841F022
:10311000020101600068694600F00200059020206D
:103120000090022001900290039004900748FEF75F
:103130000FF90748FFF706FF0421054800F0A4F83F
:1031400006B010BD000400403038024000040240C8
:10315000981F0020704770B5044690F83C000D465B
:1031600001280DD0012684F83C60022084F83D003F
:1031700042B1042A18D0082A2AD00C2A4DD139E0AD
:10318000022070BD206802F055FC2068816941F082
:10319000080181612068816921F004018161206852
:1031A00081692A69114311E0206802F073FC2068EC
:1031B000816941F4006181612068816921F4806145
:1031C0008161206881692A6941EA0221816124E0E4
:1031D000206802F095FC2068C16941F00801C161D6
:1031E0002068C16921F00401C1612068C1692A69B0
:1031F000114311E0206802F0B7FC2068C16941F476
:103200000061C1612068C16921F48061C1612068E9
:10321000C1692A6941EA0221C16184F83D60002048
:1032200084F83C0070BD10B5040003D094F83D0054
:1032300010B107E0012010BD002084F83C002046BA
:1032400000F00CF8022084F83D00211D206802F0F7
:103250007FFB012084F83D00002010BD08B5006808
:103260000649884208D10648016841F00201016020
:10327000006800F00200009008BD0000000400405B
:10328000403802407047000010B504460068012233
:1032900002F0C2FB0B482168814202D00A488142F9
:1032A00003D1486C40F4004048642068816801F014
:1032B0000701062903D0016841F0010101600020E7
:1032C00010BD000000000140000401400068B0F1A2
:1032D000804F01D1FEF71AB97047704770B50446A8
:1032E00000203C4D2074A27B288861684243D4F8BA
:1032F000F400FDF7CEF8A17B288841436068FDF714
:103300001CF9A07B10FB00F128884143D4F8180178
:10331000FDF713F9207BA17B10FB01F128884143C5
:10332000D4F80C01FDF709F900202BE0D4F8F410D3
:1033300001EB800292ED000AB5EEC00AF1EE10FA40
:103340001ED0227C01EB820181ED000A227C616AA1
:103350008854A169227B01EB8001237C91ED000A56
:103360006169095C12FB03116FF0030202EB81013A
:10337000D4F80C21114481ED000A217C491C2174F0
:10338000401CC0B2A17B8142D0D8002010E0636A0B
:10339000E2691B5C02EB830292ED000A10FB010163
:1033A000D4F81821401C02EB8101C0B281ED000A63
:1033B000217C8142EBD8C8B224F8780F14F86C0C49
:1033C000608020816181218361832084618424F86D
:1033D000301C70BD48020020FEE70000D0F8EC1061
:1033E00085B091ED000A8DED000A91ED010A8DED99
:1033F000010A91ED020A8DED020A91ED030A002106
:103400008DED030A9DED000ADDED010A20EE000AB4
:1034100000EEA00ADDED020A00EEA00ADDED030ACF
:1034200000EEA00AF7EE000ACDED040AB1EEC01AD4
:1034300080EE810A8DED040AD0F8EC20DDED040A5F
:1034400002EB8102491C92ED000AC9B2042920EE68
:10345000200A82ED000AEFD34649DDED010AD0F8DB
:10346000002191ED6F0A60EE200AB6EE000A60EED0
:10347000800AC2ED040AD1ED6F0A9DED021AD0F860
:10348000002160EE810A60EE800AC2ED050AD1EDEE
:103490006F0A9DED001AD0F8002120EE811AFEEE91
:1034A000000A21EE201A82ED0A1A91ED6F1ADDED65
:1034B000031AD0F8002121EE211A21EE001A82ED24
:1034C0000B1A91ED6F1ADDED031AD0F8002121EEF1
:1034D000211A21EE201A82ED101A91ED6F1ADDEDFE
:1034E000001AD0F8002121EE211A21EE201A82EDD7
:1034F000111A91ED6F1ADDED021AD0F8002121EEBC
:10350000211A21EE000A82ED160A91ED6F0A9DED57
:10351000011AD0F8002120EE010A20EE200A82EDE7
:10352000170AD0F8F820D1ED740A92ED1C0A80EE4B
:10353000201A82ED1C1AD0F8F820D1ED740A92ED11
:10354000230A80EE201A9FED0D0A82ED231AD0F88F
:10355000F810094A0B6F934201DD81ED1C0AD0F887
:10356000F800D0F88C10914201DD80ED230A05B0FF
:10357000704700000078002000401C4600401C46B8
:1035800070B52C4C01252DED028B04F5D8702570FB
:10359000B7EE008A80EC030A00209FED270A84ED35
:1035A000730A84F83801C4E95000C4E9520011EEEE
:1035B000900A84ED6F2AB0F17E5F01DDF0EE481ACB
:1035C000C4ED741A032300220621201D00F0EAFD39
:1035D0001A4B01221146A3F10800FDF7CAF854F86E
:1035E000EC0F9FED170A902280ED008A54F86409D1
:1035F000184980ED010A606E80ED020A606E80ED70
:10360000030A1048A0641048E06410482065104880
:10361000606504F85A5C04F8595CE06FFCF739FF08
:10362000606F9022BDEC028B0B49BDE87040FCF747
:1036300030BF00000078002077CC2B32C879002002
:10364000000000005D360008DD33000891360008F8
:10365000613B0008288D00084C02002010B504468C
:10366000902254F8F81F0848FCF713FF4822074837
:10367000616AFCF70EFF054861694822BDE8104009
:103680004830FCF706BF00004C020020E079002023
:103690001FB50446B0EE000A54F8EC0FD0ED000A56
:1036A00060EE800ACDED000AD0ED010A60EE800ADE
:1036B000CDED010AD0ED020A60EE800ACDED030ADD
:1036C000D0ED030A20EE800A8DED020A14F8DE0C1C
:1036D00014F8E01C10FB01F1234800884143206AE4
:1036E000FCF72BFF9DED030A206AB1EE400A80ED46
:1036F000000A206ADDED020AC0ED010ADDED000AD4
:10370000206AF1EE600AC0ED020A206ADDED010ACE
:10371000C0ED030A206ADDED010AC0ED060A206A49
:10372000DDED000AC0ED070A206ADDED020AC0EDFA
:10373000080A206ADDED030AC0ED090A206ADDED02
:10374000000AC0ED0C0ADDED010A206AF1EE600A04
:10375000C0ED0D0A206A80ED0E0A206A9DED020A76
:1037600080ED0F0A1FBD00004802002010B5F14C8B
:1037700090222DED048BF0EE619A84B0D4ED581AAE
:10378000F0EE628AB6EE008A30EE610AB0EE429A3E
:10379000E94984ED5B0AD4ED591A70EEE12AC4EDD3
:1037A0005C2AD4ED5A0A71EE600A20EE081AC4EDC4
:1037B0005D0A94ED6F0A60EE880A21EE001A8DED25
:1037C000001A22EE881A21EE001A20EE800A8DEDF2
:1037D000011A8DED020AD4F8040104F58274FCF795
:1037E00058FE9DED000A2068B1EE400A80ED010A06
:1037F000DDED010A2068F1EE600AC0ED020A9DEDE0
:10380000021A2068B1EE411A80ED031A2068DDED3E
:10381000001AC0ED061A2068DDED021AC0ED081A84
:103820002068C0ED090A2068DDED010AC0ED0C0A30
:10383000206880ED0D1A2068DDED000AC0ED0F0A4A
:103840002068DDED020AC0ED120A2068DDED010AF4
:10385000C0ED130A54F8440B80ED140A74E85201C9
:1038600050EA01020AD1C4ED5E9A84ED5F9A401CD1
:10387000C4ED608A41F10001C4E9520194ED5E0A91
:1038800094ED643A94ED6F1AAC4960EE031A31EE90
:10389000030AC1EE800A61EE291A81EE802A70EED9
:1038A000821AC4ED5E1AD4ED5F0A20EE832AC2EEBE
:1038B000000A21EE092A21EE281AC2EE002A30EE73
:1038C000A22A84ED5F2AD4ED600A60EE832AC2EE5C
:1038D000800AC1EE002A30EEA20A61EEA10A84ED50
:1038E000600A42EE020A40EE000AB1EEE00AF7EE8C
:1038F000000A84ED660A80EE801A8DED001A21EE32
:10390000810AA06880ED000A94ED5F0ADDED000AEF
:10391000A06820EE200A80ED010A94ED600ADDED3A
:10392000000AA06820EE200A80ED020A94ED5B0AEE
:1039300060EE000A94ED5C0A40EE000A94ED5D0A28
:1039400040EE000AB1EEE00A10EE100A84ED650ABE
:10395000884209DA7A49D4F89801884204DD794925
:10396000884201DA012000E0002084F8390194ED5A
:103970006C0AD4ED6F0AD4F8180120EE200A80ED0D
:10398000000A94ED6C0AD4ED6F0AD4F8180120EE09
:10399000200A80ED070A94ED6C0AD4ED6F0AD4F882
:1039A000180120EE200A80ED0E0A94ED6C0AD4ED89
:1039B0006F0AD4F8180120EE200A80ED150A94ED64
:1039C0006D0AD4ED6F0AD4F8180120EE200A80EDBC
:1039D0001C0A94ED6D0AD4ED6F0AD4F8180120EE9C
:1039E000200A80ED230AD4F81C0194ED6E0A80EDC4
:1039F000000AD4F81C0194ED6E0A80ED040AD4F894
:103A00001C0194ED6E0A80ED080A201D00F0D4FE22
:103A10006068B0EE482AD0ED001AC4ED541A90ED5B
:103A2000010A84ED550A00EE402A90ED021A21EEBB
:103A3000800A84ED561AD0ED030A434801EE412A6C
:103A4000C4ED570A01EE200AF0EE420A04F0A6F88F
:103A500094ED680ADFED3D8A20EE280A84ED680ABD
:103A600094ED550AD4ED570A94ED561A20EE200A2B
:103A7000D4ED540A00EEC10AF8EE000A20EE200A46
:103A800003F080FC20EE280AF0EE480A2E4884ED70
:103A9000690A94ED560AD4ED551A94ED571A40EE82
:103AA000400A21EE800AD4ED541A083001EE810A52
:103AB00041EE410A04F072F894ED6A0A254920EEBD
:103AC000280A84ED6A0A6068D0ED040AC4ED580A39
:103AD000D0ED050AC4ED590ADFED1D0AC4ED5A0AFE
:103AE000D4ED760A70EE600A10EE900A884203DD8B
:103AF000B4F8D401401E07E010EE900A164988423F
:103B000004D9B4F8D401401CA4F8D401B4F9D40108
:103B1000DFED121A00EE900AB8EEE01AF0EE400A5D
:103B200041EE210AC4ED6B0A84ED760A04B0BDECC7
:103B3000048B10BD00780020288D00089A99993ECA
:103B4000CDCC1441CDCC2441A0790020E12E65429A
:103B50000000000000003443000034C30000B44300
:103B60002DE9F04F00F1800187B00446783005461A
:103B70000491FDF76FF884F8C800B4F87800A4F851
:103B8000A800B4F85A00A4F8AA0004F1A80204F1AD
:103B90005801914628460591FCF76AFF84F8C80051
:103BA000B4F8A800A4F8B000B4F88200A4F8B200F9
:103BB00004F1B002904648460499FCF759FF84F896
:103BC000C800B4F89000A4F8A000B4F89200A4F8DB
:103BD000A20004F1A002154604F190014046FCF752
:103BE0006BFD84F8C80041462846B034FCF7C6FD9A
:103BF0002076E06B0125002790ED000AC54E8DED83
:103C0000020A90ED010A8DED030A90ED020A8DED96
:103C1000000A90ED030A8DED010A34F8380C20817A
:103C20006581DDED030A9DED010A9DED001AE06F4F
:103C300060EE800A9DED020A40EE410AB0EE000AF5
:103C400060EE800AC0ED000ADDED020A9DED031A68
:103C5000E06F60EE810A9DEC021A41EE210A20EE2F
:103C6000800A80ED010A9DED020ADDED030AE06F96
:103C700020EE000AB03C00EEE00ADDED000A00EEA6
:103C8000E00ADDED010A00EEA00A80ED020AD4F898
:103C90002C0100EB870090ED000AB0EEC00AFCF7A3
:103CA000BFFC06EB87007F1CFFB280ED610A032F8B
:103CB000EDD3B4F84800A4F8C00004F1C00204F148
:103CC000B801A4F8C25092468B4604F14800FCF7B4
:103CD00063FF84F8C800B4F8C000A4F8A80024F872
:103CE000AA5F4A4651464046FCF7C2FEA077E581EE
:103CF000E08A208259465046FCF7ACFFA077864AFE
:103D000049465846FCF7B4FEA07796ED730AB6EE26
:103D1000001AD6ED720A20EE011AAA3CF4EEC10A8E
:103D2000F1EE10FA01D286F83851F4EEC00A002004
:103D3000F1EE10FA33DD96F8381179B396F83911AF
:103D400029B1D6E95012491C42F1000201E00021DC
:103D50000A46C6E95012D6E9502332270021BA1A82
:103D6000994102D286F8380137E06C4E14F80C2FD6
:103D700030884243D4E937017434FCF78AFB14F8E5
:103D8000740C10FB00F230884243D4E91E01FCF7AA
:103D900080FB04F8545C07B0BDE8F08FFFE79FEDAF
:103DA000601A20EE011AF4EEC10AF1EE10FA0DDDF0
:103DB00096F8381151B170EE600A9FED5A1A20EE54
:103DC000010A80EE801A86ED671A03E0B7EE000A5A
:103DD00086ED670A0021C6E9501184F82C00B4F87A
:103DE0005800A4F8A800B4F88200A4F8AA00DDE9FD
:103DF00004104A466C34FCF73BFE04F85C0FA4F157
:103E0000300241464846C83C0092FCF731FE84F837
:103E1000C80000200DE0D4F81C11D6ED670A01EBB4
:103E20008001401C91ED000AC0B220EE200A81ED15
:103E3000000AB4F89810B4F89A2051438142EADCA1
:103E400004219FED390A002006EB810701EB4103B5
:103E500097ED5D1AD4F81C2103EB000CC1EE000AAB
:103E600002EB8C02401C92ED001AC0B2032860EEF7
:103E7000810AC2ED000AEBD3491CC9B20629E2D37C
:103E800034F8980F5A462084658451460098FCF710
:103E9000EFFD84F8300096F83801983C50B3DFED20
:103EA000230A9FED231A0420D4F8BC1096ED6F0A64
:103EB00001EB800120EE200AD1ED001AF4EEC01AC9
:103EC000F1EE10FA01DD81ED000AD4F8BC1096ED98
:103ED0006F0A01EB800120EE010AD1ED001AF4EE29
:103EE000C01AF1EE10FA01D281ED000A401CC0B2F6
:103EF0000628D9D3D4F8BC009FED0E0A04F1300295
:103F000080ED030A594604F13800FCF7D5FB84F82C
:103F1000C80040E700780020C07900204802002057
:103F2000CDCCCC3D6666663FDA0FC93F0AD7233C4D
:103F30000AD723BC000000000F4810B590ED050A19
:103F4000DFED0C0A0D4801F049FB0C4890ED080A22
:103F5000B5EEC00AF1EE10FA03D29FED090A80ED2A
:103F6000080ABCEEC00A074910EE100A096880B2C0
:103F7000886310BD000020422C0000203C0300207C
:103F800000000000981F00202DE9F0415849574AD1
:103F9000A1F10C002DED028BFCF700FF534D544EA8
:103FA000143D012768789FED538A50B96F70F0EE89
:103FB000481A96EC030AF0EE612AB0EE612A00F08E
:103FC0001BFE4B4C29780C3CA4F10C00022902D0BA
:103FD000012937D064E094ED000AD0ED000A30EEFC
:103FE000600A84ED000AD4ED010A90ED011A70EE2A
:103FF000C10AC4ED010A94ED021AD0ED021A31EEA5
:10400000611A84ED021AD6EC031AFFF7AFFBB0EE8B
:10401000483AD6EC031AB0EE434AF0EE433A94EC39
:10402000030A01F083F800F0E5FFFDF721F885EDC4
:10403000070AFDF723F885ED060AFDF725F885ED5B
:10404000010A2DE090ED000AD4ED000A30EE200ABE
:1040500080ED000AD0ED010A94ED011A70EE810A9C
:10406000C0ED010A90ED021AD4ED021A31EE211AC8
:1040700080ED021AA968491CA960B1F57A7F0FD3B7
:10408000DFED1D1A80EE212A80EEA10A80ED002AC4
:1040900080ED010A81EE210A80ED020A02202870DB
:1040A000E8680A21B0FBF1F201FB1200B8B9FFF792
:1040B00043FF95ED050ADFED110A30EE600AB0EE20
:1040C000C00A10EE100AB0F17C5F08DA287830B927
:1040D0002869401C2861B0F5967F00D92F70E868E8
:1040E000401CE860BDEC028BBDE8F0814000002080
:1040F000300300200000000000007A44000020424D
:10410000DFED130A10B5DFED112AB0EE602AF7EEED
:10411000001A9FED101AB2EE040AFFF731FA9FED74
:104120000E0A0E4A0021F0EE400A0D4801F0EAFAAC
:104130009FED0C0A00F03EFF04210B48FFF7A4F8A6
:10414000FCF720FE0028FBD110BD0000000000009D
:104150006F12833A8096184B00001644B48C000806
:104160003C03002000007A44981F0020F0B5002393
:104170000A24302537261F4610E0B4EB107F02D901
:1041800005EB107C01E006EB107C01F813C001EB9D
:10419000430C00015B1C8CF80170DBB29342ECD342
:1041A000F0BD00002DE9F047DFF81C840D46042126
:1041B000A8F800100821A8F8021005734273837351
:1041C0004FF000091E46044680F81090174630460E
:1041D00004F089F931466061FCF78DF9B8F8000008
:1041E000704304F080F9A061B8F800107143FCF747
:1041F000A4F9B8F80000704304F075F9E061B8F86C
:1042000000107143FCF799F9B8F80000684304F016
:104210006AF92062B8F800106943FCF78EF930465D
:1042200004F061F931466062FCF765F9B8F8000006
:10423000684304F058F92060B8F800106943FCF7AF
:104240007CF9B8F80000704304F04DF96060B8F8EC
:1042500000107143FCF771F9B8F80000784304F0DE
:1042600042F9A060B8F800107943FCF766F9B8F895
:104270000000684304F037F9C4F8E800B8F800100B
:104280006943FCF75AF9217B012204F13000D4F88C
:10429000E830FCF76EFAB8F80000684304F023F940
:1042A000C4F8EC00B8F800106943FCF746F9217B2C
:1042B000012204F13800D4F8EC30FCF75AFA9FB12F
:1042C000B8F80000784304F00EF9C4F8F000B8F82C
:1042D00000107943FCF731F9617B012204F14000C1
:1042E000D4F8F030FCF745FAB8F80000704304F059
:1042F000FAF8C4F8F400B8F800107143FCF71DF99F
:10430000A17B012204F14800D4F8F430FCF731FA23
:10431000B8F800006843684304F0E5F8C4F8F80012
:10432000B8F8001069436943FCF707F9217B04F1F1
:1043300050000A46D4F8F830FCF71BFAB8F8000031
:104340006843684304F0CFF8C4F8FC00B8F80010E4
:1043500069436943FCF7F1F8217B04F158000A46F0
:10436000D4F8FC30FCF705FAB8F80000684368435D
:1043700004F0B9F8C4F80001B8F8000088346843C4
:10438000684304F0B0F8E067B8F80010A06F694324
:104390006943FCF7D2F8B8F80010E06F694369434D
:1043A000FCF7CBF854F8783FA4F1A00014F8F41C03
:1043B000A4F580740A46FCF7DCF9217B04F168005F
:1043C0000A46D4F80431FCF7D4F9AFB1B8F80000CC
:1043D0006843784304F087F8C4F80801B8F800107F
:1043E00069437943FCF7A9F8627B217B04F17000F3
:1043F000D4F80831FCF7BDF9B8F80000474670431F
:10440000684304F070F8C4F80C01388894346843A9
:10441000704304F068F8E0673988A06F714369431E
:10442000FCF78BF83988E06F69437143FCF785F836
:1044300014F8882C14F8861CA4F11C00A36F943C7B
:10444000FCF797F9A27B217B04F18000D4F81031AE
:10445000FCF78FF938886843684304F044F8C4F8DF
:104460001401398869436943FCF767F8217B04F13B
:1044700088000A46D4F81431FCF77BF93888704379
:10448000704304F030F8C4F818013988714371435F
:10449000FCF753F8A17B04F190000A46D4F81831D8
:1044A000FCF767F938886843704304F01CF8C4F8D7
:1044B0001C01398869437143FCF73FF8A27B217BDB
:1044C00004F19800D4F81C31FCF753F9207B10FB61
:1044D00000F03988484304F006F8C4F82001217B35
:1044E00011FB01F13A885143FCF727F8207B10FBC0
:1044F00000F03988484303F0F6FFC4F82401217B1B
:1045000011FB01F13A885143FCF717F8207B10FBAF
:1045100000F03988484303F0E6FFC4F82801217B06
:1045200011FB01F13A885143FCF707F8207B3988E9
:10453000484303F0D8FFC4F82C01217B3A8851434B
:10454000FBF7FBFF207B3988484303F0CCFFC4F81E
:104550003001217B38884143D4F82C01FBF7EDFF73
:10456000217B04F1A0000A46D4F82031FCF701F9C0
:10457000217B04F1A8000A46D4F82431FCF7F9F8AD
:10458000217B04F1B0000A46D4F82831FCF7F1F899
:10459000217B012204F1B800D4F82C31FCF7E9F8B2
:1045A000217B012204F1C000D4F83031FCF7E1F89E
:1045B00004F8289F84F8019084F8029084F803900E
:1045C00084F80490BDE8F0874802002070B50446E6
:1045D000C07B0F4D18B12046FEF780FE0DE0A27B98
:1045E000288861684243D4F8F400FBF752FFA17BAE
:1045F000288841436068FBF7A0FF627B2888A16898
:104600004243D4F8F000BDE87040FBF742BF000021
:10461000480200202DE9F041044690F82C000028C3
:104620002BD1B4F89800A4F8A800B4F87A10A4F834
:10463000AA10A4F8B000B4F85A00A4F8B20004F12B
:10464000A802154604F1780104F19800FCF710FA6D
:1046500084F8C80004F1B00204F1580116460F4670
:104660002846FCF705FA84F8C80004F150023146E8
:104670003846FCF791FA84F8C800BDE8F0812DE9CE
:10468000F041044690F8290000282CD104F168017B
:1046900004F160000F460646FCF7DCFA84F8C80017
:1046A00004F15802154604F150013046FCF7E0F9D8
:1046B00084F8C800B4F85800A4F8A800B4F86A0058
:1046C000A4F8AA0004F1A802164639462846FCF7C9
:1046D000CFF984F8C8002A4604F188013046FBF778
:1046E000EBFF84F8C800BDE8F0812DE9F0470446EF
:1046F00090F82A0000285CD104F1800104F17800D0
:1047000089460546FCF7A6FA84F8C800B4F8780094
:10471000A4F8A800B4F85A00A4F8AA0004F1A8026A
:1047200004F1580190460F462846FCF7A1F984F899
:10473000C800B4F8A800A4F8B000B4F88200A4F847
:10474000B20004F1B002154649464046FCF790F924
:1047500084F8C800B4F89000A4F8A000B4F892005F
:10476000A4F8A20004F1A002164604F19001284624
:10477000FBF7A2FF84F8C80029463046AA34FBF7AD
:10478000FDFFA07734F8520C24F8020C34F8280C02
:104790002080424649463846FCF76AF904F81E0F65
:1047A000A4F1300229464046C83CFCF761F984F880
:1047B000C800BDE8F087000070B50446FFF706FFAB
:1047C000D4F8CC1009B120468847204600F068F89C
:1047D000D4F8D01009B1204688472046FFF74FFF94
:1047E000D4F8D41009B120468847207C2B4DC0B99D
:1047F000E07BB0B1227B28884243D4E93A01FBF741
:1048000048FE207B10FB00F228884243D4E93E0199
:10481000FBF73FFED4F8E01009B12046884700209E
:1048200029E02046FFF761FFD4F8D81009B12046EF
:104830008847204600F06EF8D4F8DC1009B1204615
:1048400088472046FFF7E6FEE4E710FB0101D4F8B5
:10485000F82002EB8101226AD1ED000A02EB80020E
:1048600092ED000AF4EEC00AF1EE10FA01D281EDE9
:10487000000A401CC0B2217B8142E6D8CAB2288817
:10488000D4F8E81042432068FBF703FED4F8E410A4
:1048900009B120468847206870BD0000480200200A
:1048A0002DE9F041044690F8280000282AD1627BC7
:1048B00004F1300104F1600004F1380522B3227BD9
:1048C000A4F8B820012604F1B802A4F8BA6017468B
:1048D000FCF7CEF884F8C800207BA4F8C000A4F848
:1048E000C26004F1C002164604F1400104F17000F8
:1048F000FCF7BEF804F8C80F2A4631463846FBF7E5
:10490000DBFE2070BDE8F0812A46FCF7B1F884F8A0
:10491000C800F7E72DE9F041044690F82B00002885
:1049200038D1B4F87800A4F8B800012504F1B80231
:1049300004F13801A4F8BA5090460F4604F178000B
:10494000FCF796F884F8C800B4F84800A4F8C00052
:1049500004F1C002A4F8C2501646414604F14800D2
:10496000FCF71AF984F8C800B4F89800A4F8B80065
:10497000A4F8BA504246314604F19800FCF778F8A2
:1049800084F8C80004F1300241463846FBF794FE33
:1049900084F8C800BDE8F0810D4808B5016841F40D
:1049A000001101600068002200F400100090052151
:1049B0000E20FCF743FE0E20FCF732FE00220521FC
:1049C0000F20FCF73BFEBDE808400F20FCF728BE97
:1049D0003038024010B58EB01C220B496846FBF7F8
:1049E00058FD0021684603F00EFB084C06491C22C6
:1049F00020601C3107A8FBF74CFD002107A803F03D
:104A000002FB60600EB010BDC08C00084C0000209E
:104A10002DE9F04186B014216846FBF78EFD2F4842
:104A20000025016841F080010160016801F080010A
:104A30000591016841F004010160016801F0040181
:104A40000591016841F002010160016801F0020175
:104A50000591016841F0010101600068DFF8808084
:104A600000F001000590002240F201214046FCF7D1
:104A700041FD1C4F002203213846FCF73BFD012479
:104A80000094CDE90145694640460395FCF760FC7A
:104A9000154E0420CDE90006694602954046FCF714
:104AA00057FC0820CDE90006694602944046FCF711
:104AB0004FFC03208DE83100694638460395FCF72A
:104AC00047FC6002CDE900040220CDE902406946BE
:104AD0004046FCF73DFC06B0BDE8F08130380240AE
:104AE000000802400004024000001110104810B5F8
:104AF0000E4901604FF48271416000210222816001
:104B0000C0E9031201224261520282612022C0E9FF
:104B10000721416281620A21C162FEF70FF8002875
:104B200003D0BDE81040FCF7A2BA10BD0038004029
:104B3000801E002010B58AB0002407941C2168460E
:104B40000894FBF7FAFC16481449C0E9001441F236
:104B50008731C0E9024104618461FEF764FB08B15A
:104B6000FCF785FA079407A90D480894FEF786F923
:104B700008B1FCF77CFA6020CDE90004029404221D
:104B8000694607480494FEF7E6FA08B1FCF76FFAA5
:104B90000348FEF7AFFA0AB010BD00000004004061
:104BA000981F002010B500220F49104801F003FBA8
:104BB00008B1FCF75CFA0E490C4801F0D7FC08B1CB
:104BC000FCF755FA0B49094801F0F1F808B1FCF778
:104BD0004EFA064801F044FD002803D0BDE810401D
:104BE000FCF745BA10BD000054000020182000203A
:104BF00010020020B400002010B52DED088BF0EE5F
:104C000040AAB0EE60AA2AEEAA0AF0EE419AB0EEEF
:104C1000628AF0EE428A0AEE0A0AB0EE619A09EE62
:104C2000A90A03F0C1F96AEE80AA2AEE00AA69EE89
:104C3000809AB5EEC09AF1EE10FA17D0F5EEC08A60
:104C4000F1EE10FA12D0B5EEC08AF1EE10FA0DD0E6
:104C500029EE090A08EEA80A08EE080A03F0A4F9EA
:104C600029EE009A68EE808A28EE008AF0EE690A42
:104C7000B1EE6A0A02F01CFCF0EE40AAF0EE690AFE
:104C8000B0EE4A0A02F014FCB0EE40BA02F0E0FDC9
:104C9000B0EE40AAB0EE4B0A02F032FDF0EE409AC0
:104CA000B0EE6A0A02F02CFDF0EE40BAB0EE6A0AED
:104CB00002F0CEFDB5EEC09AF1EE10FA1CD0F5EE82
:104CC000C08AF1EE10FA17D0B5EEC08AF1EE10FAF4
:104CD00012D069EE2B0A28EE801A28EE000A41EE67
:104CE0000A0A40EE290A28EEA90A18EE0A0A02F07A
:104CF000DFFBB0EE408A01E09FED378AF6EE008AD6
:104D00002BEE280AB0EE409A02F0FAFCB0EE40AA70
:104D10002AEEA80AF0EE40AA02F0F2FCF0EE409A69
:104D200028EE280AB0EE40BA02F0EAFCB0EE408A63
:104D3000B0EE490A02F08CFDB0EE409AB0EE6A0A7D
:104D400002F086FDF0EE408AB0EE4B0A02F080FDE4
:104D50006AEE291A29EE293A69EE282A2AEE281A3B
:104D600021EE882A63EE080A61EE801A1B4A02EEE1
:104D7000802A41EE400A21EE081A42EEC81A02F1DA
:104D80000C0082ED022A03EE001A22EE020AC0ECA9
:104D9000030A00EEA00A01EE010A01EEA10A00F0EA
:104DA000A7F9D2ED020A60EE800AC2ED020AD2ED46
:104DB000030A60EE800AC2ED030AD2ED040A60EE37
:104DC000800AC2ED040AD2ED050A20EE800A82EDC7
:104DD000050ABDEC088B10BD00000000DC020020BD
:104DE00010B5724C2DED088BB0EE61BAF0EE629A00
:104DF000B5EEC0BAB0EE42AAB0EE418AF0EE608ADB
:104E0000B0EE409AF6EE00BAF1EE10FA09D1B5EE26
:104E1000C0AAF1EE10FA04D1F5EEC09AF1EE10FA44
:104E200065D02BEE0B0A0AEE0A0A09EEA90A03F076
:104E3000BBF86BEE002A2AEE003A29EE802A94EDA8
:104E4000020AF0EE6BAAD4ED050A50EE00AA94ED2A
:104E5000031AD4ED043A61EE201A20EE011A40EE56
:104E6000A0AA40EE631A03EEA01A94ED010A63EEC5
:104E70002A0AB5EEC00A42EE410A22EE212A22EEAB
:104E8000811A02EEEA2A03EE611AF1EE10FA20DD31
:104E900020EE203AD4ED091AD4ED062A60EE023A4B
:104EA00043EE212AC4ED062A94ED073A39EE229A00
:104EB00003EEA13A60EE013A84ED073A94ED080A58
:104EC00078EE838A03EEA10A84ED080A38EE008AA0
:104ED00007E09FED370A84ED060A84ED070A84EDAA
:104EE000080A39EE209A78EE828A38EE018A94ED2B
:104EF000090A94ED032AD4ED041A20EE2B1A94ED3E
:104F0000053AD4ED022A21EE090A61EE280A21EEC3
:104F1000081A62EE403A41EEE03A43EE413A73EE4F
:104F2000A24A62EE803AC4ED024A41EE813A43EE73
:104F3000603A33EE824A62EEA03A84ED034A42EED2
:104F4000413A22EE811A02EE201A43EE003A01EEB7
:104F5000C01A24EEA40A73EEA13A04EE040A71EE1C
:104F6000030AC4ED043AC4ED050A03EEA30A00EEF9
:104F7000A00A03F019F8D4ED020A60EE800AC4ED2D
:104F8000020AD4ED030A60EE800AC4ED030AD4EDF0
:104F9000040A60EE800AC4ED040AD4ED050A20EE8E
:104FA000800A84ED050ABDEC088B10BDDC020020F0
:104FB000000000000E48DFED0D0AB7EE001AC0ED4C
:104FC000010A80ED021AC0ED030AC0ED040AC0ED2B
:104FD000050AC0ED060AC0ED070AC0ED080AC1EED9
:104FE000000A00210170C0ED090A704700000000AE
:104FF000DC02002010B53C4C2DED068BB6EE00AA6D
:10500000B0EE4A0A94ED039AD4ED049A09EE490AE7
:1050100009EEE90A10EE100A03F0D6FD94ED020A3B
:10502000D4ED050A41EC180B20EE090A09EEA00A9E
:1050300010EE100A03F0C8FD41EC100B04F128003B
:10504000B0EE481AF0EE681A02F0A8FD94ED0A0AD4
:10505000DFED26AA20EE2A0A84ED0A0A94ED030A5F
:10506000D4ED050A94ED041A20EE200AD4ED020ACC
:1050700000EEC10AF8EE000A20EE200A02F082F9E2
:1050800020EE2A0A84ED0B0AD4ED049A94ED059AD9
:1050900009EEE9AA09EE49AA1AEE100A03F094FDF6
:1050A00094ED030AD4ED020A41EC180B20EE290A14
:1050B00000EE890A10EE100A03F086FD41EC100B99
:1050C00004F13000B0EE481AF0EE681A02F066FD06
:1050D00094ED0C0A012020EE2A0A84ED0C0A2070BF
:1050E000BDEC068B10BD0000DC020020E12E654205
:1050F00010EE100AF6EE000A0B4960EE200AA1EB52
:10510000600000EE100AB7EE081A20EE802AF0EEDA
:10511000411A42EE401A21EE800A60EE800A00EE4B
:10512000C01A21EE000A7047DF59375F10B52DED28
:10513000108BB0EE43CAB0EE44BAB5EEC0CAF0EE82
:1051400063BAB0EE628AF0EE428AB0EE61AAB0EEC7
:10515000419AF0EE60AAF0EE409AF1EE10FA84B0B7
:105160001CD1F5EEC0BAF1EE10FA17D1B5EEC0BA07
:10517000F1EE10FA12D104B0F0EE482AB0EE682A2F
:10518000F0EE4A1AB0EE491AF0EE6A0AB0EE690A79
:10519000BDEC108BBDE81040FFF722BEB5EEC0AAF3
:1051A000F6EE00DAF1EE10FAAD4C09D1F5EEC08A58
:1051B000F1EE10FA04D1B5EEC08AF1EE10FA7CD00F
:1051C0002AEE0A0A08EEA80A08EE080A02F0ECFE27
:1051D0002AEE00DA28EE80EA68EE00EA2CEE0C0AED
:1051E0000BEEAB0A0BEE0B0A02F0DEFED4ED021A58
:1051F0002CEE00AA6BEE808A21EEA12A2BEE008A0B
:105200008DED032AD4ED040A94ED050A94ED031AFA
:1052100060EEA0FA21EE802A21EE00CA60EE80BA8C
:1052200020EE00BA3DEEEF0A21EE81FA61EEA0CA4F
:1052300061EE201A70EE4B2A21EE013A7CEE2C0A28
:1052400031EEC24A22EE8A0ACDED022A8DED014AE4
:1052500008EE840A08EE200AF0EE000A60EE200A4A
:1052600031EE820A7DEEC31A60EEA00A20EE0A0A31
:1052700031EECB1ACDED001A08EE810A3BEECF1AC3
:1052800008EE010AB0EE001A20EE010A40EE000A14
:10529000B0EE600A02F0A4FB3CEE6C1A7BEE8F1AB3
:1052A00061EE0A0A48EEA10ADDED001A71EEEF3A4E
:1052B000F0EE001A48EE230A00E06FE09DED032AAD
:1052C0009DED014ADDED022A32EE6D2A60EEA10A63
:1052D00062EE802A7FEE2B1A32EE0B3A24EE002A81
:1052E0003CEE8C4A40EE812A00EEA12A24EE000A10
:1052F00000EEA30A6EEE030A4EEEE10A68EE803A73
:1053000048EE423A70EEA30A6EEE813A4DEE433A11
:1053100028EE223A0AEE403A2DEE210A0EEE410A1C
:105320002AEE021A33EE833A08EEE21A70EE011A00
:1053300094ED010AB5EEC00AF1EE10FA20DD60EE40
:10534000202A94ED091A94ED062A60EE033A02EE43
:10535000812A84ED062AD4ED072A79EE829A43EE5B
:10536000812A60EE213AC4ED072A94ED080A7AEE0C
:10537000A2AA03EE810A84ED080A39EE009A07E03A
:105380009FED380A84ED060A84ED070A84ED080AC9
:1053900079EEA09A7AEE83AA39EE219A94ED090A61
:1053A00094ED032AD4ED041A20EE2D1A94ED053A5B
:1053B000D4ED022A21EE290A61EE2A0A21EE091A09
:1053C00062EE403A41EEE03A43EE413A73EEA24AD1
:1053D00062EE803AC4ED024A41EE813A43EE603A11
:1053E00033EE824A62EEA03A84ED034A42EE413A3D
:1053F00022EE811A02EE201A43EE003A01EEC01AA4
:1054000024EEA40A73EEA13A04EE040A71EE030A34
:10541000C4ED043AC4ED050A03EEA30A00EEA00AA7
:1054200002F0C2FDD4ED020A002060EE800AC4ED55
:10543000020AD4ED030A60EE800AC4ED030AD4ED3B
:10544000040A60EE800AC4ED040AD4ED050A20EED9
:10545000800A84ED050A207004B0BDEC108B10BDED
:10546000DC02002000000000FEE770470148FCF766
:10547000A7BA0000083700202DE9F04106680D4664
:105480000446316C06EB4510D0F8083BD4F810C048
:105490004FF400474FF0200E04F57172BCF1010F7C
:1054A00008D0DFF898C0614538D1190431D5C0F86B
:1054B000087B3FE0224E5FEA037C04D5B14239D934
:1054C0001904F4D436E05FEA836C02D5C0F808EB27
:1054D00030E013F0280F2DD1B14201D91904E6D4E0
:1054E000C5EBC50104EB8101D0F8100BD1F80432F3
:1054F000C0F31200181AC1F81402D1F808021844B7
:10550000C1F8080295B9D4F8100278B901212068D1
:105510000AE099060AD5C0F808EB07E035B9D4F8D7
:10552000100218B90021304601F06AFCE9B22046A9
:10553000FCF72DF90020BDE8F08100000A31544F3E
:105540000A30544F2DE9F84F0E46C1EBC60100EB6F
:1055500081048146D0F80080D4E914103C3488429C
:1055600002D90120BDE8F88F081AA168814200D253
:105570000846C01C870808EB461A15E0451AA068C3
:10558000A84200D20546E81C870899F81000009050
:10559000ABB2F2B24046E16801F0B8FEE0682844E0
:1055A000E060A0692844A061DAF8180980B2B84226
:1055B00005D3D4E90501814201D20028DED1D4E926
:1055C0000501884208D806F00F0101208840D8F86C
:1055D00034188143C8F834180020C3E7A0B1D0EDD7
:1055E000101AC0ED111A90ED0F1A80ED101AC0EDCF
:1055F000060A80ED070A30EEC00A80ED0F0A017836
:1056000029B101293BD078E09FED3D0A7047D0EDEC
:10561000010A60EE801AC0ED091AD0ED0A0A90ED79
:10562000022A42EE000A30EE410AC0ED0A0A90ED6D
:105630000D2A80ED0E2A90ED0C2A80ED0D2A80EDCA
:105640000C0A90ED031A21EE001A80ED0B1A90ED72
:10565000050AF4EEC00AF1EE10FA09DCB1EE400AD8
:10566000F4EEC00AF1EE10FA02D390ED0A0A01E05E
:1056700080ED0A0A31EE800A30EE010A2BE070EE6E
:10568000410A90ED012A60EE820AC0ED090A90ED10
:10569000022A22EE002A80ED0A2AD0ED0D2A70EEB1
:1056A000820AC0ED0E2AD0ED0C2AC0ED0D2AF0EED4
:1056B000002A01EE620A30EE210A80ED0C0A90ED1C
:1056C000031A21EE000A80ED0B0A30EE800AD0EDBD
:1056D000080A30EE200A80ED080AD0ED040AB4EE84
:1056E000E00AF1EE10FA06DCF1EE600AB4EEE00A30
:1056F000F1EE10FA01D2C0ED080A90ED080A7047E9
:1057000000000000002828D0002A26D0017092ED69
:10571000001A80ED011A92ED011A80ED021A92ED45
:10572000021A80ED031A80ED040A9FED0C0AC0ED09
:10573000050A80ED0E0A80ED0D0A80ED0C0A80ED61
:10574000080A80ED0B0A80ED0A0A80ED090A80ED57
:10575000110A80ED100A80ED0F0A7047000000006A
:105760000148FDF76DB90000801E002010B5806B68
:105770000021C187C186FDF761F910BD38B5044627
:105780001248134D4FF47A730068B0FBF5F058439C
:1057900000906068B0F5827F0DD10B460092002228
:1057A0008021204600F016F870B1606D40F02000B6
:1057B0006065032038BD009830B1401E009020681D
:1057C0008068C0430006F6D5002038BD14030020D1
:1057D00000366E012DE9F0411D4617460E4604467F
:1057E000DDF8188008E0681C06D0FBF789FEA0EB06
:1057F0000800A8420BD255B12068806836EA000044
:1058000030D00020B842EED10020BDE8F081206801
:10581000416821F0E00141606068B0F5827F0BD102
:10582000A068B0F5004F02D0B0F5806F04D12068B9
:10583000016821F040010160A06AB0F5005F09D164
:105840002068016821F4005101602068016841F47A
:1058500000510160012084F85100002084F85000BC
:105860000320D2E70120CDE70178407841EA00200B
:105870007047000010B5502080F31188BFF34F8FA0
:10588000BFF36F8F03F0D4F818B104494FF0805084
:105890000860002080F3118810BD000004ED00E0D6
:1058A00030B593B034216846FAF747FE14210DA8AD
:1058B000FAF743FE1A480025016841F08051016063
:1058C000006800F0805012901648016841F4404191
:1058D00001600068022400F4404012900120009012
:1058E000000401908001CDE9064006200890A82020
:1058F000CDE909040720CDE90B046846FCF706FF53
:105900000DA90F2081E831004FF4A0501090E00263
:10591000119005210DA8FCF7DDFD13B030BD00008E
:1059200040380240007000400548016841F47001B1
:10593000016003494FF00060803908607047000043
:1059400088ED00E00148FDF721BB0000D81F0020D2
:10595000F0B50268254D264E264FDFF89CC0274B38
:105960004FF0804EA84209D0704507D0B04205D014
:10597000B84203D0604501D0984203D122F07004B0
:105980004A682243A8421BD0704519D0B04217D0B4
:10599000B84215D0604513D0984211D0184CA0429F
:1059A0000ED0184CA0420BD0174CA04208D0174C78
:1059B000A04205D0164CA04202D0164CA04203D102
:1059C00022F44074CA6822434C6922F080022243C8
:1059D00002608A68C2620A688262A84201D0984264
:1059E00001D10969016301214161F0BD000001405D
:1059F0000004004000080040000C0040000401408A
:105A000000400140004401400048014000180040AF
:105A1000001C00400020004010B501F01F010123D0
:105A2000046A8B409C430462036A8A401343036206
:105A300010BD0000F0B5026A22F001020262026AA3
:105A400043688469114E24F073050C68104F2C4391
:105A500022F002058A682A43B04201D0B84205D13B
:105A600022F00805CA682A4322F00402B04201D09D
:105A7000B84205D14D6923F440731D438B692B4314
:105A800043608461496841630262F0BD00000140E7
:105A900000040140F0B5026A22F010020262026ABC
:105AA000436884690D6824F4E64444EA05248D685B
:105AB00022F0200242EA05120F4D104EA84201D0FA
:105AC000B04206D1CF6822F0800242EA071222F0EB
:105AD0004002A84201D0B04207D14D6923F440638F
