:020000040800F2
:10000000305F002065030008DF450008F741000865
:100010005D450008E90B0008C56400080000000009
:10002000000000000000000000000000A502000821
:100030001D1400080000000001030008F949000831
:100040007F0300087F0300087F0300087F03000888
:100050007F0300087F0300087F0300087F03000878
:100060001F140008251400087F0300081D10000855
:10007000291000087F03000835100008411000080F
:100080007F0300087F0300087F0300087F03000848
:10009000290C00087F0300087F0300087F03000885
:1000A0007F0300087F0300087F0300087F03000828
:1000B0007F0300087F0300087F0300087F03000818
:1000C0007F0300087F0300087F0300087F03000808
:1000D0007F0300087F0300087F03000841510008E8
:1000E0007F0300087F0300087F0300087F030008E8
:1000F0007F0300087F0300087F0300084D100008FD
:100100007F0300087F0300087F0300087F030008C7
:100110007F0300082D4D00087F0300087F030008BF
:100120007F0300087F0300087F0300087F030008A7
:100130007F03000800000000000000007F030008AB
:10014000710C00087D0C00087F030008E1450008E1
:100150007F0300087F0300087F0300087F03000877
:100160007F0300087F0300087F0300087F03000867
:100170007F0300087F0300087F03000800000000E1
:10018000000000007F0300080000000000000000E5
:100190007F03000800000000000000007F0300084B
:1001A0000000000000000000000000007F030008C5
:1001B0007F0300087F0300087F0300087F03000817
:1001C0007F03000800F002F800F05CF80AA090E855
:1001D000000C82448344AAF10107DA4501D100F002
:1001E00051F8AFF2090EBAE80F0013F0010F18BF73
:1001F000FB1A43F001031847ECB500000CB60000F1
:100200000A444FF0000C10F8013B13F0070408BF3C
:1002100010F8014B1D1108BF10F8015B641E05D0DA
:1002200010F8016B641E01F8016BF9D113F0080F8F
:100230001EBF10F8014BAD1C0C1B09D16D1E58BF21
:1002400001F801CBFAD505E014F8016B01F8016B58
:100250006D1EF9D59142D6D37047000000230024CB
:1002600000250026103A28BF78C1FBD8520728BFC6
:1002700030C148BF0B6070471FB50BF0E2F81FBDDF
:1002800010B510BD00F0D9F91146FFF7F5FF09F0E0
:10029000C7F900F0F7F903B4FFF7F2FF03BC00F071
:1002A000FBF900002C4B19680868B0E8F04F80F3A8
:1002B0000988BFF36F8F4FF0000080F311887047FB
:1002C0000000000008480068006880F308884FF0CC
:1002D000000080F3148862B661B6BFF34F8FBFF39E
:1002E0006F8F00DF00BF00BF08ED00E0DFF80C00FB
:1002F000016841F470010160704700BF88ED00E0C3
:10030000EFF30980BFF36F8F134B1A681EF0100FC5
:1003100008BF20ED108A20E9F04F106009B44FF0BB
:10032000500080F31188BFF34F8FBFF36F8F0AF037
:1003300007F84FF0000080F3118809BC19680868BD
:10034000B0E8F04F1EF0100F08BFB0EC108A80F339
:100350000988BFF36F8F704724000020EFF30580FA
:10036000704700000948804709480047FEE7FEE75C
:10037000FEE7FEE7FEE7FEE7FEE7FEE7FEE7FEE755
:1003800004480549054A064B70470000A94A000881
:10039000C501000830530020305F00203057002096
:1003A0003057002053EA020C00F069802DE9F04B31
:1003B0004FF00006002B1FBFB3FA83F503FA05F4D4
:1003C00024FA05F65E4012BF1643B2FA82F502FA2D
:1003D00005F4C5F120051EBF22FA05FC44EA0C0411
:1003E000203556EA044C4FEA144418BF641C4FF001
:1003F00000084FF00009904271EB030C39D300293B
:1004000019BFB1FA81F701FA07F6B0FA80F700FADE
:1004100007F6C7F120071EBF20FA07FC46EA0C06C4
:100420002037B6FBF4FCA7EB0507103F07F01F0BC6
:10043000CBF120060CFA0BFB2CFA06F644BFB346B0
:100440000026202FA4BF5E464FF0000B5BEA060C8F
:1004500008BF4FF0010B19EB0B09ABFB027C48EB1B
:100460000608C01B06FB02CC0BFB03CC71EB0C0196
:10047000C1E70B46024641464846BDE8F08B13B53E
:100480004FF000004FF00001AFF30080BDE81C40CA
:10049000704710B5431C02E010F8011B71B18107D1
:1004A000FAD14FF0013202C88C1A8C4314EAC211FF
:1004B000F9D0C01A0A0603D0C01E10BDC01A10BD64
:1004C0000A0401D0801E10BD0902FCD0401E10BDE0
:1004D000032A40F2308010F0030C00F0158011F870
:1004E000013BBCF1020F624498BF11F801CB00F848
:1004F000013B38BF11F8013BA2F1040298BF00F89C
:1005000001CB38BF00F8013B11F0030300F0258058
:10051000083AC0F0088051F8043B083A51F804CB7F
:10052000A0E80810F5E7121D5CBF51F8043B40F845
:10053000043BAFF30080D20724BF11F8013B11F850
:1005400001CB48BF11F8012B24BF00F8013B00F894
:1005500001CB48BF00F8012B704710B5203AC0F01E
:100560000B80B1E81850203AA0E81850B1E81850B4
:10057000A0E81850BFF4F5AF5FEA027C24BFB1E8F1
:100580001850A0E8185044BF18C918C0BDE8104062
:100590005FEA827C24BF51F8043B40F8043B08BF6B
:1005A0007047D20728BF31F8023B48BF11F8012B32
:1005B00028BF20F8023B48BF00F8012B70474FF0DE
:1005C000000200B5134694469646203922BFA0E8A3
:1005D0000C50A0E80C50B1F12001BFF4F7AF0907AF
:1005E00028BFA0E80C5048BF0CC05DF804EB8900A0
:1005F00028BF40F8042B08BF704748BF20F8022BE3
:1006000011F0804F18BF00F8012B704770477047FA
:10061000704710B500F00CF8006810BD10B5044626
:1006200000F006F8046010BD00487047D05200206A
:1006300000487047D052002070477546FFF7F4FF1E
:10064000AE4605006946534620F00700854618B0BF
:1006500020B5FFF795FEBDE820404FF000064FF0B3
:1006600000074FF000084FF0000B21F00701AC46E7
:10067000ACE8C009ACE8C009ACE8C009ACE8C00906
:100680008D46704710B50446AFF300802046BDE8A4
:100690001040FFF700BE000001491820ABBEFEE786
:1006A0002600020001220221014801F0CBBF000018
:1006B0000004024000220221014801F0C3BF0000F3
:1006C000000402407047000001221146014801F079
:1006D000B9BF00000004024000220121014801F0DE
:1006E000B1BF000000040240704730B504464FF42B
:1006F0007A7502E0284600F004F8641EA4B2F9D22C
:1007000030BD70B54FF0E02400226569A821484350
:10071000A169A3698B42FCD002D2A1EB030102E0E4
:10072000A5EB030631440A4419468242F1D370BD59
:1007300010B5FFF7C7FFFFF7D7FF06F033FE0446FB
:1007400006F0B8FE204310BD2DE9FC41074600200D
:1007500016460D4600900190FFF7ACFF922000F086
:10076000BDF806226946122000F09AF8FFF79AFFBA
:100770009DF801009DF80010000200B2084300EE51
:10078000100A464CB8EEC00AD4ED000A20EE200A4A
:1007900085ED000A9DF803009DF80210000200B2EA
:1007A000084300EE100AD4ED000AB8EEC00A20EEAD
:1007B000200A85ED010A9DF805009DF8041000024D
:1007C00000B2084300EE100AB8EEC00A20EE200A7C
:1007D00085ED020AFFF780FF08226946002000F03D
:1007E0005FF8FFF771FF9DF800000F2830D19DF8EA
:1007F00003009DF80210000200B2084300EE100A48
:10080000D4ED010AB8EEC00A20EE200A87ED000AF6
:100810009DF805009DF80410000200B2084300EEA8
:10082000100AD4ED010AB8EEC00A20EE200A87EDC6
:10083000010A9DF807009DF80610000200B2084367
:1008400000EE100AB8EEC00A20EE200A87ED020A78
:10085000FFF730FFA22000F041F802226946222073
:1008600000F01EF8FFF71EFF9DF800009DF8011034
:10087000C00040EA5110B0F5806F01DBA0F50060C8
:1008800000EE100AB4EE001AF8EEC00AB3EE070A42
:1008900000EE810A86ED000ABDE8FC81E800002038
:1008A00070B514460D4640F0800000F017F806E0E1
:1008B000552000F013F8641E05F8010BE4B2002C7B
:1008C000F6D170BD10B50C4640F0800000F006F87F
:1008D000552000F003F8207010BD000001B582B073
:1008E0004FF47A700090012301AA02A9024802F095
:1008F0004FFF9DF804000EBDBC05002010B50C464E
:10090000FFF7ECFF2046BDE81040FFF7E7BF00000F
:1009100070B505462DED108B82B014460E468068EA
:100920000AF01EFD94ED048B94ED00BB41EC1A0B14
:1009300053EC182B51EC1B0B0AF0E8FA94ED069BD4
:1009400094ED02CB41EC1D0B53EC192B51EC1C0B1D
:100950000AF0DCFA53EC1D2B09F0AAFF53EC1A2B1A
:100960000AF0D4FA41EC1D0B68680AF0F9FC41EC7E
:100970001A0B53EC192B51EC1B0B0AF0C7FA41EC84
:100980001B0B53EC182B51EC1C0B0AF0BFFA53EC69
:100990001B2B0AF0FBFB53EC1A2B0AF0B7FA41ECC5
:1009A0001B0B28680AF0DCFC41EC1C0B53EC192BE8
:1009B00051EC190B0AF0AAFA41EC190B53EC182B65
:1009C00051EC180B0AF0A2FA9FED83AB53EC1A2BF3
:1009D0000AF0D0FB53EC192B0AF0D8FB53EC1C2B7C
:1009E0000AF094FA53EC1B2B09F062FF53EC1D2B19
:1009F00009F05EFF9FED7ABB53EC1B2B0AF086FAE1
:100A000009F024FF3060A8680AF0AAFC94ED029B6C
:100A100094ED00DB41EC1F0B53EC192B51EC1D0B3B
:100A20000AF074FA94ED068B94ED04CB41EC1E0BA6
:100A300053EC182B51EC1C0B0AF068FA53EC1E2BEC
:100A40000AF0A4FB53EC1F2B0AF060FA41EC100BE8
:100A50008DED000B68680AF083FC41EC1E0B53EC33
:100A6000182B51EC180B0AF051FA41EC1F0B53EC08
:100A7000192B51EC190B0AF049FA53EC1A2B0AF016
:100A800079FB53EC1F2B0AF081FB53EC1E2B0AF071
:100A90003DFA41EC1F0B28680AF062FC41EC1E0B8A
:100AA00053EC182B51EC1D0B0AF030FA41EC180BEB
:100AB00053EC1C2B51EC190B0AF028FA53EC182BB1
:100AC00009F0F6FE53EC1E2B0AF020FA53EC1F2B14
:100AD00009F0EEFE9DED000B53EC102B09F0E8FE43
:100AE00053EC1B2B0AF012FA09F0B0FE7060A868F4
:100AF0000AF036FC94ED049B41EC1C0B53EC192BD3
:100B000051EC190B0AF002FA94ED028B41EC1D0B2B
:100B100053EC182B51EC180B0AF0F8F953EC1A2B84
:100B20000AF028FB53EC1D2B0AF030FB53EC1C2B76
:100B30000AF0ECF941EC1F0B68680AF011FC94ED27
:100B400000CB41EC1E0B53EC182B51EC1C0B0AF0A4
:100B5000DDF994ED06AB41EC1D0B53EC1A2B51EC77
:100B6000190B0AF0D3F953EC1D2B09F0A1FE53EC3D
:100B70001E2B0AF0CBF941EC1E0B28680AF0F0FBA3
:100B800041EC1D0B53EC192B51EC1C0B0AF0BEF978
:100B900041EC190B53EC1A2B51EC180B0AF0B6F977
:100BA00053EC192B0AF0F2FA53EC1D2B0AF0AEF9B4
:100BB00053EC1E2B09F07CFE53EC1F2B09F078FE42
:100BC00053EC1B2B0AF0A2F909F040FEB06002B012
:100BD000BDEC108B70BD0000000000000000E03F85
:100BE0000000000000000040FEE7000000B58BB0F0
:100BF00000200121CDE906010590009001900290AE
:100C0000039004900E20CDE908106946054800F0D5
:100C1000F1FD0221034800F077FD024801F0F0F9F0
:100C20000BB000BD18030020014800F0DEBE00003C
:100C30001803002000B58BB001220E21002007927E
:100C4000CDE9051003900490CDE9082100900190B2
:100C500002906946054800F0CDFD0221034800F0EE
:100C600053FD024801F0CCF90BB000BD4003002059
:100C7000014800F0BABE000040030020014800F027
:100C8000B4BE00004003002070B5AA4CAA492DED67
:100C9000048BB0EE409AF0EE609A94ED070A84ED72
:100CA000090A51F8030FA0628988A1829FEDA30A67
:100CB000A349A44D84ED0B0A884209DDBDEC048BE9
:100CC00005F5A6704FF48051BDE8704003F048BCB4
:100CD000B5F94C01B5F90610B5F91220401AB5F96D
:100CE0004E11891A0844B5F95011B5F91E20891A18
:100CF0000844B5F95211B5F92A20891A08440AF0B6
:100D00004EF841EC100B84ED140B9FED8F1B53EC50
:100D1000112B09F0D9FF36D0B5F94C01B5F9061001
:100D2000401A0AF03CF894ED148B53EC182B09F0A0
:100D300073FEC4E90C01B5F94E01B5F91210401A61
:100D40000AF02DF853EC182B09F066FEC4E90E01E9
:100D5000B5F95001B5F91E10401A0AF020F853EC0D
:100D6000182B09F059FEC4E91001B5F95201B5F983
:100D70002A10401A0AF013F853EC182B09F04CFE15
:100D8000C4E9120109E09FED721B84ED0C1B84ED98
:100D90000E1B84ED101B84ED121B94ED140B53EC11
:100DA000192B51EC100B09F037FE09F04FFDF7EE4F
:100DB000000AE061B0F17E5F02DDC4ED070A06E0E3
:100DC00010F1814F03D9BFEE000A84ED070A607865
:100DD000C0BB614890ED010AB5EEC00AF1EE10FA11
:100DE00044D010EE100A5D4901445D48814202D2B0
:100DF0009FED5C0A07E010EE101A5B4A1144814235
:100E000004D29FED5A0A84ED080A31E010EE101A60
:100E1000574A1144814202D29FED560AF3E710EE81
:100E2000101A554A1144814202D29FED540AEAE752
:100E300010EE100A524908445249884203D2B6EED5
:100E4000000AE0E712E010EE100A4F4908444F494B
:100E5000884202D29FED4E0AD5E710EE100A4A49A9
:100E6000C943884204DA9FED4B0ACCE7C4ED080A77
:100E7000206A06460AF074FA94ED0B0AD4ED070ACC
:100E800041EC190B20EE208A18EE100A0AF068FADD
:100E900094ED0C1B53EC112B0AF038F853EC192B82
:100EA0000AF034F809F04CFF688030460AF058FA2E
:100EB00041EC190B18EE100A0AF052FA94ED0E1BD1
:100EC00053EC112B0AF022F853EC192B0AF01EF800
:100ED00009F036FFE88130460AF042FA41EC190B7E
:100EE00018EE100A0AF03CFA94ED101B53EC112B8B
:100EF0000AF00CF853EC192B0AF008F809F020FF5F
:100F0000688330460AF02CFA41EC190B18EE100AEF
:100F10000AF026FA94ED121B53EC112B09F0F6FFA0
:100F200053EC192B09F0F2FF09F00AFFE884BDEC3D
:100F3000048B70BDC0020020704F0020006070471D
:100F400000001644A0500020000000000000000037
:100F5000000000000000D03F0C4D0020FFFF47BE06
:100F6000FFFF07006666663FFFFF4FBECDCC4C3FDC
:100F7000FFFF57BE3333333FFFFF5FBE9A99193FE0
:100F8000FFFF6FBEFFFF0F00FFFF8FBEFFFF1F00C1
:100F90009A99993ECDCCCC3D1E4CB3EE0E0A2DED68
:100FA000028B002584ED0C0AB6EE000A84ED0D0AD2
:100FB000B0EE000A9FED188A84ED0E0A04F13006A7
:100FC00005EB0510B0EE480A04EB8000F0EE400A95
:100FD00031463C3008F04CFC6D1CEDB2042DEFD3D3
:100FE0000025A4F85451A4F85651A4F8585100BF54
:100FF000A4F85451A4F85651A4F8585109F0CEFB66
:1010000008F064FB06F000FD06F0C2FA012008F0CB
:1010100095FBEDE7A050002000008046014801F05C
:101020007DB80000A4070020014801F077B8000057
:1010300064080020014801F071B800001406002087
:10104000014801F06BB8000074060020014801F06F
:1010500065B80000040800202DE9F04F85680024E1
:10106000099E802D18D0894DC563894D456490F83F
:101070003450012D15D0012580F8345090F83550AA
:10108000012D10D0002180F834100224002180F8B6
:1010900034102046BDE8F08F4FF480714165012087
:1010A000F8E70220F6E7022580F83550002545656F
:1010B00005682F6847F480272F6005682B61036857
:1010C0005E608368402B03682AD099600168CA601B
:1010D000714D704E704FDFF8BC81DFF8B891DFF8CA
:1010E000B8A1DFF8B4B1EA14DFF8A8E10168183656
:1010F00030379302A9F148090AF1600A0BF1180B85
:10110000AEF1300E4FF0006C41452DD9A94205D00B
:10111000494503D0514501D0B14205D1202220E0FC
:101120009A600268D160D3E759451AD0714518D04A
:10113000594D7835A94214D0564D3035A94210D0BA
:10114000B9420BD0534A183A914207D0524A9032D2
:10115000914203D04F4A4832914201D11A4600E0F1
:1011600062464C494C392EE0DFF82C8108F1A80882
:1011700041452AD9A94205D0494503D0514501D05E
:10118000B14201D120221CE059451AD0714518D036
:10119000414D7835A94214D03E4D3035A94210D08A
:1011A000B9420BD03B4A183A914207D03A4A9032A2
:1011B000914203D0374A4832914201D11A4600E0A9
:1011C0006246344950390A605AE0DFF8CC8008F1B1
:1011D000480841452AD9A94205D0494503D051457F
:1011E00001D0B14201D120221CE059451AD07145ED
:1011F00018D0294D7835A94214D0264D3035A94252
:1012000010D0B9420BD0234A183A914207D0224A53
:101210009032914203D01F4A4832914201D11A467E
:1012200000E062461C491039CA6029E0A94205D095
:10123000494503D0514501D0B14201D120221CE0E3
:1012400059451AD0714518D0134D7835A94214D09C
:10125000104D3035A94210D0B9420BD00D4A183A82
:10126000914207D00C4A9032914203D0094A483249
:10127000914201D11A4600E06246074910398A605E
:1012800001680A6842F001020A60FFE6157D000865
:10129000397D00085864024010600240016818233C
:1012A000CAB2103AB2FBF3F2054B6FF30901032AFD
:1012B0009B5CC36500D9091D816508467047000025
:1012C000E0B4000810B5014600208B698A6A4FF02F
:1012D000C07453B1B3F5005F15D072B1012A0CD0C0
:1012E000022A0AD0032A09D104E01AB1012A06D041
:1012F000022A03D1C96AC90100D5012010BDC96AFB
:10130000A142FAD010BD002AF7D0012AF2D0022A59
:10131000F3D0032AF3D010BD30B50468256825F456
:1013200080252560046863608368402B036803D0D0
:1013300099600068C26030BD9A600068C16030BDCD
:1013400001680A68D20604D5C968C90601D508F043
:10135000C5BD704701680A68D20604D5C968C906C8
:1013600001D508F0BBBD7047074808B5406800903C
:10137000014606480269914202D2C168491CC16017
:101380000099016108BD0000001000E090000020FD
:1013900000B50E492DED028B81B0496800910168BE
:1013A000009A511A00EE101A0949F8EE400A91ED20
:1013B000000A0260B8EE400A80EE808AFFF7D4FF90
:1013C00001B0B0EE480ABDEC028B00BD001000E099
:1013D000900000200D490A6842F080720A600C49B2
:1013E00000224A600B6843F001030B6009494FF487
:1013F0007A734843B0FBF3F30749C1E90003054B97
:10140000B0FBF3F0C1E9020270470000FCED00E020
:10141000001000E040420F009000002070470420C0
:1014200001F00EB8082001F00BB8000070B50546B9
:101430002DED108B82B014460E46806809F090FFA7
:1014400094ED048B94ED00BB41EC1A0B53EC182B7C
:1014500051EC1B0B09F05AFD94ED069B94ED02CB69
:1014600041EC1D0B53EC192B51EC1C0B09F04EFDFC
:1014700053EC1D2B09F08AFE53EC1A2B09F046FDA4
:1014800041EC1D0B686809F06BFF41EC1A0B53EC43
:10149000192B51EC1B0B09F039FD41EC1B0B53ECE4
:1014A000182B51EC1C0B09F031FD53EC1B2B09F0F0
:1014B000FFF953EC1A2B09F029FD41EC1B0B2868AE
:1014C00009F04EFF41EC1C0B53EC192B51EC190B9E
:1014D00009F01CFD41EC190B53EC182B51EC180BC7
:1014E00009F014FD9FED83AB53EC1A2B09F042FE7B
:1014F00053EC192B09F04AFE53EC1C2B09F006FDA6
:1015000053EC1B2B09F0D4F953EC1D2B09F0D0F947
:101510009FED7ABB53EC1B2B09F0F8FC09F096F910
:101520003060A86809F01CFF94ED029B94ED00DB8D
:1015300041EC1F0B53EC192B51EC1D0B09F0E6FC91
:1015400094ED068B94ED04CB41EC1E0B53EC182B61
:1015500051EC1C0B09F0DAFC53EC1E2B09F0A8F936
:1015600053EC1F2B09F0D2FC41EC100B8DED000B5E
:10157000686809F0F5FE41EC1E0B53EC182B51EC9A
:10158000180B09F0C3FC41EC1F0B53EC192B51EC69
:10159000190B09F0BBFC53EC1A2B09F0EBFD53ECD3
:1015A0001F2B09F0F3FD53EC1E2B09F0AFFC41ECAF
:1015B0001F0B286809F0D4FE41EC1E0B53EC182BCE
:1015C00051EC1D0B09F0A2FC41EC180B53EC1C2B49
:1015D00051EC190B09F09AFC53EC182B09F0D6FDCD
:1015E00053EC1E2B09F092FC53EC1F2B09F060F911
:1015F0009DED000B53EC102B09F05AF953EC1B2B0B
:1016000009F084FC09F022F97060A86809F0A8FECE
:1016100094ED049B41EC1C0B53EC192B51EC190B72
:1016200009F074FC94ED028B41EC1D0B53EC182B6C
:1016300051EC180B09F06AFC53EC1A2B09F09AFDD7
:1016400053EC1D2B09F0A2FD53EC1C2B09F05EFCA2
:1016500041EC1F0B686809F083FE94ED00CB41EC70
:101660001E0B53EC182B51EC1C0B09F04FFC94EDA6
:1016700006AB41EC1D0B53EC1A2B51EC190B09F086
:1016800045FC53EC1D2B09F081FD53EC1E2B09F09A
:101690003DFC41EC1E0B286809F062FE41EC1D0B7D
:1016A00053EC192B51EC1C0B09F030FC41EC190BDD
:1016B00053EC1A2B51EC180B09F028FC53EC192BA6
:1016C00009F0F6F853EC1D2B09F020FC53EC1E2B0F
:1016D00009F0EEF853EC1F2B09F0EAF853EC1B2B42
:1016E00009F014FC09F0B2F8B06002B0BDEC108B48
:1016F00070BD0000000000000000E03F000000009E
:101700000000004072B6FEE790F82020012A07D0C2
:10171000022A05D0416A41F48021416201207047CC
:10172000006842690A43426100207047F0B590F8B2
:1017300020500468A468012D05D0022D03D0416A11
:1017400041F4802153E014F0406F01D1E5004BD506
:10175000C4F30164022C03D9416A41F4000146E05C
:101760000125A5401D608D684FF4C0739DB1CE6802
:1017700035434E6845EAC605066803EB0417F55184
:101780004FF4C275076805EB04150E697E51097D9B
:10179000012905D009E00E88CD6845EA4655EBE7FA
:1017A00001684E5946F480764E511179D2F80550B1
:1017B0004FF4C67641EA0525016806EB04168D5103
:1017C0001178D2F801204FF4C47541EA0221026871
:1017D00005EB04155151006803EB0411425842F027
:1017E000010242500020F0BD416A41F40011416203
:1017F0000120F0BD10B590F82020012A07D0022A60
:1018000005D0416A41F480214162012010BD3B486E
:10181000D0F8002242F00102C0F80022D0F80022E5
:1018200022F47C52C0F80022D0F800224B6A42EA2F
:101830000322C0F800220A7D02F01F0301229A4011
:10184000D0F81C329343C0F81C32CB69B3B9D0F83E
:101850000C329343C0F80C328C894B6864F31F43FD
:101860004C6900EBC404C4F840320C890B6864F383
:101870001F434C6900EBC404C4F84432CB69012B0C
:1018800016D1D0F80C321343C0F80C320C884B68D8
:1018900064F31F434C6900EBC404C4F840320C8964
:1018A000CB6864F31F434C6900EBC404C4F84432B2
:1018B0008B69002BD0F804320ED01343C0F80432E9
:1018C0000B69002BD0F8143208D01343C0F814323F
:1018D000096A012904D008E09343EFE79343F5E751
:1018E000D0F81C121143C0F81C12D0F8001221F0DD
:1018F0000101C0F80012002010BD0000006400408B
:10190000704730B590F82040012C05D0022C03D050
:10191000416A41F480215DE00468002955D02469C2
:10192000A40754D04FF4D874056804EB01142D5962
:1019300015F00405956005682D594ED0ED085560E9
:1019400005682C5904F00204D4604FF4DA74056879
:1019500004EB01142D5905F00F05156105682D598B
:10196000C5F30725956105682C59240C54614FF483
:10197000DC72046802EB0112A4581C700468A458BD
:10198000240A5C700468A458240C9C700468A25853
:10199000120EDA704FF4DE72046802EB0112A458E2
:1019A0001C710468A458240A5C710468A458240CAF
:1019B0009C710468A258120EDA71006881B1016945
:1019C00041F020010161002030BDE468A8E7416AD0
:1019D00041F400114162012030BD6D0D1560AFE78B
:1019E000C16841F02001C160EDE72DE9F05F0546D7
:1019F000006800244669D0F804908768D0F80CB0DD
:101A0000D0F810A0D0F81880F10748D0F90714D00A
:101A100001218160B80703D5284600F01EFB0CE0C9
:101A2000780702D54FF4006407E0380702D54FF479
:101A3000805402E0284600F00FFBF80516D529680F
:101A40004FF480708860B80503D5284600F007FB86
:101A50000CE0780502D544F4005407E0380502D5BF
:101A600044F4804402E0284600F0F8FAF80316D562
:101A700029684FF480308860B80303D5284600F009
:101A8000F0FA0CE0780302D544F4004407E0380390
:101A900002D544F4803402E0284600F0E1FA300731
:101AA00007D55FEACB6004D52968102044F40074A0
:101AB000C86070074FF0080707D55FEA0B7004D5C0
:101AC0002868C760284600F0A5F9B00706D5286841
:101AD000C068800702D0284600F09EF9700607D53E
:101AE0005FEACA6004D52968102044F48064086164
:101AF000B00607D55FEA0A7004D528680761284652
:101B000000F07AFAF00606D528680069800702D04E
:101B1000284600F072FAB00308D55FEAC96005D51F
:101B2000296810204860284600F068FAF00307D5BD
:101B30005FEA097004D528684760284600F092FAE9
:101B4000300446D55FEA497040D5F00504D55FEA18
:101B5000C87001D044F00104B00504D55FEA887074
:101B600001D544F00204700504D55FEA487001D540
:101B700044F00404300529D518F0700F26D008F081
:101B80007000402815D006DC102809D020280AD083
:101B9000302816D10AE050280ED0602811D10EE06E
:101BA00044F008040DE044F010040AE044F020047E
:101BB00007E044F0400404E044F0800401E044F411
:101BC00080742868816921F070018161296804208E
:101BD0004860002C05D0686A204368622846FFF7F9
:101BE0008FFEBDE8F09F70B5040003D094F820008C
:101BF00010B104E0012070BD204600F081F820689B
:101C0000016841F00101016000F022FD0546052652
:101C100004E000F01DFD401B0A2811D82068406830
:101C2000C007F6D02068016821F00201016000F0D1
:101C30000FFD05460BE000F00BFD401B0A2806D9FE
:101C4000606A40F40030606284F82060D2E7206867
:101C500040688007EFD4207E0128206801683DD0CD
:101C600021F080010160607E01282068016838D081
:101C700021F040010160A07E01282068016833D076
:101C800021F020010160E07E0128206801682ED04B
:101C900041F010010160207F01282068016829D0EF
:101CA00021F008010160607F01282068016824D0CC
:101CB00021F004010160D4E902010843D4E90412CF
:101CC000114308436168491E08432168C861002028
:101CD0006062012084F82000002070BD41F0800186
:101CE000C0E741F04001C5E741F02001CAE721F01B
:101CF0001001CFE741F00801D4E741F00401D9E732
:101D00002DE9F04387B0044614216846FEF757FCDE
:101D10003C4B3D48DFF8E8801968D4F800C03A4AE7
:101D2000022503260927DFF8E49010300024491C1F
:101D3000C44524D11960012907D1016841F000711F
:101D40000160006800F000700590106840F002002B
:101D50001060106802AB00F0020005904FF4407074
:101D6000CDE9000583E8D0006946484600F074FBE1
:101D700000220521142000F0DDFC14203BE0DFF8F8
:101D80009080C44539D1D0F800C04CF0806CC0F8C8
:101D900000C0D0F800C001290CF0806CCDF814C050
:101DA000196007D1016841F000710160006800F01E
:101DB00000700590106840F002001060106802ABDF
:101DC00000F0020005904FF44050CDE9000583E893
:101DD000D0006946484600F03FFB00220521402024
:101DE00000F0A8FC402000F097FC002205214120D3
:101DF00000F0A0FC412000F08FFC07B0BDE8F083AC
:101E0000006400400000002030380240000402401E
:101E1000006800407047000030B505462DED028B8C
:101E20008BB000686C4988427ED109AB02AA0021C0
:101E30002846FFF766FD0298684CA0F201200328AF
:101E400019D8BDF8241010F0FF004ABA644900EB1D
:101E5000400301EB83018A80BDF8262052BACA8074
:101E6000BDF8282052BA0A819DF82A208A7202D130
:101E70006088401C60800298A0F5007111392AD159
:101E8000BDF8240000EE100AF8EE400A9FED550A56
:101E9000554880EE801A80ED001ABDF8261000EE3D
:101EA000901AF8EE600A80EE801A80ED011ABDF8F3
:101EB000281000EE901AF8EE600A80EE801A80ED8D
:101EC000021ABDF82A1000EE901AF8EE600A80EEB1
:101ED000801A80ED031A4549286888424ED16B4626
:101EE00002AA00212846FFF70CFD3F48029920383E
:101EF0009FED3F8A3F4D552904D0362939D03729E7
:101F000040D05EE0BDF800100182BDF8020040BA8A
:101F100000B200EE100AB8EEC00AC0EE080ABDEE2C
:101F2000E00A10EE100A00E028E001B2E180BDF8FE
:101F3000040040BA00B200EE100AB8EEC00AC0EECB
:101F4000080ABDEEE00A10EE100A00EE101A00B208
:101F5000B8EEC00AA08084ED020A00EE100AB8EEC6
:101F6000C00A84ED030A9DF8060028709DF807005A
:101F70002FE0009940F8121F019941600BB0BDECB1
:101F8000028B30BD0099C0F81A1017480E3804F0C3
:101F900001FBBDF8040040BA00B200EE100AB8EE32
:101FA000C00AC0EE080AC4ED030ABDF8060040BA34
:101FB00000B200EE100AB8EEC00AC0EE080AC4ED86
:101FC000020A02983828D9D19DF8000028709DF89F
:101FD00001002070D2E7000000680040D40000201B
:101FE000A05000200000C8420C4D002000640040BA
:101FF00000004842B0020020704770477047000060
:1020000070B5044690F82000012804D0606A40F4BE
:102010000020606218E0022084F820002068016837
:1020200021F00101016000F013FB05460EE000BF46
:1020300000F00EFB401B0A2808D9606A40F400300B
:102040006062052084F82000012070BD206840688F
:10205000C007EDD1606270BD704770477047704730
:102060007047704770472DE9F0410446876D00F0D6
:10207000EFFA064694F835000025022806D08020A5
:10208000606584F834500120BDE8F0812068016863
:1020900021F0160101602068416921F08001416151
:1020A000206C08B9A06C20B12068016821F00801FB
:1020B00001602068016821F0010101600CE000F07E
:1020C000C7FA801B052807D920206065032084F803
:1020D000350084F83450D7E720680068C007EED197
:1020E00094F85C103F208840B860012084F83500E7
:1020F00084F834500020C7E790F83510022903D047
:102100008021416501207047052180F83510006865
:10211000016821F001010160002070472DE9F843BA
:1021200004464FF00009CDF8009063484FF4165173
:10213000A56D0068B0FBF1F72E6894F85C100820DC
:1021400000FA01F131420FD021680A6852070BD51D
:102150000A6822F004020A6094F85C108840A860C3
:10216000606D40F00100606594F85C104FF001086C
:1021700008FA01F0304208D021684969090604D5FF
:10218000A860606D40F00200606594F85C10042067
:102190008840304208D021680968890704D5A860C2
:1021A000606D40F00400606594F85C101020884079
:1021B000304218D021680968090714D5A860206842
:1021C0000168490304D50068000308D5A16C07E045
:1021D0000168C90503D4016821F008010160216C80
:1021E00009B12046884794F85C102020884030428E
:1021F00031D021680968C9062DD5A86094F835004A
:1022000005282068016806D0490347D50068000307
:102210001DD4616C1CE021F0160101602068416949
:1022200021F080014161206C08B9A06C20B12068C8
:10223000016821F00801016094F85C103F2088409B
:10224000A86084F8358084F83490216D1FE0E16B3C
:1022500009B120468847606D00282BD0606DC0070B
:1022600014D0052084F835002068016821F00101B0
:1022700001600098401C0090B84203D820680068B4
:10228000C007F6D184F8358084F83490E16C0029D9
:1022900010D001B02046BDE8F04308470168C905E9
:1022A000D5D4016821F01001016084F8358084F8EC
:1022B0003490CCE7BDE8F883140000202DE9F0410C
:1022C000044600F0C5F906465CB1022084F83500EA
:1022D000002584F834502068016821F00101016074
:1022E0000DE00120BDE8F08100F0B2F9801B052867
:1022F00005D920206065032084F83500F2E72068C6
:102300000068C007F0D12268116820480140D4E974
:1023100001031843D4E90336334318436369184370
:10232000A3691843E3691843236A18430843616AA1
:10233000042903D1D4E90B13194308431060206822
:102340004069666A20F0070130460E4301270428E1
:102350000CD1A06A0643E06A40B12046FEF7B2FF06
:1023600020B14020606584F83570BAE72068466186
:102370002046FEF793FF94F85C203F219140816056
:10238000656584F835700020ACE700003F8010F0F0
:102390002DE9F0410446866D90F8340000250128AF
:1023A0000DD0012084F8340094F835700020012FFE
:1023B00007D084F8340002252846BDE8F0810220C9
:1023C000FBE7022784F8357060652046FEF7A4FF1E
:1023D00094F85C103F208840B0602068016841F0AC
:1023E00016010160206C20B12068016841F00801ED
:1023F00001602068016841F001010160DCE7000034
:1024000010B5042817D10C4C2078002813D008F000
:10241000EFF801280FD004F10C01206907F0F8FE55
:10242000E068002807D005494FF080500860BFF3EE
:102430004F8FBFF36F8F10BD1801002004ED00E037
:10244000044910B50A68024202D00860FFF7D8FFBD
:1024500010BD0000143C01402DE9F84FDFF8ACA19D
:102460000022012403254FF00F090AF1040BAAF101
:10247000040E00BF0B6804FA02F63340B3426ED17B
:102480000F7907F00307012F01D0022F16D18768BB
:102490004FEA420805FA08FC27EA0C07D1F80CC0FD
:1024A0000CFA08FC4CEA070CC0F808C04768B743B0
:1024B0000E79C6F3001696403E4346600E79F64309
:1024C000B6070AD0C6684FEA420C05FA0CF7BE43BD
:1024D0008F6807FA0CF73743C7600E7906F00306DA
:1024E000022E10D1D60800EB8608D8F820605707D6
:1024F0004FEAD76C09FA0CF7BE430F6907FA0CF7DD
:102500003743C8F8207006684FEA420C05FA0CF70A
:10251000BE430F7907F0030707FA0CF7374307604C
:102520004E6816F4403F6BD0394E376847F4804709
:102530003760366822F0030706F480460096354E71
:1025400007EB060CDCF8086897074FEA177809FADA
:1025500008F7BE43304FB84202D100271FE04FE0DA
:102560002E4FB84201D1012719E02D4FB84201D1B9
:10257000022714E02B4FB84201D103270FE02A4F66
:10258000B84201D104270AE0284FB84201D10527FB
:1025900005E0274FB84201D1062700E0072707FAD8
:1025A00008F73743CCF80878DAF800605746D1F8D6
:1025B00004C09E435FEACC2C00D51E433E60DBF88E
:1025C00000605F46D1F804C09E435FEA8C2C00D5C2
:1025D0001E433E60DEF800607746D1F804C09E439B
:1025E0005FEA8C3C00D51E433E60084F083F3E68C2
:1025F000D1F804C09E435FEACC3C00D51E433E6048
:10260000521C102AFFF436AFBDE8F88F083C014099
:102610004438024000300140000002400004024003
:1026200000080240000C024000100240001402406A
:1026300000180240426921EA02030A4043EA0241CB
:10264000816170470AB1816170470904FBE70000AE
:102650000148806870470000180000200248816827
:102660000278114481607047180000200B4810B5B3
:10267000016841F400710160016841F4806101600A
:10268000016841F480710160032000F073F80F20AD
:1026900000F006F800F024F8002010BD003C0240D5
:1026A00070B50D4D04464FF47A712878B1FBF0F007
:1026B0000A490968B1FBF0F001F05BF948B9102C48
:1026C00007D200222146501E00F034F800206C6032
:1026D00070BD012070BD0000180000201400002013
:1026E0000C4882B0016841F480410160006800F448
:1026F000804000900748001F016841F08051016050
:102700000068002200F0805000900F21901E02B05F
:1027100000F010B844380240002809DB00F01F0226
:10272000012191404009800000F1E020C0F8001133
:1027300070470000F0B40E4B1B680C46C3F3022335
:10274000C3F10705042D00D90425191D072901D25D
:10275000002300E0DB1E012606FA05F1491E214098
:1027600099409E40761E16403143F0BC03F04BBFAB
:102770000CED00E0064900F0070208684FF6FF0381
:10278000184040EA0220034A1043086070470000E6
:102790000CED00E00000FA0570B5164D0446A1B13D
:1027A000012911D12068D0F8001E41F00101C0F8C4
:1027B000001ED4F8080503F050F8206A002803D062
:1027C000286840F00600286070BD206A28B102F039
:1027D0001FF9286820F0060028602068D0F8001E45
:1027E00021F00101C0F8001ED4F80805BDE87040D2
:1027F00002F0D5BF10ED00E0D0F8080502F03EBFB2
:1028000001EBC10200EB8202D0F80805D26C02F0A5
:102810005FBE01EBC10200EB8202D0F80805D2F8DE
:102820008C2202F0C3BED0F8080502F029BF0A06C8
:1028300001F00F0101EBC10100EB810101D53C3139
:1028400001E001F51F71006803F0D6BC70B50446C5
:1028500001F00F006268904201D9012070BD0B06A3
:1028600001F00F0101EBC10104EB81014FF0010206
:102870004FF0000503D581F83D203C3103E081F89D
:102880007D5201F51F718D70087094F8BC04012809
:1028900008D084F8BC24206803F064FB84F8BC549E
:1028A000002070BD022070BD2DE9F04104460F06E6
:1028B00001F00F0000EBC00104EB81014FF00106B5
:1028C0004FF0000503D581F83D603C3103E081F80D
:1028D0007D5201F51F710870CA600B714A7802B110
:1028E0000881022B00D14D7194F8BC04012809D055
:1028F00084F8BC64206803F02DFA284684F8BC54A0
:10290000BDE8F0810220FBE770B50C4601F00F0531
:1029100005EBC50100EB8101C1F89432C1F88C22AE
:102920000023C1F89C3281F87D3281F87C52036922
:1029300001F51F71012B00D14A612207027C00685A
:1029400003D003F067FB002070BD03F051FAFAE7F3
:1029500070B504460D4601F00F006168884201D948
:10296000012070BD29064FF000064FF0010207D587
:1029700000EBC00104EB810181F83D203C3107E010
:1029800005EBC50104EB810181F87D6201F51F7142
:102990008A70087094F8BC04012807D084F8BC241D
:1029A000206803F00BFB280702D007E0022070BD6F
:1029B000217C04F2C442206803F0A8FA84F8BC64C5
:1029C000002070BD70B50C4601F00F0505EBC50188
:1029D00000EB81014B65CA640023CB65012381F8BC
:1029E0003D3001F83C5F0369012B00D14A612207A9
:1029F000027C006803D003F00DFB002070BD03F0E3
:102A0000F7F9FAE72DE9FC5F05680446284603F06C
:102A100070FC00287DD1206803F097FC002878D056
:102A2000D5F80808C0F30D20C4F8FC04206803F0B2
:102A30008CFC800704D52168486900F002004861D9
:102A4000206803F082FCC10604F2C440009034D533
:102A50002068816921F0100181612F6A07F00F0061
:102A600000EBC00004EB8006C7F3434006F51F7679
:102A7000022802D0062811D01AE047F6F07007426B
:102A800016D0C7F30A1217462846316903F061FCD5
:102A9000306938443061306A384408E008222846FA
:102AA000009903F056FC316AC7F30A1008443062FB
:102AB0002068816941F010018161206803F045FCC4
:102AC00000034FF0080B4FF0000A4FF001097CD5CE
:102AD0000026206803F018FC074674E0F80770D061
:102AE000F1B2206803F029FC8046C00707D005EB4F
:102AF0004611C1F8089B3146204601F077FD5FEA98
:102B0000087024D505EB4611C1F808BB2068016C9C
:102B100000E043E200EB46100191D0F8082BF84B9F
:102B2000994205D9110403D54FF40041C0F8081BA0
:102B3000204600F06FFAF2490198884207D92069CF
:102B4000012804D120680121009A03F0DFF95FEA2F
:102B5000C86004D505EB46111020C1F8080B5FEAE8
:102B600088701DD56869000605D5D5F8040840F4BD
:102B70008061C5F8041806EBC60004EB800090F8ED
:102B80007F1200F51F70012905D180F803A0F1B272
:102B9000204600F009FA05EB46110220C1F8080BA7
:102BA0005FEA886004D505EB46102021C0F8081BB9
:102BB0005FEA884005D505EB46104FF40051C0F898
:102BC000081B7F08761C002F88D1206803F0BDFB0E
:102BD00040036FD5206803F090FB0746002667E0AE
:102BE000F80763D0F1B2206803F095FB8046C00778
:102BF00023D006F00F0209FA02F0D5F834288243F8
:102C0000C5F8342805EB4610C0F80899206901285A
:102C10000FD106EBC60004EB8000D0E9122111446D
:102C2000C16436B9606D20B920680121009A03F0B3
:102C30006DF9F1B22046FFF7E3FD5FEA087003D5B6
:102C400005EB4610C0F808B95FEAC86004D505EB8B
:102C500046101021C0F808195FEA486004D505EB5A
:102C600046104021C0F808195FEA887017D5314630
:102C7000284603F011FB06EBC60004EB800090F839
:102C80003F103C30012905D180F803A0F1B2204665
:102C900000F086F905EB46100221C0F808195FEA3A
:102CA000086003D53146204601F006FD7F08761CFA
:102CB000002F95D1206803F048FB002811DAD5F8E1
:102CC000040820F00101C5F8041894F8F404012860
:102CD0003BD0204600F082F92068416901F00041B4
:102CE0004161206803F031FB00050BD5D5F80808D9
:102CF000C00702D0204600F095F92068416901F430
:102D000000614161206803F020FB00010AD52068C2
:102D1000416901F00061416194F8F404E0B120469A
:102D200000F080F9206803F010FBC00474D5D5F8DA
:102D3000040820F00101C5F804181021206803F0F0
:102D4000ABFA00214FF67F322DE084F8F4A4002185
:102D50002046FFF721FDBFE784F8F4942068406D1A
:102D60000121C0F38300C4F8F8042046FFF714FDE6
:102D7000D8E700BF05EB4110C0F80829D0F80039AA
:102D800023F40013C0F80039C0F8082BD0F8003B3A
:102D900023F40013C0F8003BD0F8003B43F000637D
:102DA000C0F8003B491C60688842E3D8D5F81C088D
:102DB00040F00111C5F81C18206B002828460DD0E2
:102DC000D0F8840840F00B01C5F88418D5F8440801
:102DD00040F00B012846C5F844180DE0D0F814085F
:102DE00042F22B010843C5F81408D5F8100840F04A
:102DF0000B012846C5F81018D0F8000820F4FE6131
:102E0000C5F80018217C2068009A03F07FF820683C
:102E1000416901F480514161206803F096FA800411
:102E200015D5206802F0D6FF206803F055FAE0605F
:102E300000F0AAF90146227B206803F0BBFA204685
:102E400000F0B6F82068416901F400514161206842
:102E500003F07BFA000707D5204600F0C3F820688E
:102E6000416901F008014161206803F06EFA000633
:102E700016D5A86920F08001A96101260DE000BFE8
:102E800006EBC60004EB800090F87F02012803D116
:102E9000F1B22046FFF7CBFC761C6068B042EFD859
:102EA000206803F052FAC00221D501264F4616E0F1
:102EB00005EB4610D0F8000906EBC60104EB8101D2
:102EC00091F84020012A09D1002807DA81F83F70E3
:102ED000F0B240F080012046FFF7A9FC761C606844
:102EE000B042E5D82068416901F480114161206851
:102EF00003F02BFA800234D501204A4629E0000075
:102F00000A30544F05EB4011D1F8001B00EBC00311
:102F100004EB830393F88062012E19D1002917DA9C
:102F200094F8FC6401F4803106F00106B1420FD13F
:102F300083F87F22A96941F08003AB6169690906C2
:102F400006D4D5F8040840F40070C5F8040803E07E
:102F5000401C61688142D5D82068416901F40011A4
:102F60004161206803F0F1F9400007D52046FFF7E2
:102F700043FC2068416901F080414161206803F011
:102F8000E4F940070AD520684568680702D520465D
:102F9000FFF749FC2068416829434160BDE8FC9F78
:102FA000D0F8080502F08CBBD0F8080502F09DBBF4
:102FB00070B50446C068012570B1022801D0FEF743
:102FC000A1FB2946D4F8080502F000FCD4F8080556
:102FD000BDE8704002F0B3BB0025F2E7D0F8080569
:102FE00002F0DDBBD0F8080502F0E3BB10B50446E3
:102FF00090F8BC0401280BD0012084F8BC0484F8AC
:103000003810206803F0C4F9002084F8BC0410BD17
:10301000022010BDD0F8082500F2C441104602F08D
:10302000E1BB000010B50446D0F8080502F015FC1D
:103030002068D0F8001E41F00101C0F8001E206A8F
:10304000002804D00248016841F00601016010BD6B
:1030500010ED00E02DE9F0470E46050065D0DFF8E1
:103060001481D8F80000F7B200F00F00B04207D288
:1030700088F80070D8F8000000F00F00B04254D17A
:1030800028683D4C810712D5400703D5206840F4DD
:10309000E05020602878000703D5206840F46040A5
:1030A00020602068A96820F0F0000843206028789C
:1030B000C0072DD0304968680839012812D002288D
:1030C00013D0032811D00968890700292DDA216857
:1030D00021F0030101432160FFF7BAFA814641F272
:1030E000883A0EE009688903EFE709688901ECE78F
:1030F000FFF7AEFAA0EB0901514502D90320BDE864
:10310000F0872068696800F00C00B0EB810FEFD108
:10311000D8F80010404601F00F01B14207D90770FE
:10312000006800F00F00B04201D00120E7E72878E6
:10313000400705D52068E96820F4E0500843206086
:103140002878000706D52068296920F4604040EA05
:10315000C100206000F03EF82168084AC1F3031165
:10316000515CC8400649086006480068FFF798FAB5
:103170000020C4E7003C024008380240C8B4000800
:10318000140000201C000020014800687047000067
:10319000140000200448054900680968044AC1F386
:1031A0008221515CC840704714000020083802405A
:1031B000D8B400080448054900680968044AC1F306
:1031C0004231515CC840704714000020083802406A
:1031D000D8B40008224810B5006810F00C0221484D
:1031E00015D02149042A11D01D4C241F082A0FD0C4
:1031F0000C2A0CD12268236802F03F025B0221D521
:103200002068C0F38810A0FB010120E0084610BD33
:103210002268236802F03F025B0205D52068C0F3F4
:103220008810A0FB010104E02168C1F38811A1FB13
:1032300000010023FDF7B6F82168C1F30141491CE4
:1032400049000AE02168C1F38811A1FB00010023B5
:10325000FDF7A8F82168C1F30271B0FBF1F010BDD1
:10326000083802400024F400001BB7002DE9F84F95
:1032700004007DD0DFF878B32078ABF10407C007F5
:10328000A7F1040550D0DBF800105846C1F38101C6
:1032900001290FD00168C1F38101022902D13968E7
:1032A000490207D40068C0F38100032809D13868B7
:1032B000400206D52868800336D560680028D8D03B
:1032C00032E06068B0F5803F10D0B0F5A02F2868DC
:1032D00010D020F480302860286820F480202860F6
:1032E0006068A0B1FFF7B4F906460CE0286840F426
:1032F0008030F4E740F480202860F7E7FFF7A8F972
:10330000801B642876D828688003F7D50CE0FFF787
:103310009FF9064605E000BFFFF79AF9801B642875
:10332000F0D828688003F7D42078DFF8C8928007A7
:103330004FF0000A44D5DBF80010584611F00C0F8E
:103340000FD00168C1F38101022902D13968490215
:1033500007D50068C0F3810003280AD1386840020D
:1033600007D42868800715D5E068012800D111E04E
:103370003AE1E068B0B10120C9F80000FFF768F950
:10338000064604E0FFF764F9801B0228BAD82868D3
:103390008007F7D52868216920F0F80040EAC100CD
:1033A00028600DE0C9F800A0FFF752F9064604E0D6
:1033B000FFF74EF9801B02281CD828688007F7D435
:1033C0002078000727D5DFF828828B48616908F14B
:1033D0006C0881B101210160FFF73AF9064604E06B
:1033E000FFF736F9801B022804D8D8F800008007C0
:1033F000F6D510E089E0C0F800A0FFF729F90646ED
:1034000005E000BFFFF724F9801B02287DD8D8F81B
:1034100000008007F6D42078400769D574484FF043
:10342000000838300068C0000BD47148383001689B
:1034300041F08051016000684FF0010800F08050B9
:1034400000906E4E3068C00511D4306840F4807032
:103450003060FFF7FDF8009006E000BFFFF7F8F8D6
:103460000099401A022850D83068C005F6D5604E41
:10347000A068683601280FD00528306810D020F0E9
:1034800001003060306820F004003060A068B8B1FE
:10349000FFF7DEF800900FE0306840F00100F4E73D
:1034A00040F004003060F7E7FFF7D2F80099411AC6
:1034B00041F28830814264D830688007F4D50EE04C
:1034C000FFF7C6F8009007E0FFF7C2F80099411A2D
:1034D00041F28830814254D830688007F4D4B8F182
:1034E000000F05D042483830016821F0805101605A
:1034F000A069A8B3DBF80010C1F38101022947D00D
:103500000228C9F860A005D000E03AE0FFF7A0F873
:10351000044639E0FFF79CF8064604E0FFF798F808
:10352000801B02282DD828688001F7D4F4E9070110
:103530000843E168324A490802EB0141A26841EAC6
:1035400082110843217C40EA0160217D40EA01703C
:1035500038600120C9F86000FFF77AF8044606E0F9
:1035600044E000BFFFF774F8001B022809D8286860
:103570008001F7D53AE000BFFFF76AF8001B022888
:1035800002D90320BDE8F88F28688001F4D42DE02B
:103590000128F7D03868E26900F48001914223D114
:1035A000226A00F03F0191421ED147F6C071626A63
:1035B0000140B1EB821F17D1A26A4FF0FF3300F434
:1035C000403103EB5202B1EB024F0DD194F82C20A5
:1035D00000F07061B1EB026F06D194F8301000F08A
:1035E000E040B0EB017F01D00120CBE70020C9E72C
:1035F0000838024000004742800E474200700040F9
:103600000000FFFF70B5040009D0606A002540B1DA
:1036100025616561A56294F8510040B10CE001207C
:1036200070BD6068B0F5827FF4D0E561F2E784F8A0
:103630005050204600F044F8022084F851002068E1
:10364000016821F040010160A088218900F48270A6
:1036500001F404410843A18901F400610843217C7D
:1036600001F002010843217D01F001010843218B93
:1036700001F400710843217F01F03801084394F8F8
:10368000201001F080010843218D01F4005108430E
:1036900021680860A069042101EA104094F8241010
:1036A00001F010010843216848602068C16921F4D5
:1036B0000061C1616565012084F85100002070BD82
:1036C000F0B587B0064614216846FCF778FF2B4911
:1036D0003068884250D12A480024016841F4804172
:1036E0000160006800F480400590254810380168AA
:1036F00041F0020101600068694600F00200059097
:103700004FF4444000900220CDE9010403200390CF
:10371000052004901B48FEF79FFE1C4D1A48C5E982
:1037200000040715AC60C5E903476C614FF44030F5
:10373000AC61C5E9074028466C62FEF7BFFD08B1E1
:10374000FDF7E0FFF564AE63104D0F4860351830AB
:10375000E5E80204402091C5C00245F81449AC6177
:10376000C5E9074009486C626030FEF7A7FD08B163
:10377000FDF7C8FFB564AE6307B0F0BD0038004088
:103780004038024000040240586002401406002005
:103790002DE9F84F044690F8500000270A9E1D4678
:1037A00092468B464FF0010901280ED0012084F883
:1037B0005000FEF74DFF804694F8510061680128E3
:1037C0000CD0B1F5827F07D102E00220BDE8F88F6E
:1037D000A16809B9042801D00227C2E0BBF1000F9B
:1037E00027D0BAF1000F24D01DB394F8510004285B
:1037F00002D0052084F8510000206065C4F838A08C
:10380000E587A587C4F830B0E586A58620646064A6
:1038100020680168490603D4016841F04001016055
:10382000E068B0F5006F606805D0E8B3012D46D0C0
:103830007FE0012795E008B1012D39D1206B216887
:103840000088C860206B801C2063E08E401EE086EC
:103850002EE02068816889070FD5E18E69B1B9F142
:10386000010F0AD1216B0988C160206B801C206385
:10387000E08E401EE0864FF0000920688168C9078D
:103880000CD0E18F51B1C068A16B0880A06B801C87
:10389000A063E08F401EE0874FF00109FEF7D8FEDD
:1038A000A0EB0800B04200E009E001D3701C50D149
:1038B000E08E0028CDD1E08F0028CAD13FE0206BF8
:1038C000216800780873206B401C2063E08E401E46
:1038D000E0862EE02068816889070FD5E18E69B106
:1038E000B9F1010F0AD1216B09780173206B401CDB
:1038F0002063E08E401EE0864FF00009206881685A
:10390000C9070CD0E18F51B1C068A16B0870A06BE2
:10391000401CA063E08F401EE0874FF00109FEF7D6
:1039200097FEA0EB0800B04202D3701C01D010E05B
:103930007EB1E08E0028CDD1E08F0028CAD142466A
:103940003146204600F0CCFF28B1012720206065D9
:1039500007E0032705E0A06818B92068C1688068FF
:103960000090012084F85100002084F8500038466F
:103970002CE710B5401EB0F1807F01D3012010BDAF
:103980004FF0E02460610F21601702F03CFE002040
:10399000A06107202061002010BD000070B590F8E4
:1039A0003C20012A32D0012480F83C40022280F8D9
:1039B0003D2003685A689D6822F070060A68324309
:1039C0005A60134B02689A4214D0B2F1804F11D062
:1039D000104B9A420ED0104B9A420BD00F4B9A428A
:1039E00008D00F4B9A4205D00E4B9A4202D00E4B94
:1039F0009A4204D1496825F080031943916080F808
:103A00003D40002180F83C10084670BD022070BD8A
:103A1000000001400004004000080040000C00408D
:103A200000040140004001400018004010B586B07D
:103A3000044614216846FCF7C2FD0D4920688842FF
:103A400014D10C480021026842F0020202600068B2
:103A500000F002000590202000900220CDE9010135
:103A6000CDE9031069460448FEF7F6FC06B010BD28
:103A700000040040303802400004024070B50446A3
:103A800090F83C0000260D4601280FD0012084F854
:103A90003C006AB1042A1DD0082A2FD00C2A3FD03E
:103AA0000126002084F83C00304670BD022070BD25
:103AB000206801F079F82068816941F0080181618E
:103AC0002068816921F004018161206881692A6987
:103AD000114311E0206801F097F82068816941F4F2
:103AE000006181612068816921F4806181612068C1
:103AF00081692A6941EA02218161D2E7206801F0E7
:103B0000B9F82068C16941F00801C1612068C16944
:103B100021F00401C1612068C1692A69114311E0E3
:103B2000206801F0DBF82068C16941F40061C161DF
:103B30002068C16921F48061C1612068C1692A6976
:103B400041EA0221C161ACE710B5040003D094F84A
:103B50003D0010B107E0012010BD002084F83C00BA
:103B6000204600F01FF8022084F83D00211D206847
:103B700000F0A8FF012084F8460084F83E0084F895
:103B80003F0084F8400084F8410084F8420084F843
:103B9000430084F8440084F8450084F83D00002088
:103BA00010BD000008B500680649884208D10648E3
:103BB000016841F002010160006800F0020000901D
:103BC00008BD0000000400404038024010B5044623
:103BD000022249B104290ED0082913D094F84100DB
:103BE000012816D0012010BD94F83E000128F9D11B
:103BF00084F83E200FE094F83F000128F2D184F8C9
:103C00003F2008E094F840000128EBD184F84020E0
:103C100001E084F841200122206800F0B7FF164936
:103C20002068164A884201D0904203D1436C43F485
:103C3000004343642068884213D0B0F1804F10D015
:103C40000F4988420DD00F4988420AD00E49884258
:103C500007D0904205D00D49884202D00C498842D5
:103C600004D1816801F00701062903D0016841F001
:103C700001010160002010BD00000140000401406E
:103C80000004004000080040000C004000400140DB
:103C90000018004038B5044690F83E00202822D194
:103CA00081B17AB194F83C0001281CD0012084F83D
:103CB0003C002063204601F0F9F9002803D1216B74
:103CC000012901D0012038BD21680A6849680091A6
:103CD00021680C3151E8002F42F0100241E8002326
:103CE000002BF5D138BD022038BD000070B50E465E
:103CF00018490024164D097826E000BF55F8242005
:103D0000D2F8002182421DD155F82400D0F80401D8
:103D100028B1804755F824003146FCF750FC55F88F
:103D2000241091F8FF20D1F80001FFF7B3FF55F8F8
:103D30002400D0F80001806B0068016821F00801C0
:103D4000016070BD641CE4B28C42D7D370BD00002A
:103D5000E04C0020D000002070B512490024104D26
:103D600009781AE055F82420D2F80021824212D1B5
:103D700055F8241091F8FF20D1F80001FFF78AFFD1
:103D800055F82400D0F80001806B0068016821F02C
:103D90000801016070BD641CE4B28C42E2D370BDC6
:103DA000E04C0020D0000020F8B501680446086807
:103DB000CA684B6910F00F0F4FF0000559D003F09F
:103DC000010602F49077374365D0C10705D0D105CD
:103DD00003D5216C41F001012164410705D5D907C4
:103DE00003D0216C41F002012164810705D5D90778
:103DF00003D0216C41F004012164010707D502F0D2
:103E00002001314303D0216C41F008012164216C71
:103E100000293AD0800604D5900602D5204601F04C
:103E20005FF820684069216CC0F38010090700D456
:103E300060B3204601F01FF820684069400621D594
:103E40002068143050E8001F21F0400140E80012C3
:103E5000002AF5D1A06BA8B16C490165A06BFEF7F3
:103E60004BF9002811D0A06B016D01B0BDE8F04006
:103E7000084783060FD593060DD52046BDE8F840C8
:103E800001F02EB82046FFF767FFF8BD2046FFF788
:103E900063FF2564F8BD266B2023012E79D1C60669
:103EA00077D5D60675D508684868009048694006F9
:103EB00040D5A16B086840680004000CEAD0A28DD0
:103EC0008242E7D9E085C869B0F5807F2DD02068AF
:103ED0000C3050E8001F21F4807140E80012002AE5
:103EE000F5D12068143050E8001F21F0010140E8AE
:103EF0000012002AF5D12068143050E8001F21F08C
:103F0000400140E80012002AF5D184F83E302563D4
:103F100020680C3050E8001F21F0100140E800122A
:103F2000002AF5D1A06BFEF79EF8A08DE18D401A16
:103F300081B229E0A08DE18D401A81B2E08D002888
:103F4000A8D00029A6D020680C3050E8002F22F419
:103F5000907240E80026002EF5D12068143050E819
:103F6000002F22F0010240E80026002EF5D184F84F
:103F70003E30256320680C3050E8002F22F01002FC
:103F800040E80023002BF5D12046FFF7AFFEF8BD37
:103F9000FFE705062BD5150629D594F83D00212805
:103FA000F5D1A068B0F5805F01D12069B0B1206A79
:103FB000411C2162216800784860E08C401E0004AA
:103FC000000CE084E3D12068C16821F08001C16069
:103FD0002068C16841F04001C160D8E7206A0088CC
:103FE000C0F308004860206A801C2062E5E74006B4
:103FF000CDD55006CBD5CA68204622F04002CA6013
:1040000084F83D3000F0F6F8C1E70000814D00086B
:1040100070B5040004D094F83D00002510B106E00E
:10402000012070BD84F83C50204600F023F8242085
:1040300084F83D002068C16821F40051C160204629
:1040400000F0AEFF2068016921F490410161206811
:10405000416921F02A0141612068C16841F40051A1
:10406000C1602564202084F83D0084F83E000020D3
:1040700070BD00002DE9F04F87B005461421684659
:10408000FCF79DFA5448DFF84CC12B6852491038B0
:1040900002260327514A00244FF4403B4FF00069A9
:1040A0004FF4806A63455BD10B6843F480130B6067
:1040B000096801F480110591016841F00401016073
:1040C000016801F004010591016841F008010160F7
:1040D000006802AB00F0080005909014CDE90006DE
:1040E0004FF0080883E8900169461046FEF7B4F9DE
:1040F0000420CDE9000602AB694683E89001384808
:10410000FEF7AAF9384E3748C8463060C6E9019430
:10411000C6E9034A7461B461C6E9074B57463046A5
:104120007462FEF7CBF808B1FDF7ECFAAE63B56345
:104130002D4E2C486036A830E6E80208402091C693
:10414000C00246F81449B461C6E9074026487462C3
:104150006030FEF7B3F808B1FDF7D4FA6E6334E0CF
:10416000DFF888C0634531D10B6843F480230B60CE
:10417000096801F480210591016841F004010160A2
:104180000068029400F0040005904FF48460CDE9CB
:1041900000060720CDE9037069461046FEF75CF97A
:1041A000114E1048C03618303060C6E90194C6E997
:1041B000034A7461B461C6E9074B30467462FEF786
:1041C0007DF808B1FDF79EFAAE63B56307B0BDE8B0
:1041D000F08F0000005000404038024000080240CC
:1041E000000C024010600240A4070020004800407C
:1041F000704770477047FEE70F4810B50D490160E2
:104200000221416000214FF460228160C0E9031265
:104210004FF480024261017641768176C176017762
:104220004177FDF7E0FC002803D0BDE81040FDF722
:1042300069BA10BD00640040180300200F4810B593
:104240000D4901600221416000214FF4602281602C
:10425000C0E903124FF48002426101764176817613
:10426000C17601774177FDF7BEFC002803D0BDE899
:104270001040FDF747BA10BD006800404003002021
:10428000114808B5016841F400110160006800227E
:1042900000F40010009005210C20FEF74BFA0C20D2
:1042A000FEF73AFA002205210E20FEF743FA0E200F
:1042B000FEF732FA002205210F20FEF73BFABDE897
:1042C00008400F20FEF728BA3038024010B59CB0E5
:1042D0001C2216496846FCF740F90021684605F0A3
:1042E00039FA134C11491C22A0601C3107A8FCF7B5
:1042F00034F9002107A805F02DFA0C4920601C2292
:1043000038310EA8FCF729F900210EA805F022FA91
:104310000649E0601C22543115A8FCF71EF9002163
:1043200015A805F017FA60601CB010BD58B400085D
:10433000040000202DE9F04186B014216846FCF706
:104340003EF938480024016841F004010160016829
:1043500001F004010591016841F0800101600168EC
:1043600001F080010591016841F0020101600168DE
:1043700001F002010591016841F00101016001684D
:1043800001F001010591016841F008010160006838
:10439000254F00F0080042F2110505900122294640
:1043A0003846FEF74FF9DFF88480002203214046AB
:1043B000FEF748F900950125CDE9015469463846D4
:1043C0000394FEF749F804204FF48816CDE900065F
:1043D000694602943846FEF73FF80820CDE900060A
:1043E000694602953846FEF737F803200090CDE97C
:1043F0000154694640460394FEF72EF80022052139
:104400000820FEF797F90820FEF786F9002205211B
:104410000920FEF78FF90920FEF77EF906B0BDE806
:10442000F0810000303802400008024000040240E1
:10443000104810B50E4901604FF4827141600021AF
:1044400002228160C0E903120122426152028261AC
:104450003022C0E90721416281620A21C162FFF76F
:10446000D1F8002803D0BDE81040FDF74BB910BDCE
:1044700000380040BC05002010B58AB00024079425
:104480001C2168460894FCF79AF816481449C0E9BC
:10449000001441F28731C0E9024104618461FFF7F1
:1044A00053FB08B1FDF72EF9079407A90D480894AE
:1044B000FFF774FA08B1FDF725F96020CDE9000493
:1044C00002940422694607480494FFF7D7FA08B11A
:1044D000FDF718F90348FFF7A9FA0AB010BD00006C
:1044E00000040040D40600200C4810B50A490160C1
:1044F0004FF4E1314160002181600C22C160C0E9CC
:1045000004128161C161FFF783FD002803D0BDE87B
:104510001040FDF7F7B810BD005000401C07002008
:104520000C4810B50A4901600B49416000218160C7
:104530000C22C160C0E904128161C161FFF768FD0E
:10454000002803D0BDE81040FDF7DCB810BD000026
:104550000048004060070020A0860100FEE7000040
:1045600070B5044600202DED028B02464FEA01058E
:1045700034F91010002934F9101000DC494209B256
:10458000914200DD0A46401CC0B20428F0D3AA4282
:1045900022DD104606F003FC41EC180B284606F01D
:1045A000FEFB53EC182B06F037FA06F04FF900EE3D
:1045B000100A002034F9101000EE901AF8EEE00A0C
:1045C00060EE800AFDEEE00A10EE901A24F810105A
:1045D000401CC0B20428EDD3BDEC028B70BDFEE7D9
:1045E0000148FEF70FBA0000E40A00202DE9F0416F
:1045F00003680D4604461E6C03EB4511D1F8080B09
:10460000D4F810E04FF400474FF0200C04F2C442FD
:10461000BEF1010F09D0DFF898E0764539D10204E8
:1046200032D500BFC1F8087B3FE0224B5FEA007E35
:1046300004D59E4239D90004F4D436E05FEA806E96
:1046400002D5C1F808CB30E010F0280F2DD19E42E2
:1046500001D90004E6D405EBC50004EB8000D1F8D5
:10466000101BD0F89832C1F31201591AC0F89C12ED
:1046700000F51F70ADB983691BB102691144016176
:104680000FE0012120680AE080060AD5C1F808CBB6
:1046900007E035B9D4F8940218B90021184601F0A2
:1046A00035FCE9B22046FEF7B4F80020BDE8F08101
:1046B0000A31544F0A30544F2DE9F84F0E4601EBA2
:1046C000C60100EB810481460568616DE06D3C34F4
:1046D000884202D90120BDE8F88F081AE1688142BA
:1046E00000D20846C01C870805EB46181BE000BF37
:1046F000A0EB010AE068504500D282460AF10300AF
:10470000870899F8100000901FFA8AF3F2B2284641
:10471000216901F0C3FE216901EB0A002061216AD1
:1047200001EB0A002062D8F8180980B2B84205D31C
:10473000216AA069814201D20028D9D1216AA069E9
:10474000884208D806F00F0101208840D5F83418B7
:104750008143C5F834180020BDE70000A0B1D0EDBA
:10476000101AC0ED111A90ED0F1A80ED101AC0ED5D
:10477000060A80ED070A30EEC00A80ED0F0A0178C4
:1047800029B101293BD078E09FED3D0A7047D0ED7B
:10479000010A60EE801AC0ED091AD0ED0A0A90ED08
:1047A000022A42EE000A30EE410AC0ED0A0A90EDFC
:1047B0000D2A80ED0E2A90ED0C2A80ED0D2A80ED59
:1047C0000C0A90ED031A21EE001A80ED0B1A90ED01
:1047D000050AF4EEC00AF1EE10FA09DCB1EE400A67
:1047E000F4EEC00AF1EE10FA02D390ED0A0A01E0ED
:1047F00080ED0A0A31EE800A30EE010A2BE070EEFD
:10480000410A90ED012A20EE822A80ED092AD0ED9E
:10481000020A60EE800AC0ED0A0AD0ED0D2A72EE9F
:10482000200AC0ED0E2AD0ED0C2AC0ED0D2AF0EEC4
:10483000002A01EE620A30EE210A80ED0C0A90EDAA
:10484000031A21EE000A80ED0B0A30EE800AD0ED4B
:10485000080A30EE200A80ED080AD0ED040AB4EE12
:10486000E00AF1EE10FA06DCF1EE600AB4EEE00ABE
:10487000F1EE10FA01D2C0ED080A90ED080A704777
:1048800000000000002828D0002A26D0017092EDF8
:10489000001A80ED011A92ED011A80ED021A92EDD4
:1048A000021A80ED031A80ED040A9FED0C0AC0ED98
:1048B000050A80ED0E0A80ED0D0A80ED0C0A80EDF0
:1048C000080A80ED0B0A80ED0A0A80ED090A80EDE6
:1048D000110A80ED100A80ED0F0A704700000000F9
:1048E00038B504461248134B0068B0FBF3F04FF4A0
:1048F0007A73584300906068B0F5827F0DD10B4603
:10490000009200228021204600F016F870B1606D00
:1049100040F020006065032038BD009830B1401E93
:10492000009020688068C0430006F6D5002038BD9E
:104930001400002000366E012DE9F8431E46914612
:1049400088460446089DFDF783FE401B351AFDF797
:104950007FFE074625480068C0F3CB30684338E047
:10496000701C37D0FDF774FEC01BA84203D215B1EE
:10497000009860B32CE02068416821F0E0014160BC
:104980006068B0F5827F0BD1A068B0F5004F02D00F
:10499000B0F5806F04D12068016821F0400101600A
:1049A000A06AB0F5005F09D12068016821F40051C8
:1049B00001602068016841F400510160012084F821
:1049C0005100002084F850000320BDE8F883002542
:1049D000401E00902068816838EA010004D0002160
:1049E0004945BDD10020F0E70121F9E7140000207E
:1049F000012004F0A3FEFBE710B5FDF72FFE05F044
:104A0000F7FD012803D0BDE8104005F041BD10BD01
:104A100030B593B034216846FBF7D1FD14210DA8C1
:104A2000FBF7CDFD1E480025016841F08051016073
:104A3000006800F0805012901A48016841F440412B
:104A400001600068022400F44040129001200090B0
:104A5000000401908001CDE9064006200890A820BE
:104A6000CDE909040720CDE90B046846FEF7FEFBFB
:104A700008B172B6FEE70DA90F2081E831004FF4AE
:104A8000A05010904FF48050119005210DA8FEF712
:104A9000E1FA002801D072B6FEE713B030BD000085
:104AA00040380240007000400548016841F4700140
:104AB000016003494FF000608039086070470000D2
:104AC00088ED00E0F0B50268254C264D264E274FB4
:104AD000274B4FF0804CA04209D0604507D0A84238
:104AE00005D0B04203D0B84201D0984204D122F0A0
:104AF000700E4A6842EA0E02A0421BD0604519D0EF
:104B0000A84217D0B04215D0B84213D0984211D065
:104B1000184DA8420ED0184DA8420BD0174DA842F0
:104B200008D0174DA84205D0164DA84202D0164D08
:104B3000A84203D122F44075CA682A434D6922F085
:104B400080022A4302608A68C2620A688262A042C6
:104B500001D0984201D10969016301214161F0BD91
:104B6000000001400004004000080040000C00402C
:104B70000004014000400140004401400048014061
:104B800000180040001C00400020004010B501F05B
:104B90001F030121046A99408C430462016A9A4010
:104BA0001143016210BD0000F0B5026A22F001025B
:104BB0000262036A42688469124E24F073050C682D
:104BC0002C4323F002058B682B430D4DA84201D0E6
:104BD000B04205D123F00807CB683B4323F0040320
:104BE000A84201D0B04205D14D6922F4407215436C
:104BF0008A692A4342608461496841630362F0BD67
:104C00000000014000040140F0B5026A22F01002E9
:104C10000262026A436884690D6824F4E64444EA47
:104C200005248D6822F0200242EA05120F4D104E35
:104C3000A84201D0B04206D1CF6822F0800242EAF9
:104C4000071222F04002A84201D0B04207D14D69BC
:104C500023F4406343EA85038D6943EA8503436097
:104C60008461496881630262F0BD00000000014078
:104C700000040140F0B5026A22F480720262026A06
:104C80004368C46922F4007224F073050C68124E64
:104C90002C438D6842EA05220E4DA84201D0B04255
:104CA00006D1CF6822F4006242EA072222F4806231
:104CB000A84201D0B04207D14D6923F4405343EAE2
:104CC00005138D6943EA05134360C4614968C163F4
:104CD0000262F0BD000001400004014030B5026AEC
:104CE00022F480520262046A4268C3690D6823F4A8
:104CF000E64343EA05238D6824F4005444EA05346E
:104D0000084DA84202D0084DA84204D14D6922F4B2
:104D1000804242EA85124260C361496801640462CC
:104D200030BD0000000001400004014010B50448FF
:104D3000FCF706FBBDE810400148FFF735B800005E
:104D40001C0700200C4808B501680A684A680092F0
:104D5000CA6842F01002CA6001684A6942F0400223
:104D60004A61C82100910168044B806BA3F1C8021D
:104D7000091DFCF771F908BD1C070020E44D002057
:104D800010B5806B0021C185C184FEF7E5FF10BD21
:104D900070B5846B2068406994F83D10C0F3C01072
:104DA0000025212904D118B1E584204600F08AF8B5
:104DB0002068406994F83E10C0F38010222904D185
:104DC00018B1E585204600F056F8206C40F0100040
:104DD00020642046FEF7C0FF70BD10B50146806B11
:104DE00009680968C9052FD40021C18501680C3103
:104DF00051E8002F22F4807241E80023002BF5D106
:104E00000168143151E8002F22F0010241E800232B
:104E1000002BF5D10168143151E8002F22F0400237
:104E200041E80023002BF5D1202180F83E10016BD2
:104E3000012909D101680C3151E8002F22F010023C
:104E400041E80023002BF5D1016B012902D0FFF7C7
:104E5000CFF910BD818DFEF749FF10BD10B5806BF5
:104E6000016B012902D0FFF7C4F910BD818D4908FB
:104E7000FEF73CFF10BD01680C3151E8002F22F411
:104E8000907241E80023002BF5D10168143151E8FC
:104E9000002F22F0010241E80023002BF5D1016B25
:104EA000012909D101680C3151E8002F22F01002CC
:104EB00041E80023002BF5D1202180F83E1000218D
:104EC0000163704701680C3151E8002F22F0C002E5
:104ED00041E80023002BF5D1202180F83D107047D8
:104EE00008B590F83E10222901D0022008BD826842
:104EF0004FF480539A4201D1016921B1816A9A42EB
:104F00001BD04AB10AE00268816A5268C2F3080203
:104F10000A80816A891C08E0026972B102685268DD
:104F200002F07F020A70816A491C8162C18D491EAC
:104F30000904090CC18503D019E002685268F1E741
:104F40000168CA6822F02002CA600168CA6822F4B7
:104F50008072CA6001684A6922F001024A61202118
:104F600080F83E10016B012903D0FFF741F90020C2
:104F700008BD0021016301680C3151E8002F22F0C7
:104F8000100241E80023002BF5D101680A68D2061F
:104F900002D50A6849680091818DFEF7A7FEE6E711
:104FA00070B5044600680169E26821F4405111437C
:104FB00001612169A068E2690843616911430843FE
:104FC0002168CA6849F20C639A430243CA602068A8
:104FD0004169A26921F4407111434161314920685E
:104FE000884202D03049884202D1FEF7E3F801E05E
:104FF000FEF7D0F8E2690023192164253226B2F5C4
:10500000004F626828D0A0FB0101930F9200FBF7CC
:10501000C9F90146B0FBF5F06FF01802504301EBFF
:10502000800006EB0010B0FBF5F000F0F002B1FBE1
:10503000F5F002EB0012B1FBF5F06FF018035843E6
:1050400001EB800006EB0010B0FBF5F000F00F0064
:1050500021681044886070BDA0FB010192185B417B
:10506000FBF7A0F90146B0FBF5F00201B1FBF5F04A
:105070006FF01803584301EB800006EBC000B0FB53
:10508000F5F000F0F80002EB4002B1FBF5F05843F8
:1050900001EB800006EBC000B0FBF5F000F007006C
:1050A000D6E70000001001400014014038B58162CD
:1050B00082850025134604460564222084F83E00BC
:1050C000A26B1C48D063A26B1B481064A26B1B48E8
:1050D000D064A06B0A4605652168A06B091DFDF729
:1050E00057F9206801684068009084F83C502069B6
:1050F00048B120680C3050E8001F41F4807140E84E
:105100000012002AF5D12068143050E8001F41F049
:10511000010140E80012002AF5D12068143050E85F
:10512000001F41F0400140E80012002AF5D10020A4
:1051300038BD0000DB4D00085D4E0008914D0008B1
:1051400010B50448FCF706F9BDE810400148FEF729
:105150002BBE0000600700200C4808B501680A68F3
:105160004A680092CA6842F01002CA6001684A693F
:1051700042F040024A61122100910168044B806BA9
:10518000A3F11802091DFBF767FF08BD60070020A7
:10519000C44E002010B50024D0F8B82252689047C1
:1051A00000B10324204610BD90F89C22012A05D0AE
:1051B000022A03D0032A01D000F01DB84988012932
:1051C00004D10021C0F8A41200F039B870470020C3
:1051D00070470020704710B513460A46002100F0C2
:1051E000A5FA002010BD10B513460A46002100F0B4
:1051F0003DFB002010BD10B504468021204600F084
:1052000023FB2046BDE81040002100F01DBB10B577
:105210000521C0F8941200231A46194600F086FAB8
:10522000002010BD10B50223C0F894328261C26123
:1052300013460A46002100F019FB002010BD10B5EE
:105240000421C0F8941200231A46194600F00EFB00
:10525000002010BDCA88012A01D0FFF7CCBF90F80A
:105260009C22012A05D0022A03D0032A08D0FFF786
:10527000C2BF00218160012200F10801FFF7D2BF07
:105280000122011DFFF7CEBF2DE9F84304460F466A
:1052900000200090002600257988080A062871D091
:1052A00006DC012830D0022836D0032804D149E09A
:1052B000072868D00F2818D039462046FFF79BFFF3
:1052C0000125002D0FD1FA88002A00F0CC80BDF80E
:1052D0000000002876D0824200D902460092314672
:1052E0002046FFF79FFFBDE8F883D4F8B402C269F7
:1052F00022B1207C694690470646E2E739462046BF
:10530000FFF779FF0125DCE7D4F8B412207C0A68A6
:10531000694690470646D4E7207C4FF0020840B12A
:10532000D4F8B802C16A68468847064686F8018004
:10533000C7E7D4F8B802816A68468847064686F807
:105340000180BEE7C8B2062861D2DFE800F0031290
:1053500023324251D4F8B402426822B1207C69461B
:1053600090470646ADE739462046FFF744FF012542
:10537000A7E7D4F8B402826832B1207C694690472E
:1053800006469EE749E057E039462046FFF733FFDF
:10539000012596E7D4F8B402C26822B1207C6946A0
:1053A000904706468DE739462046FFF724FF012542
:1053B00087E7D4F8B40202692AB1207C6946904795
:1053C00006467EE749E039462046FFF714FF0125EF
:1053D00077E7D4F8B402426922B1207C694690474D
:1053E00006466EE739462046FFF705FF012568E7C8
:1053F000D4F8B402826922B1207C694690470646FF
:105400005FE739462046FFF7F6FE012559E73946A2
:105410002046FFF7F0FE012553E7207C28B13946EE
:105420002046FFF7E8FE01254BE7D4F8B802416BB0
:1054300068468847064644E7207C28B1394620461E
:10544000FFF7D9FE01253CE7D4F8B802016B6846A6
:10545000884706460721717033E739462046FFF733
:10546000CAFEBDE8F8832046FFF7E9FEBDE8F883F1
:1054700090F89C22012A05D0022A03D0032A01D0E9
:10548000FFF7B9BECA88022A01D0FFF7B4BE0121D6
:10549000C160D0F8A41209B10321C160022200F159
:1054A0000C01FFF7BFBE01004FF0000004D001293E
:1054B00001D0022901D0032070470120704710B5A8
:1054C000D0F8C802FDF7C2F9BDE81040FFF7EBBF06
:1054D00070B504460B469446002B09D043F080017A
:1054E0002046FFF774FEFF285ED000284CD05BE01A
:1054F00004F11400D4F89412002502293BD18268EB
:10550000C1688A420CD9521A826061462046FFF770
:105510006AFE00231A461946204600F007F92AE0E1
:10552000914214D14068884211D3D4F8981288422D
:105530000DD2002211462046FFF755FEC4F89852BE
:1055400000231A461946204600F0F0F813E094F8BC
:105550009C02032808D1D4F8B802C16821B1C4F86C
:10556000D452C168204688478021204600F06CF95B
:105570002046FFF74CFE94F8A00220B1204600F030
:1055800097F984F8A0520FE094F89C1203290BD1EC
:10559000D4F8B8124A693AB1C4F8D4024A69194633
:1055A00020469047002800D1002070BD10B5044669
:1055B0000B4694460022002B09D003F07F012046C1
:1055C000FFF705FEFF2857D0002840D054E004F52F
:1055D000AA70D4F8941203294ED1C268816891420E
:1055E0000AD98A1A8260C068824200D302466146A4
:1055F0002046FFF7F0FD3FE094F8AA0210F01F00EC
:1056000006D0012806D002280AD0002070B11AE086
:105610000020FBE794F8AE122046FFF7DAFDF5E72D
:1056200094F8AE122046FFF7D2FDEFE794F89C12F3
:10563000032908D1D4F8B8120A6922B1C4F8D402F7
:105640000969204688472046FFF7F9FD14E094F8E1
:105650009C1203290DD1D4F8B812D1F818C0BCF1AE
:10566000000F06D0C4F8D4028A6919462046904734
:1056700002460AB1104610BD002010BD0020704740
:1056800010B50024012180F89C12D0F8B822002A1D
:1056900004D052680179904700B10324204610BD20
:1056A0000A0601F07F01D0F8C80201EBC10100EB4E
:1056B000810002D590F83E00704790F87E02704756
:1056C00010B5D0F8D42200EB8202D2F8B822002A1A
:1056D00004D090F89C32032B02D004E0032010BDCC
:1056E000126A02B19047002010BD10B5D0F8D42244
:1056F00000EB8202D2F8B822002A04D090F89C3243
:10570000032B02D004E0032010BD526A02B190477F
:10571000002010BD10B51C461346D0F8C802224622
:10572000FDF7C2F8BDE81040FFF7BDBE10B5D0F8D8
:10573000C802FDF7E9F8BDE81040FFF7B4BE2DE957
:10574000F04104460025012684F89C620020C4F83C
:1057500094026060C4F8A40284F8A002D4F8B802ED
:10576000002806D0426822B100212046904700B1AF
:1057700003250022402311462046FFF7CBFFA4F863
:1057800064614027C4F860714023002280212046D4
:10579000FFF7C0FFA68427622846BDE8F08190F895
:1057A0009C12042903D190F89D1280F89C120020CD
:1057B000704710B590F89C12032905D1D0F8B812A3
:1057C00011B1C96901B18847002010BD01740020E2
:1057D000704710B5D0F8C802FDF708FCBDE81040CE
:1057E000FFF761BE10B5044604F2AA2000F047F8A6
:1057F0000120C4F89402B4F8B002C4F8980294F8F6
:10580000AA1211F01F000AD001280FD0022814D0CC
:105810002046BDE8104001F0800100F015B804F208
:10582000AA212046BDE8104000F0FAB804F2AA21EF
:105830002046BDE8104000F045BA04F2AA212046F7
:10584000BDE8104000F027B910B5D0F8C802FDF748
:105850007FF8BDE81040FFF726BE90F89C1280F854
:105860009D12042180F89C120020704710B5D0F8DA
:10587000C802FDF7A7F8BDE81040FFF714BE0A788C
:105880000270491C0A784270491C0A784B1C1B782C
:1058900042EA03224280891C0A784B1C1B7842EAA8
:1058A000032282808A78C97842EA0121C180704748
:1058B0000020704770B504468888002821D1C88828
:1058C000F8B9488880281CD200F07F0594F89C0223
:1058D00003280DD084F89E5229462046FFF779FF11
:1058E0002046FFF7ACFC45B1022084F89C0270BD55
:1058F0002046BDE87040FFF77EBC012084F89C0282
:1059000070BD2046BDE87040FFF775BC034600201F
:10591000D3F8B822002A02D0126818461047704700
:105920002DE9F04104460F460025334EB978317019
:10593000012906D939462046FFF75DFC0320BDE862
:10594000F08194F89C024FF0020802280DD0032841
:1059500025D039462046FFF74EFC31782046FFF728
:1059600019FC03252846BDE8F081A1B161602046FD
:10597000FFF7CCFF0546280006D039462046FFF742
:105980003AFC84F89C82EDE72046FFF758FC0320A0
:1059900084F89C02E6E72046FFF751FCE2E7C9B134
:1059A0006068884224D0C1B22046FFF7F3FB31780B
:1059B00061602046FFF7AAFF0546280014D039464B
:1059C0002046FFF718FC21792046FFF7E3FB84F817
:1059D0009C82C7E784F89C8261602046FFF7DAFB6F
:1059E0002046FFF72CFCBDE72046FFF728FCB9E76F
:1059F0002046FFF724FCB5E78C0000204A88012AE6
:105A000003D0022A06D0FFF7F6BB0121C0F8A4128A
:105A1000FFF715BC8988090A80F8A012FFF70FBCB0
:105A200010B500240A7812F0600211D0202A05D0A7
:105A3000402A03D0FFF7DFFB204610BDD0F8D42268
:105A400000EB8202D2F8B822926890470446F3E74E
:105A50004A780A2A1CD2DFE802F012181B151B082C
:105A6000051B0F0BFFF710FCE6E7FFF723FFE3E74B
:105A7000FFF756FF0446DFE7FFF7ECFBDCE7FFF735
:105A8000F7FCD9E7FFF7BAFFD6E7FFF78DFBD3E7BF
:105A9000FFF7B1FBD0E72DE9F04105460E460027A0
:105AA0003479307810F060001ED0202808D04028CB
:105AB00006D031462846FFF79EFB3846BDE8F08108
:105AC00021462846FFF783FBFF28F6D00028F4D1B3
:105AD000C5F8D402D5F8B8028268002AEDD0314664
