:020000040800F2
:10000000705F0020650300081F4800082F420008A9
:100010009D470008310C0008D5670008000000006B
:10002000000000000000000000000000A502000821
:10003000551400080000000001030008C94D000825
:100040007F0300087F0300087F0300087F03000888
:100050007F0300087F0300087F0300087F03000878
:10006000571400085D1400087F03000855100008AD
:10007000611000087F0300086D1000087910000867
:100080007F0300087F0300087F0300087F03000848
:10009000710C00087F0300087F0300087F0300083D
:1000A0007F0300087F0300087F0300087F03000828
:1000B000A94E00087F0300087F0300087F030008A3
:1000C0007F0300087F0300087F0300087F03000808
:1000D0007F0300087F0300087F030008D95600084B
:1000E0007F0300087F0300087F0300087F030008E8
:1000F0007F0300087F0300087F03000885100008C5
:100100007F0300087F0300087F0300087F030008C7
:100110007F0300081D5100087F0300087F030008CB
:100120007F0300087F0300087F0300087F030008A7
:100130007F03000800000000000000007F030008AB
:10014000B90C0008C50C00087F030008214800080E
:100150007F0300087F0300087F0300087F03000877
:100160007F0300087F0300087F0300087F03000867
:100170007F0300087F0300087F03000800000000E1
:10018000000000007F0300080000000000000000E5
:100190007F03000800000000000000007F0300084B
:1001A0000000000000000000000000007F030008C5
:1001B0007F0300087F0300087F0300087F03000817
:1001C0007F03000800F002F800F05CF80AA090E855
:1001D000000C82448344AAF10107DA4501D100F002
:1001E00051F8AFF2090EBAE80F0013F0010F18BF73
:1001F000FB1A43F0010318470CC900002CC900008A
:100200000A444FF0000C10F8013B13F0070408BF3C
:1002100010F8014B1D1108BF10F8015B641E05D0DA
:1002200010F8016B641E01F8016BF9D113F0080F8F
:100230001EBF10F8014BAD1C0C1B09D16D1E58BF21
:1002400001F801CBFAD505E014F8016B01F8016B58
:100250006D1EF9D59142D6D37047000000230024CB
:1002600000250026103A28BF78C1FBD8520728BFC6
:1002700030C148BF0B6070471FB50CF0E2F81FBDDE
:1002800010B510BD00F0D9F91146FFF7F5FF09F0E0
:1002900057FB00F0F7F903B4FFF7F2FF03BC00F0DF
:1002A000FBF900002C4B19680868B0E8F04F80F3A8
:1002B0000988BFF36F8F4FF0000080F311887047FB
:1002C0000000000008480068006880F308884FF0CC
:1002D000000080F3148862B661B6BFF34F8FBFF39E
:1002E0006F8F00DF00BF00BF08ED00E0DFF80C00FB
:1002F000016841F470010160704700BF88ED00E0C3
:10030000EFF30980BFF36F8F134B1A681EF0100FC5
:1003100008BF20ED108A20E9F04F106009B44FF0BB
:10032000500080F31188BFF34F8FBFF36F8F0BF036
:1003300027F84FF0000080F3118809BC196808689D
:10034000B0E8F04F1EF0100F08BFB0EC108A80F339
:100350000988BFF36F8F704724000020EFF30580FA
:10036000704700000948804709480047FEE7FEE75C
:10037000FEE7FEE7FEE7FEE7FEE7FEE7FEE7FEE755
:1003800004480549054A064B704700008D4E000899
:10039000C501000870530020705F002070570020D6
:1003A0007057002053EA020C00F069802DE9F04BF1
:1003B0004FF00006002B1FBFB3FA83F503FA05F4D4
:1003C00024FA05F65E4012BF1643B2FA82F502FA2D
:1003D00005F4C5F120051EBF22FA05FC44EA0C0411
:1003E000203556EA044C4FEA144418BF641C4FF001
:1003F00000084FF00009904271EB030C39D300293B
:1004000019BFB1FA81F701FA07F6B0FA80F700FADE
:1004100007F6C7F120071EBF20FA07FC46EA0C06C4
:100420002037B6FBF4FCA7EB0507103F07F01F0BC6
:10043000CBF120060CFA0BFB2CFA06F644BFB346B0
:100440000026202FA4BF5E464FF0000B5BEA060C8F
:1004500008BF4FF0010B19EB0B09ABFB027C48EB1B
:100460000608C01B06FB02CC0BFB03CC71EB0C0196
:10047000C1E70B46024641464846BDE8F08B13B53E
:100480004FF000004FF00001AFF30080BDE81C40CA
:10049000704710B5431C02E010F8011B71B18107D1
:1004A000FAD14FF0013202C88C1A8C4314EAC211FF
:1004B000F9D0C01A0A0603D0C01E10BDC01A10BD64
:1004C0000A0401D0801E10BD0902FCD0401E10BDE0
:1004D000032A40F2308010F0030C00F0158011F870
:1004E000013BBCF1020F624498BF11F801CB00F848
:1004F000013B38BF11F8013BA2F1040298BF00F89C
:1005000001CB38BF00F8013B11F0030300F0258058
:10051000083AC0F0088051F8043B083A51F804CB7F
:10052000A0E80810F5E7121D5CBF51F8043B40F845
:10053000043BAFF30080D20724BF11F8013B11F850
:1005400001CB48BF11F8012B24BF00F8013B00F894
:1005500001CB48BF00F8012B704710B5203AC0F01E
:100560000B80B1E81850203AA0E81850B1E81850B4
:10057000A0E81850BFF4F5AF5FEA027C24BFB1E8F1
:100580001850A0E8185044BF18C918C0BDE8104062
:100590005FEA827C24BF51F8043B40F8043B08BF6B
:1005A0007047D20728BF31F8023B48BF11F8012B32
:1005B00028BF20F8023B48BF00F8012B70474FF0DE
:1005C000000200B5134694469646203922BFA0E8A3
:1005D0000C50A0E80C50B1F12001BFF4F7AF0907AF
:1005E00028BFA0E80C5048BF0CC05DF804EB8900A0
:1005F00028BF40F8042B08BF704748BF20F8022BE3
:1006000011F0804F18BF00F8012B704770477047FA
:10061000704710B500F00CF8006810BD10B5044626
:1006200000F006F8046010BD004870470C5300202D
:10063000004870470C53002070477546FFF7F4FFE1
:10064000AE4605006946534620F00700854618B0BF
:1006500020B5FFF795FEBDE820404FF000064FF0B3
:1006600000074FF000084FF0000B21F00701AC46E7
:10067000ACE8C009ACE8C009ACE8C009ACE8C00906
:100680008D46704710B50446AFF300802046BDE8A4
:100690001040FFF700BE000001491820ABBEFEE786
:1006A0002600020030B50C4605000CD0022C0AD9F9
:1006B0000548A11E0288284601F042F8291901F8D0
:1006C000020D000A487030BDB802002030B50C465B
:1006D00005000AD0022C08D9601E81B2FF222846EC
:1006E00001F044F8291901F8010C30BD0122022162
:1006F000014801F08ABF00000004024000220221EC
:10070000014801F082BF0000000402407047000071
:1007100001221146014801F078BF000000040240A8
:1007200000220121014801F070BF000000040240D6
:10073000704730B504464FF47A7502E0284600F061
:1007400004F8641EA4B2F9D230BD70B54FF0E024B5
:1007500000226569A8214843A169A3698B42FCD0A6
:1007600002D2A1EB030102E0A5EB030631440A44E7
:1007700019468242F1D370BD10B5FFF7C7FFFFF7EE
:10078000D7FF07F06DF9044607F0F2F9204310BDDA
:100790002DE9FC410746002016460D4600900190C9
:1007A000FFF7ACFF922000F0BDF806226946122048
:1007B00000F09AF8FFF79AFF9DF801009DF80010ED
:1007C000000200B2084300EE100A464CB8EEC00A20
:1007D000D4ED000A20EE200A85ED000A9DF8030002
:1007E0009DF80210000200B2084300EE100AD4ED9A
:1007F000000AB8EEC00A20EE200A85ED010A9DF835
:1008000005009DF80410000200B2084300EE100A33
:10081000B8EEC00A20EE200A85ED020AFFF780FF3D
:1008200008226946002000F05FF8FFF771FF9DF88D
:1008300000000F2830D19DF803009DF8021000023F
:1008400000B2084300EE100AD4ED010AB8EEC00A67
:1008500020EE200A87ED000A9DF805009DF804109F
:10086000000200B2084300EE100AD4ED010AB8EE0F
:10087000C00A20EE200A87ED010A9DF807009DF8C6
:100880000610000200B2084300EE100AB8EEC00ADB
:1008900020EE200A87ED020AFFF730FFA22000F0C9
:1008A00041F802226946222000F01EF8FFF71EFFE1
:1008B0009DF800009DF80110C00040EA5110B0F50D
:1008C000806F01DBA0F5006000EE100AB4EE001AA4
:1008D000F8EEC00AB3EE070A00EE810A86ED000AC0
:1008E000BDE8FC81E400002070B514460D4640F0E0
:1008F000800000F017F806E0552000F013F8641EA1
:1009000005F8010BE4B2002CF6D170BD10B50C4611
:1009100040F0800000F006F8552000F003F8207049
:1009200010BD000001B582B04FF47A700090012331
:1009300001AA02A9024802F06DFE9DF804000EBD56
:100940001406002010B50C46FFF7ECFF2046BDE86A
:100950001040FFF7E7BF000070B505462DED108B86
:1009600082B014460E4680680BF0FAFC94ED048BBE
:1009700094ED00BB41EC1A0B53EC182B51EC1B0B04
:100980000BF0C4FA94ED069B94ED02CB41EC1D0BE9
:1009900053EC192B51EC1C0B0BF0B8FA53EC1D2B3C
:1009A0000AF086FF53EC1A2B0BF0B0FA41EC1D0B4A
:1009B00068680BF0D5FC41EC1A0B53EC192B51EC89
:1009C0001B0B0BF0A3FA41EC1B0B53EC182B51EC57
:1009D0001C0B0BF09BFA53EC1B2B0BF0D7FB53ECCF
:1009E0001A2B0BF093FA41EC1B0B28680BF0B8FCA8
:1009F00041EC1C0B53EC192B51EC190B0BF086FA44
:100A000041EC190B53EC182B51EC180B0BF07EFA40
:100A10009FED83AB53EC1A2B0BF0ACFB53EC192B73
:100A20000BF0B4FB53EC1C2B0BF070FA53EC1B2BAC
:100A30000AF03EFF53EC1D2B0AF03AFF9FED7ABB04
:100A400053EC1B2B0BF062FA0AF000FF3060A86831
:100A50000BF086FC94ED029B94ED00DB41EC1F0B48
:100A600053EC192B51EC1D0B0BF050FA94ED068B47
:100A700094ED04CB41EC1E0B53EC182B51EC1C0BEA
:100A80000BF044FA53EC1E2B0BF080FB53EC1F2BA6
:100A90000BF03CFA41EC100B8DED000B68680BF08D
:100AA0005FFC41EC1E0B53EC182B51EC180B0BF0B8
:100AB0002DFA41EC1F0B53EC192B51EC190B0BF0D9
:100AC00025FA53EC1A2B0BF055FB53EC1F2B0BF0B4
:100AD0005DFB53EC1E2B0BF019FA41EC1F0B286841
:100AE0000BF03EFC41EC1E0B53EC182B51EC1D0B94
:100AF0000BF00CFA41EC180B53EC1C2B51EC190BBE
:100B00000BF004FA53EC182B0AF0D2FE53EC1E2B18
:100B10000BF0FCF953EC1F2B0AF0CAFE9DED000B05
:100B200053EC102B0AF0C4FE53EC1B2B0BF0EEF928
:100B30000AF08CFE7060A8680BF012FC94ED049B28
:100B400041EC1C0B53EC192B51EC190B0BF0DEF99B
:100B500094ED028B41EC1D0B53EC182B51EC180B50
:100B60000BF0D4F953EC1A2B0BF004FB53EC1D2BB8
:100B70000BF00CFB53EC1C2B0BF0C8F941EC1F0BDA
:100B800068680BF0EDFB94ED00CB41EC1E0B53ECD1
:100B9000182B51EC1C0B0BF0B9F994ED06AB41ECA2
:100BA0001D0B53EC1A2B51EC190B0BF0AFF953EC56
:100BB0001D2B0AF07DFE53EC1E2B0BF0A7F941EC28
:100BC0001E0B28680BF0CCFB41EC1D0B53EC192BD2
:100BD00051EC1C0B0BF09AF941EC190B53EC1A2B4E
:100BE00051EC180B0BF092F953EC192B0BF0CEFAD9
:100BF00053EC1D2B0BF08AF953EC1E2B0AF058FE18
:100C000053EC1F2B0AF054FE53EC1B2B0BF07EF918
:100C10000AF01CFEB06002B0BDEC108B70BD00008D
:100C2000000000000000E03F000000000000004065
:100C3000FEE7000000B58BB000200121CDE90601E0
:100C40000590009001900290039004900E20CDE951
:100C500008106946054800F00FFE0221034800F025
:100C600095FD024801F0CCF90BB000BD70030020E7
:100C7000014800F0FCBE00007003002000B58BB0FE
:100C800001220E2100200792CDE905100390049067
:100C9000CDE908210090019002906946054800F0D6
:100CA000EBFD0221034800F071FD024801F0A8F9B4
:100CB0000BB000BD98030020014800F0D8BE000032
:100CC00098030020014800F0D2BE000098030020E5
:100CD00070B5B24CB248B3492DED088BB0EE409AD6
:100CE000F0EE609A94ED090A84ED0D0A0068A063A5
:100CF0000988A1829FEDAC0AAC49AD4D84ED0F0A85
:100D0000884209DDBDEC088B05F5A6704FF48051D3
:100D1000BDE8704003F044BDB5F95201B5F92A10A1
:100D2000401A0BF03CF841EC100B06F08DF8B5F9C9
:100D30005001B5F91E10B0EE40BAF0EE60BA401A9C
:100D40000BF02DF841EC100B06F07EF8B0EE401AD7
:100D5000F0EE601AB5F94E01B5F91210B0EE418A05
:100D6000F0EE618A401A0BF01AF841EC100B06F015
:100D70006BF8B5F94C01B5F90610B0EE40AAF0EEEB
:100D800060AA401A0BF00BF841EC100B06F05CF86F
:100D9000B0EE401AF0EE601A53EC1A2B51EC110B26
:100DA0000AF086FD53EC182B0AF082FD53EC1B2B46
:100DB0000AF07EFD41EC100B84ED180B9FED7D1BBE
:100DC00053EC112B0AF080FF36D0B5F94C01B5F980
:100DD0000610401A0AF0E3FF94ED188B53EC182B21
:100DE0000AF01AFEC4E91001B5F94E01B5F9121066
:100DF000401A0AF0D4FF53EC182B0AF00DFEC4E998
:100E00001201B5F95001B5F91E10401A0AF0C7FFDA
:100E100053EC182B0AF000FEC4E91401B5F9520195
:100E2000B5F92A10401A0AF0BAFF53EC182B0AF051
:100E3000F3FDC4E9160109E09FED600B84ED100B92
:100E400084ED120B84ED140B84ED160B94ED180B4E
:100E500053EC192B51EC100B0AF0DEFD0AF0F6FCF6
:100E6000B7EE000A6062B0F17E5F02DD84ED090A30
:100E700006E010F1814F03D9FFEE000AC4ED090A24
:100E8000A08AA0F128010A2902D29FED4E0A20E093
:100E9000A0F12301052902D2B6EE080A19E0A0F15B
:100EA0001E01052902D2B6EE000A12E0A0F11401DB
:100EB0000A2902D2B5EE000A0BE0A0F10A010A29C4
:100EC00002D2B4EE000A04E0401E092801D29FEDD0
:100ED0003E0A10EE100A84ED0A0A06460BF040FAAC
:100EE00094ED0F0AD4ED090A41EC190B20EE208A8B
:100EF00018EE100A0BF034FA94ED101B53EC112B82
:100F00000BF004F853EC192B0BF000F80AF018FF63
:100F1000688030460BF024FA41EC190B18EE100AE9
:100F20000BF01EFA94ED121B53EC112B0AF0EEFF9E
:100F300053EC192B0AF0EAFF0AF002FFE881304671
:100F40000BF00EFA41EC190B18EE100A0BF008FA30
:100F500094ED141B53EC112B0AF0D8FF53EC192B12
:100F60000AF0D4FF0AF0ECFE688330460BF0F8F983
:100F700041EC190B18EE100A0BF0F2F994ED161B68
:100F800053EC112B0AF0C2FF53EC192B0AF0BEFFF1
:100F90000AF0D6FEE884BDEC088B70BD000300208B
:100FA000C8020020C60200200060704700001644FE
:100FB000A84F00200000000000000000000000001A
:100FC0000000D03F6666663FCDCC4C3D1F4CB3EE73
:100FD0000E0A2DED028B002584ED0C0AB6EE000AF8
:100FE00084ED0D0AB0EE000A9FED198A84ED0E0A19
:100FF00004F1300605EB0510B0EE480A04EB800062
:10100000F0EE400A31463C3008F0FEFD6D1CEDB2BA
:10101000042DEFD30025A4F85451A4F85651A4F898
:10102000585100BFA4F85451A4F85651A4F858518F
:101030000AF0BCFB09F06AF808F016FD06F068FF3C
:1010400006F016FE012008F045FDEBE7A84F002052
:1010500000008046014801F05FB80000340800201D
:10106000014801F059B80000F4080020014801F0DF
:1010700053B800006C060020014801F04DB8000094
:10108000CC060020014801F047B800009408002079
:101090002DE9F04F85680024099E802D18D0894DD8
:1010A000C563894D456490F83450012D15D0012554
:1010B00080F8345090F83550012D10D0002180F880
:1010C00034100224002180F834102046BDE8F08F4F
:1010D0004FF4807141650120F8E70220F6E7022510
:1010E00080F835500025456505682F6847F480274E
:1010F0002F6005682B6103685E608368402B03687E
:101100002AD099600168CA60714D704E704FDFF847
:10111000BC81DFF8B891DFF8B8A1DFF8B4B1EA1408
:10112000DFF8A8E10168183630379302A9F14809C1
:101130000AF1600A0BF1180BAEF1300E4FF0006CA3
:1011400041452DD9A94205D0494503D0514501D08B
:10115000B14205D1202220E09A600268D160D3E735
:1011600059451AD0714518D0594D7835A94214D037
:10117000564D3035A94210D0B9420BD0534A183AD7
:10118000914207D0524A9032914203D04F4A48329E
:10119000914201D11A4600E062464C494C392EE09A
:1011A000DFF82C8108F1A80841452AD9A94205D0C9
:1011B000494503D0514501D0B14201D120221CE064
:1011C00059451AD0714518D0414D7835A94214D0EF
:1011D0003E4D3035A94210D0B9420BD03B4A183AA7
:1011E000914207D03A4A9032914203D0374A48326E
:1011F000914201D11A4600E06246344950390A60F2
:101200005AE0DFF8CC8008F1480841452AD9A942C4
:1012100005D0494503D0514501D0B14201D120222A
:101220001CE059451AD0714518D0294D7835A9428E
:1012300014D0264D3035A94210D0B9420BD0234AE4
:10124000183A914207D0224A9032914203D01F4A65
:101250004832914201D11A4600E062461C491039D9
:10126000CA6029E0A94205D0494503D0514501D0C3
:10127000B14201D120221CE059451AD0714518D045
:10128000134D7835A94214D0104D3035A94210D0F5
:10129000B9420BD00D4A183A914207D00C4A90320D
:1012A000914203D0094A4832914201D11A4600E0E6
:1012B0006246074910398A6001680A6842F00102F3
:1012C0000A60FFE619800008658000085864024043
:1012D0001060024001681823CAB2103AB2FBF3F260
:1012E000054B6FF30901032A9B5CC36500D9091DF7
:1012F0008165084670470000E0C4000810B501464B
:1013000000208B698A6A4FF0C07453B1B3F5005F57
:1013100015D072B1012A0CD0022A0AD0032A09D1B1
:1013200004E01AB1012A06D0022A03D1C96AC90110
:1013300000D5012010BDC96AA142FAD010BD002A13
:10134000F7D0012AF2D0022AF3D0032AF3D010BD3D
:1013500030B50468256825F480252560046863603D
:101360008368402B036803D099600068C26030BD79
:101370009A600068C16030BD01680A68D20604D571
:10138000C968C90601D508F099BF704701680A68A5
:10139000D20604D5C968C90601D508F08FBF7047C9
:1013A000074808B540680090014606480269914226
:1013B00002D2C168491CC1600099016108BD0000EA
:1013C000001000E08800002000B50E492DED028BD2
:1013D00081B0496800910168009A511A00EE101A14
:1013E0000949F8EE400A91ED000A0260B8EE400AA1
:1013F00080EE808AFFF7D4FF01B0B0EE480ABDEC62
:10140000028B00BD001000E0880000200D490A6832
:1014100042F080720A600C4900224A600B6843F077
:1014200001030B6009494FF47A734843B0FBF3F3AF
:101430000749C1E90003054BB0FBF3F0C1E9020223
:1014400070470000FCED00E0001000E040420F009B
:10145000880000207047042000F0F0BF082000F052
:10146000EDBF000070B505462DED108B82B014461F
:101470000E4680680AF074FF94ED048B94ED00BB77
:1014800041EC1A0B53EC182B51EC1B0B0AF03EFDF0
:1014900094ED069B94ED02CB41EC1D0B53EC192B04
:1014A00051EC1C0B0AF032FD53EC1D2B0AF06EFEC2
:1014B00053EC1A2B0AF02AFD41EC1D0B68680AF068
:1014C0004FFF41EC1A0B53EC192B51EC1B0B0AF09C
:1014D0001DFD41EC1B0B53EC182B51EC1C0B0AF0BF
:1014E00015FD53EC1B2B0AF0E3F953EC1A2B0AF011
:1014F0000DFD41EC1B0B28680AF032FF41EC1C0B80
:1015000053EC192B51EC190B0AF000FD41EC190BAF
:1015100053EC182B51EC180B0AF0F8FC9FED83AB41
:1015200053EC1A2B0AF026FE53EC192B0AF02EFE70
:1015300053EC1C2B0AF0EAFC53EC1B2B0AF0B8F915
:1015400053EC1D2B0AF0B4F99FED7ABB53EC1B2B27
:101550000AF0DCFC0AF07AF93060A8680AF000FFB3
:1015600094ED029B94ED00DB41EC1F0B53EC192B27
:1015700051EC1D0B0AF0CAFC94ED068B94ED04CBE4
:1015800041EC1E0B53EC182B51EC1C0B0AF0BEFC6B
:1015900053EC1E2B0AF08CF953EC1F2B0AF0B6FC0F
:1015A00041EC100B8DED000B68680AF0D9FE41ECA0
:1015B0001E0B53EC182B51EC180B0AF0A7FC41EC56
:1015C0001F0B53EC192B51EC190B0AF09FFC53EC39
:1015D0001A2B0AF0CFFD53EC1F2B0AF0D7FD53EC6A
:1015E0001E2B0AF093FC41EC1F0B28680AF0B8FE92
:1015F00041EC1E0B53EC182B51EC1D0B0AF086FC32
:1016000041EC180B53EC1C2B51EC190B0AF07EFC2F
:1016100053EC182B0AF0BAFD53EC1E2B0AF076FCA3
:1016200053EC1F2B0AF044F99DED000B53EC102BEB
:101630000AF03EF953EC1B2B0AF068FC0AF006F99D
:101640007060A8680AF08CFE94ED049B41EC1C0BC2
:1016500053EC192B51EC190B0AF058FC94ED028B4A
:1016600041EC1D0B53EC182B51EC180B0AF04EFCFF
:1016700053EC1A2B0AF07EFD53EC1D2B0AF086FD6D
:1016800053EC1C2B0AF042FC41EC1F0B68680AF07B
:1016900067FE94ED00CB41EC1E0B53EC182B51EC84
:1016A0001C0B0AF033FC94ED06AB41EC1D0B53EC24
:1016B0001A2B51EC190B0AF029FC53EC1D2B0AF0E4
:1016C00065FD53EC1E2B0AF021FC41EC1E0B286833
:1016D0000AF046FE41EC1D0B53EC192B51EC1C0B90
:1016E0000AF014FC41EC190B53EC1A2B51EC180BBB
:1016F0000AF00CFC53EC192B0AF0DAF853EC1D2B12
:101700000AF004FC53EC1E2B0AF0D2F853EC1F2B0A
:101710000AF0CEF853EC1B2B0AF0F8FB0AF096F80F
:10172000B06002B0BDEC108B70BD00000000000086
:101730000000E03F000000000000004072B6FEE73D
:1017400010B558B1084C491E0BD310F8013B53405B
:10175000DBB234F8133083EA1222F4E74FF6FF705D
:1017600010BD104610BD00009CC7000810B5064C07
:1017700004E000BF10F8013B5340E25C491E89B20F
:10178000F8D2104610BD00009CC6000890F820203A
:10179000012A07D0022A05D0416A41F48021416222
:1017A00001207047006842690A4342610020704787
:1017B000F0B590F820500468A468012D05D0022DE2
:1017C00003D0416A41F4802153E014F0406F01D10D
:1017D000E5004BD5C4F30164022C03D9416A41F4FE
:1017E000000146E00125A5401D608D684FF4C073DF
:1017F0009DB1CE6835434E6845EAC605066803EBE1
:101800000417F5514FF4C275076805EB04150E690E
:101810007E51097D012905D009E00E88CD6845EA91
:101820004655EBE701684E5946F480764E511179E2
:10183000D2F805504FF4C67641EA0525016806EB5B
:1018400004168D511178D2F801204FF4C47541EA85
:101850000221026805EB04155151006803EB0411E5
:10186000425842F0010242500020F0BD416A41F46A
:10187000001141620120F0BD10B590F82020012A2E
:1018800007D0022A05D0416A41F48021416201203B
:1018900010BD3B48D0F8002242F00102C0F80022FF
:1018A000D0F8002222F47C52C0F80022D0F80022A6
:1018B0004B6A42EA0322C0F800220A7D02F01F03AD
:1018C00001229A40D0F81C329343C0F81C32CB69F5
:1018D000B3B9D0F80C329343C0F80C328C894B6802
:1018E00064F31F434C6900EBC404C4F840320C8914
:1018F0000B6864F31F434C6900EBC404C4F8443222
:10190000CB69012B16D1D0F80C321343C0F80C323E
:101910000C884B6864F31F434C6900EBC404C4F8A3
:1019200040320C89CB6864F31F434C6900EBC4045C
:10193000C4F844328B69002BD0F804320ED0134324
:10194000C0F804320B69002BD0F8143208D01343CE
:10195000C0F81432096A012904D008E09343EFE784
:101960009343F5E7D0F81C121143C0F81C12D0F8CD
:10197000001221F00101C0F80012002010BD00008B
:1019800000640040704730B590F82040012C05D02D
:10199000022C03D0416A41F480215DE004680029F3
:1019A00055D02469A40754D04FF4D874056804EBCB
:1019B00001142D5915F00405956005682D594ED078
:1019C000ED08556005682C5904F00204D4604FF40A
:1019D000DA74056804EB01142D5905F00F05156143
:1019E00005682D59C5F30725956105682C59240C08
:1019F00054614FF4DC72046802EB0112A4581C70AD
:101A00000468A458240A5C700468A458240C9C70D0
:101A10000468A258120EDA704FF4DE72046802EB0A
:101A20000112A4581C710468A458240A5C7104684B
:101A3000A458240C9C710468A258120EDA71006834
:101A400081B1016941F020010161002030BDE468ED
:101A5000A8E7416A41F400114162012030BD6D0DDB
:101A60001560AFE7C16841F02001C160EDE72DE9E5
:101A7000F05F0546006800244669D0F80490876846
:101A8000D0F80CB0D0F810A0D0F81880F10748D0EA
:101A9000F90714D001218160B80703D5284600F06A
:101AA000DCFA0CE0780702D54FF4006407E0380751
:101AB00002D54FF4805402E0284600F0CDFAF80534
:101AC00016D529684FF480708860B80503D528467C
:101AD00000F0C5FA0CE0780502D544F4005407E0A4
:101AE000380502D544F4804402E0284600F0B6FAF6
:101AF000F80316D529684FF480308860B80303D501
:101B0000284600F0AEFA0CE0780302D544F4004415
:101B100007E0380302D544F4803402E0284600F0A0
:101B20009FFA300707D55FEACB6004D529681020FB
:101B300044F40074C86070074FF0080707D55FEAE7
:101B40000B7004D52868C760284600F0A5F9B007D7
:101B500006D52868C068800702D0284600F09EF9A4
:101B6000700607D55FEACA6004D52968102044F4DE
:101B700080640861B00607D55FEA0A7004D528685A
:101B80000761284600F038FAF00606D52868006993
:101B9000800702D0284600F030FAB00308D55FEA8B
:101BA000C96005D5296810204860284600F026FA4B
:101BB000F00307D55FEA097004D528684760284616
:101BC00000F050FA300446D55FEA497040D5F00580
:101BD00004D55FEAC87001D044F00104B00504D513
:101BE0005FEA887001D544F00204700504D55FEA0D
:101BF000487001D544F00404300529D518F0700F61
:101C000026D008F07000402815D006DC102809D036
:101C100020280AD0302816D10AE050280ED060289B
:101C200011D10EE044F008040DE044F010040AE085
:101C300044F0200407E044F0400404E044F0800451
:101C400001E044F480742868816921F070018161A9
:101C5000296804204860002C05D0686A2043686227
:101C60002846FFF78FFEBDE8F09F70B5040003D053
:101C700094F8200010B104E0012070BD204600F06F
:101C800081F82068016821F00201016000F0C2FCC7
:101C90000546052604E000F0BDFC401B0A2811D8CB
:101CA000206840688007F6D42068016841F001018F
:101CB000016000F0AFFC05460BE000F0ABFC401B00
:101CC0000A2806D9606A40F40030606284F8206017
:101CD000D2E720684068C007EFD0207E0128206846
:101CE00001683DD021F080010160607E01282068FC
:101CF000016838D021F040010160A07E01282068F1
:101D0000016833D021F020010160E07E01282068C5
:101D100001682ED041F010010160207F0128206869
:101D2000016829D021F008010160607F0128206846
:101D3000016824D021F004010160D4E902010843C4
:101D4000D4E90412114308436168491E084321681D
:101D5000C86100206062012084F82000002070BD6E
:101D600041F08001C0E741F04001C5E741F02001AA
:101D7000CAE721F01001CFE741F00801D4E741F0B4
:101D80000401D9E72DE9F04387B0044614216846E1
:101D9000FEF715FC3C4B3D48DFF8E8801968D4F8A5
:101DA00000C03A4A022503260927DFF8E4901030E4
:101DB0000024491CC44524D11960012907D10168B8
:101DC00041F000710160006800F00070059010683B
:101DD00040F002001060106802AB00F002000590B5
:101DE0004FF44070CDE9000583E8D00069464846CD
:101DF00000F030FB00220521142000F0A9FC142083
:101E00003BE0DFF89080C44539D1D0F800C04CF0F9
:101E1000806CC0F800C0D0F800C001290CF0806CC4
:101E2000CDF814C0196007D1016841F0007101605C
:101E3000006800F000700590106840F0020010602B
:101E4000106802AB00F0020005904FF44050CDE95D
:101E5000000583E8D0006946484600F0FBFA0022FE
:101E60000521402000F074FC402000F063FC0022BB
:101E70000521412000F06CFC412000F05BFC07B024
:101E8000BDE8F083006400400000002030380240CC
:101E900000040240006800407047000030B505466D
:101EA00000684D494D4C8BB088423CD109AB02AA29
:101EB00000212846FFF767FD0298B0F5627F13D135
:101EC000BDF82400A080BDF82600E080BDF9280000
:101ED000208109F064FF9FED421B53EC112B09F0A8
:101EE0009BFD09F0B3FCE0600298A0F201200328FA
:101EF00019D8BDF8241010F0FF004ABA3A4900EB97
:101F0000400301EB83018A80BDF8262052BACA80C3
:101F1000BDF8282052BA0A819DF82A208A7202D17F
:101F20002088401C208031492868884239D16B467E
:101F300002AA00212846FFF726FD0298552832D034
:101F400035289FED2B0A39D0A0F50071113928D121
:101F5000BDF8000000EE900A2648F8EE600A80EE18
:101F6000801A80ED001ABDF8021000EE901AF8EE0B
:101F7000600A80EE801A80ED011ABDF8041000EEB0
:101F8000901AF8EE600A80EE801A80ED021ABDF811
:101F9000061000EE901AF8EE600A80EE801A80EDCE
:101FA000031A0BB030BDBDF8000040BA00B200EE1D
:101FB000100AB8EEC00A84ED040AF2E7BDF800008A
:101FC00040BA00B200EE900A6080F8EEE00A80EEBF
:101FD000801A84ED041AE4E700680040CC00002079
:101FE0000000000000005940A84F0020006400409D
:101FF0000000C842784C00207047704770470000CE
:1020000070B5044690F82000012804D0606A40F4BE
:102010000020606218E0022084F820002068016837
:1020200021F00101016000F0F5FA05460EE000BF65
:1020300000F0F0FA401B0A2808D9606A40F400302A
:102040006062052084F82000012070BD206840688F
:10205000C007EDD1606270BD704770477047704730
:102060007047704770472DE9F0410446876D00F0D6
:10207000D1FA064694F835000025022806D08020C3
:10208000606584F834500120BDE8F0812068016863
:1020900021F0160101602068416921F08001416151
:1020A000206C08B9A06C20B12068016821F00801FB
:1020B00001602068016821F0010101600BE000F07F
:1020C000A9FA801B052806D92020606504F8345F32
:1020D00003206070D8E720680068C007EFD194F84B
:1020E0005C103F208840B86004F8345F01206070C5
:1020F0000020C9E790F83510022903D080214165FE
:1021000001207047052180F835100068016821F032
:1021100001010160002070472DE9F84304464FF0AB
:102120000009CDF8009063484FF41651A56D006882
:10213000B0FBF1F72E6894F85C10082000FA01F16A
:1021400031420FD021680A6852070BD50A6822F085
:1021500004020A6094F85C108840A860606D40F04A
:102160000100606594F85C104FF0010808FA01F076
:10217000304208D021684969090604D5A860606D1D
:1021800040F00200606594F85C1004208840304202
:1021900008D021680968890704D5A860606D40F0FF
:1021A0000400606594F85C1010208840304218D01C
:1021B00021680968090714D5A860206801684903E7
:1021C00004D50068000308D5A16C07E00168C905C3
:1021D00003D4016821F008010160216C09B1204697
:1021E000884794F85C1020208840304231D0216824
:1021F0000968C9062DD5A86094F83500052820681F
:10220000016806D0490347D5006800031DD4616CFE
:102210001CE021F0160101602068416921F0800175
:102220004161206C08B9A06C20B12068016821F0E0
:102230000801016094F85C103F208840A86084F891
:10224000349084F83580216D1FE0E16B09B12046A0
:102250008847606D00282BD0606DC00714D0052022
:1022600084F835002068016821F0010101600098C0
:10227000401C0090B84203D820680068C007F6D11F
:1022800084F8349084F83580E16C002910D001B0D6
:102290002046BDE8F04308470168C905D5D4016868
:1022A00021F01001016084F8349084F83580CCE787
:1022B000BDE8F883140000202DE9F041044600F049
:1022C000A9F906465CB1002584F83450022084F850
:1022D00035002068016821F0010101600DE0012056
:1022E000BDE8F08100F096F9801B052805D9202073
:1022F0006065032084F83500F2E720680068C007B5
:10230000F0D12268116820480140D4E90103184344
:10231000D4E903363343184363691843A369184368
:10232000E3691843236A18430843616A042903D107
:10233000D4E90B1319430843106020684069666AAA
:1023400020F0070130460E43012704280CD1A06A73
:102350000643E06A40B12046FEF7D0FF20B140209E
:10236000606584F83570BAE7206846612046FEF75C
:10237000B1FF94F85C203F2191408160656584F84D
:1023800035700020ACE700003F8010F02DE9F041EF
:102390000446866D90F83400002501280DD00120F8
:1023A00084F8340094F835700020012F07D084F8A9
:1023B000340002252846BDE8F0810220FBE7022711
:1023C00084F8357060652046FEF7C2FF94F85C1013
:1023D0003F208840B0602068016841F0160101602C
:1023E000206C20B12068016841F00801016020687C
:1023F000016841F001010160DCE7000010B504282C
:1024000017D10C4C2078002813D009F0FBF80128D4
:102410000FD004F10C01206908F01AFFE0680028D1
:1024200007D005494FF080500860BFF34F8FBFF3CE
:102430006F8F10BD1001002004ED00E0044910B5BD
:102440000A68024202D00860FFF7D8FF10BD000002
:10245000143C01402DE9F84F00224FF001080325FC
:102460004FF00F0E0B6808FA02F42340A3426ED11E
:102470004E68012E05D0022E03D0112E01D0122E4F
:1024800012D186684FEA420C05FA0CF7BE43CF68BA
:1024900007FA0CF7374387604668A6430C79C4F304
:1024A0000014944034434460C668570005FA07FCA2
:1024B0008C6826EA0C06BC403443C4604C68022C8D
:1024C00001D0122C13D1D40800EB8404A346D4F815
:1024D000209054074FEAD46A0EFA0AF629EA060950
:1024E0000E6906FA0AF646EA0906CBF82060066885
:1024F0000C7926EA0C0604F00304BC403443046063
:102500004C68E40060D5334C266846F4804626606B
:10251000246822F0030604F4804400942E4C3444D2
:10252000A446D4F808489607370F0EFA07F6B443C6
:102530002A4EB04201D100261FE0294EB04201D1FF
:1025400001261AE0274EB04202D1022615E03BE0F8
:10255000254EB04201D103260FE0244EB04201D1F6
:1025600004260AE0224EB04201D1052605E0214EA4
:10257000B04201D1062600E00726BE402643CCF833
:1025800008681D4E34684F689C43FF0300D51C4308
:102590003460194E361D34684F689C43BF0300D524
:1025A0001C433460144E083634684F689C43FF0265
:1025B00000D51C433460104E0C3634684F689C4381
:1025C000BF0200D51C433460521C102AFFF44AAFEE
:1025D000BDE8F88F4438024000300140000002405E
:1025E0000004024000080240000C024000100240BB
:1025F0000014024000180240003C0140426931EAE8
:10260000020200D10904816170470AB181617047FB
:102610000904FBE7014880687047000018000020AB
:1026200002488168027811448160704718000020D8
:102630000B4810B5016841F400710160016841F474
:1026400080610160016841F480710160032000F045
:102650009FF80F2000F006F800F050F8002010BDA1
:10266000003C024030B50546204887B00024016890
:1026700041F001010160006806A900F0010000902E
:1026800001A800F0EBFC0498B0B100F00DFD400093
:1026900017494FF08042B0FBF1F11648491E026025
:1026A00040F2E732C0E90324C0E90114846101F07B
:1026B000EDF8040003D015E000F0F6FCE8E70D4863
:1026C00001F000F904000DD11C2000F033F8102DAA
:1026D00007D2002229461C2000F03AF8064805607F
:1026E00000E0012407B0204630BD00004038024021
:1026F00040420F002C0700201C0000200C4882B034
:10270000016841F480410160006800F4804000905D
:102710000748001F016841F08051016000680022F5
:1027200000F0805000900F21901E02B000F010B811
:1027300044380240002809DB00F01F0201219140CB
:102740004009800000F1E020C0F80011704700004F
:10275000F0B40E4B1B680C46C3F30223C3F107050C
:10276000042D00D90425191D072901D2002300E0FA
:10277000DB1E012606FA05F1491E214099409E40C4
:10278000761E16403143F0BC04F084B80CED00E036
:10279000064900F0070208684FF6FF03184040EAB8
:1027A0000220034A10430860704700000CED00E06F
:1027B0000000FA0570B5164D0446A1B1012911D1EA
:1027C0002068D0F8001E41F00101C0F8001ED4F8C6
:1027D000040403F088FA206A002803D0286840F037
:1027E0000600286070BD206A28B102F003FB28684B
:1027F00020F0060028602068D0F8001E21F00101BA
:10280000C0F8001ED4F80404BDE8704003F010BA0C
:1028100010ED00E0D0F8040403F0AAB9C1EBC10246
:1028200000EB8202D0F80404926C03F015B9C1EBFE
:10283000C10200EB8202D0F80404D2F8082203F0AF
:1028400060B9D0F8040403F095B970B5044601F0FE
:102850000F006268904201D9012070BD0B0601F0A3
:102860000F01C1EBC10104EB81014FF001024FF0F8
:10287000000503D581F83D203C3103E081F8FD518E
:1028800001F5FE718D70087094F8BC03012808D022
:1028900084F8BC23206803F017FD84F8BC530020A3
:1028A00070BD022070BD2DE9F04104460F0601F015
:1028B0000F00C0EBC00104EB81014FF001064FF0A7
:1028C000000503D581F83D603C3103E081F8FD51FE
:1028D00001F5FE7108708A60CB704A7802B1C88039
:1028E000022B00D10D7194F8BC03012809D084F8A3
:1028F000BC63206803F0E2FB284684F8BC53BDE8C3
:10290000F0810220FBE770B50C4601F00F05C5EB26
:10291000C50100EB8101C1F81032C1F80822002383
:10292000C1F8143281F8FD3181F8FC51036901F5D9
:10293000FE71012B00D10A612207027C006803D0DE
:1029400003F01AFD002070BD03F006FCFAE770B535
:1029500004460D4601F00F006168884201D901204C
:1029600070BD29064FF000064FF0010207D5C0EBFD
:10297000C00104EB810181F83D203C3107E0C5EB4B
:10298000C50104EB810181F8FD6101F5FE718A70DA
:10299000087094F8BC03012807D084F8BC23206891
:1029A00003F0BEFC280702D007E0022070BD217CA6
:1029B00004F57172206803F05BFC84F8BC630020AE
:1029C00070BD70B50C4601F00F05C5EBC50100EBFD
:1029D00081010B658A6400234B65012381F83D303A
:1029E00001F83C5F0369012B00D10A612207027CD8
:1029F000006803D003F0C0FC002070BD03F0ACFB06
:102A0000FAE700002DE9FC5F05680446284603F05C
:102A1000C6FD00287ED1206803F0EDFD002879D0A6
:102A2000206803F0E8FD800704D52068416901F0C3
:102A300002014161206803F0DEFDC10604F57170FA
:102A4000009034D52068816921F0100181612F6ADE
:102A500007F00F00C0EBC00004EB8006C7F3434053
:102A600006F5FE76022802D0062811D01AE047F6B5
:102A7000F070074216D0C7F30A1217462846F168CD
:102A800003F0BDFDF0683844F060B069384408E0F8
:102A900008222846009903F0B2FDB169C7F30A1075
:102AA0000844B0612068816941F0100181612068AB
:102AB00003F0A1FD00034FF001094FF0080B5BD5B7
:102AC0000026206803F076FD0746DFF8A4A351E056
:102AD000F8074DD0F1B2206803F085FD8046C007AD
:102AE00007D005EB4611C1F8089B3146204601F09E
:102AF0009DFE5FEA087022D505EB4611C1F808BBC0
:102B00002068026C00EB46100192D0F8081B524579
:102B100007D900E0A9E1090403D54FF40041C0F84A
:102B2000081B204600F0E0F90198504507D92069BC
:102B3000012804D120680121009A03F099FB5FEA83
:102B4000C86004D505EB46111020C1F8080B5FEAF8
:102B5000886004D505EB46112020C1F8080B5FEA18
:102B6000884005D505EB46114FF40050C1F8080B1D
:102B70007F08761C002FABD1206803F03CFD40039A
:102B80004FF0000A5CD5206803F00DFD07460026D3
:102B900054E0F80750D0F1B2206803F012FD8046EF
:102BA000C00723D006F00F0209FA02F0D5F8342846
:102BB0008243C5F8342805EB4610C0F8089920690F
:102BC00001280FD1C6EBC60004EB8000D0E911212B
:102BD0001144816436B9206D20B920680121009A22
:102BE00003F046FBF1B22046FFF718FE5FEA0870DB
:102BF00003D505EB4611C1F808B95FEAC86004D5F2
:102C000005EB46111020C1F808095FEA486004D5B9
:102C100005EB46114020C1F808095FEA887004D529
:102C200005EB46110220C1F808095FEA086003D5E8
:102C30003146204601F060FE7F08761C002FA8D1A7
:102C4000206803F0D8FC002811DAD5F8040820F039
:102C50000100C5F8040894F8F403012839D020468F
:102C600000F026F92068416901F0004141612068C7
:102C700003F0C1FC00050BD5D5F80808C00702D049
:102C8000204600F039F92068416901F40061416192
:102C9000206803F0B0FC00010AD52068416901F00A
:102CA0000061416194F8F403D0B1204600F024F9AA
:102CB000206803F0A0FCC00476D5D5F8040820F005
:102CC0000100C5F804081021206803F049FC002128
:102CD00035E084F8F4A300212046FFF76BFDC1E73F
:102CE00084F8F4932068406D0121C0F38300C4F898
:102CF000F8032046FFF75EFDDAE700BF05EB411061
:102D00004FF67F32C0F80829D0F8003923F40013B9
:102D1000C0F80039D0F8003943F00063C0F800393A
:102D2000C0F8082BD0F8002B22F40012C0F8002BBA
:102D3000D0F8002B42F00062C0F8002B491C6068FC
:102D40008842DBD8D5F81C0840F00110C5F81C08F3
:102D5000206B60B1D5F8840840F00B00C5F88408FA
:102D6000D5F8440840F00B00C5F844080CE0D5F84D
:102D7000141842F22B000143C5F81418D5F81008B6
:102D800040F00B00C5F81008D5F8000820F4FE60EC
:102D9000C5F80008217C2068009A03F069FA2068D1
:102DA000416901F480514161206803F024FC8004F2
:102DB00015D5206803F0C2F9206803F0E3FBE0605A
:102DC00000F06CF90146227B206803F037FC2046B6
:102DD00000F058F82068416901F400514161206811
:102DE00003F009FC000707D5204600F065F82068CD
:102DF000416901F008014161206803F0FCFBC00259
:102E000008D50021204600F035F82068416901F41A
:102E100080114161206803F0EEFB800208D500219B
:102E2000204600F02BF82068416901F4001141614F
:102E3000206803F0E0FB400007D52046FFF7EAFCDE
:102E40002068416901F080414161206803F0D3FBB3
:102E500040070AD520684568680702D52046FFF775
:102E6000F0FC2068416829434160BDE8FC9F0000F8
:102E70000A30544FD0F8040402F098BED0F804048D
:102E800002F096BE70B50446C068012570B10228F4
:102E900001D0FEF753FC2946D4F8040402F0DEFE0C
:102EA000D4F80404BDE8704002F099BE0025F2E7B2
:102EB000D0F8040402F0BCBED0F8040402F0C2BE94
:102EC00010B5044690F8BC0301280BD0012084F80B
:102ED000BC0384F83810206803F09FFB002084F8BE
:102EE000BC0310BD022010BDD0F8042400F57171A0
:102EF000104602F0BFBE000010B50446D0F804042E
:102F000002F0F1FE2068D0F8001E41F00101C0F887
:102F1000001E206A002804D00248016841F0060122
:102F2000016010BD10ED00E02DE9F0470E460500F0
:102F300065D0DFF81481D8F80000F7B200F00F0078
:102F4000B04207D288F80070D8F8000000F00F00F7
:102F5000B04254D128683D4C810712D5400703D5B3
:102F6000206840F4E05020602878000703D52068EE
:102F700040F4604020602068A96820F0F000084319
:102F800020602878C0072DD03049686808390128AA
:102F900012D0022813D0032811D00968890700290C
:102FA0002DDA216821F0030101432160FFF732FB94
:102FB000814641F2883A0EE009688903EFE7096823
:102FC0008901ECE7FFF726FBA0EB0901514502D987
:102FD0000320BDE8F0872068696800F00C00B0EBC2
:102FE000810FEFD1D8F80010404601F00F01B14237
:102FF00007D90770006800F00F00B04201D001202F
:10300000E7E72878400705D52068E96820F4E05014
:10301000084320602878000706D52068296920F435
:10302000604040EAC100206000F05EF82168084A74
:10303000C1F30311515CC8400649086006480068A6
:10304000FFF710FB0020C4E7003C024008380240B4
:10305000C8C40008140000201C0000200F220260D9
:103060000C4A136803F003034360136803F0F00392
:103070008360136803F4E053C36012684FF4E053B5
:1030800003EAD20202610448006800F00F00086001
:103090007047000008380240003C024001480068C8
:1030A00070470000140000200448054900680968C2
:1030B000044AC1F38221515CC840704714000020CB
:1030C00008380240D8C40008044805490068096867
:1030D000044AC1F34231515CC840704714000020DB
:1030E00008380240D8C40008224810B5006810F023
:1030F0000C02214815D02149042A11D01D4C241F4F
:10310000082A0FD00C2A0CD12268236802F03F0253
:103110005B0221D52068C0F38810A0FB010120E0EC
:10312000084610BD2268236802F03F025B0205D505
:103130002068C0F38810A0FB010104E02168C1F3FE
:103140008811A1FB00010023FDF72CF92168C1F3D0
:103150000141491C49000AE02168C1F38811A1FB23
:1031600000010023FDF71EF92168C1F30271B0FBD5
:10317000F1F010BD083802400024F400001BB70035
:103180002DE9F84F0546DFF828B30078ABF10407C6
:10319000C007A7F1040451D0DBF800105846C1F372
:1031A000810101290FD00168C1F38101022902D1F7
:1031B0003968490207D40068C0F38100032809D1A7
:1031C0003868400206D52068800337D56868002833
:1031D00072D033E06868B0F5803F10D0B0F5A02F12
:1031E000206810D020F480302060206820F48020F7
:1031F00020606868A8B1FFF70DFA06460DE0206868
:1032000040F48030F4E740F480202060F7E700BF0E
:10321000FFF700FA801B642878D820688003F7D570
:103220000CE0FFF7F7F9064605E000BFFFF7F2F9FB
:10323000801B6428F0D820688003F7D42878DFF852
:10324000749280074FF0000A46D5DBF8001058460C
:1032500011F00C0F0FD00168C1F38101022902D1D6
:103260003968490207D50068C0F38100032809D1F5
:103270003868400206D42068800715D5E868012820
:103280001AD111E0E868C0B10120C9F80000FFF7C9
:10329000C1F9064605E000BFFFF7BCF9801B022814
:1032A000BAD820688007F7D52068296920F0F8008F
:1032B00040EAC10020600FE0F7E0C9F800A0FFF786
:1032C000A9F9064605E000BFFFF7A4F9801B022814
:1032D0001CD820688007F7D42878000727D5DFF8A6
:1032E000D0817548696908F16C0881B101210160DC
:1032F000FFF790F9064604E0FFF78CF9801B0228DF
:1033000004D8D8F800008007F6D510E089E0C0F8AE
:1033100000A0FFF77FF9064605E000BFFFF77AF946
:10332000801B02287DD8D8F800008007F6D42878C2
:10333000400769D55E484FF0000838300068C0008B
:103340000BD45B483830016841F08051016000685F
:103350004FF0010800F080500090584E3068C005D2
:1033600011D4306840F480703060FFF753F900905A
:1033700006E000BFFFF74EF90099401A022850D826
:103380003068C005F6D54A4EA868683601280FD0C7
:103390000528306810D020F001003060306820F03F
:1033A00004003060A868B8B1FFF734F900900FE06E
:1033B000306840F00100F4E740F004003060F7E7C7
:1033C000FFF728F90099411A41F28830814264D808
:1033D00030688007F4D50EE0FFF71CF9009007E095
:1033E000FFF718F90099411A41F28830814254D808
:1033F00030688007F4D4B8F1000F05D02C4838307D
:10340000016821F080510160A869A8B3DBF80010C1
:10341000C1F38101022948D00228C9F860A005D073
:1034200000E03AE0FFF7F6F8054639E0FFF7F2F87A
:10343000064604E0FFF7EEF8801B02282DD820682E
:103440008001F7D4F5E907010843E9681C4A4908F7
:1034500002EB0141AA6841EA82110843297C40EA53
:103460000160297D40EA017038600120C9F86000E0
:10347000FFF7D0F8054606E015E000BFFFF7CAF8F1
:10348000401B022809D820688001F7D50BE000BF57
:10349000FFF7C0F8401B022802D90320BDE8F88FCF
:1034A00020688001F4D40020F8E70120F6E700004E
:1034B0000838024000004742800E4742007000403A
:1034C0000000FFFF70B5040005D00025A56294F848
:1034D000510010B106E0012070BD84F85050204624
:1034E00000F030F8022084F851002068016821F0D3
:1034F00040010160D4E901010843D4E903121143FA
:10350000084361690843218B01F400710843E169B4
:103510000843216A0843A16A084321680860A0693A
:10352000042101EA1040616A08432168486020686C
:10353000C16921F40061C1616565012084F8510011
:10354000002070BDF0B587B0064614216846FDF72F
:1035500036F82B493068884250D12A480024016847
:1035600041F480410160006800F4804005902548E6
:103570001038016841F0020101600068694600F0FE
:10358000020005904FF4444000900220CDE9010470
:1035900003200390052004901B48FEF75BFF1C4DA1
:1035A0001A48C5E900040715AC60C5E903476C611A
:1035B0004FF44030AC61C5E9074028466C62FEF725
:1035C0007BFE08B1FEF7BAF8F564AE63104D0F4804
:1035D00060351830E5E80204402091C5C00245F886
:1035E0001449AC61C5E9074009486C626030FEF7D8
:1035F00063FE08B1FEF7A2F8B564AE6307B0F0BD94
:103600000038004040380240000402405860024048
:103610006C0600202DE9F84F044690F85000002772
:103620000A9E1D4692468B464FF0010901280ED096
:10363000012084F85000FEF7EDFF804694F8510019
:10364000616801280CD0B1F5827F07D102E0022029
:10365000BDE8F88FA16809B9042801D00227C2E0AB
:10366000BBF1000F27D0BAF1000F24D01DB394F89E
:103670005100042802D0052084F851000020606524
:10368000C4F838A0E587A587C4F830B0E586A586DC
:103690002064606420680168490603D4016841F031
:1036A00040010160E068B0F5006F606805D0E8B3E4
:1036B000012D46D07FE0012795E008B1012D39D1D9
:1036C000206B21680088C860206B801C2063E08E1E
:1036D000401EE0862EE02068816889070FD5E18EC4
:1036E00069B1B9F1010F0AD1216B0988C160206B62
:1036F000801C2063E08E401EE0864FF000092068A9
:103700008168C9070CD0E18F51B1C068A16B0880F6
:10371000A06B801CA063E08F401EE0874FF0010982
:10372000FEF778FFA0EB0800B04200E009E001D30B
:10373000701C50D1E08E0028CDD1E08F0028CAD176
:103740003FE0206B216800780873206B401C2063E9
:10375000E08E401EE0862EE02068816889070FD544
:10376000E18E69B1B9F1010F0AD1216B09780173BA
:10377000206B401C2063E08E401EE0864FF0000965
:1037800020688168C9070CD0E18F51B1C068A16B76
:103790000870A06B401CA063E08F401EE0874FF0D4
:1037A0000109FEF737FFA0EB0800B04202D3701CFE
:1037B00001D010E07EB1E08E0028CDD1E08F00284E
:1037C000CAD142463146204601F082FA28B101278B
:1037D0002020606507E0032705E0A06818B920688D
:1037E000C16880680090012084F85100002084F8AE
:1037F000500038462CE770477047000070B590F8CD
:103800003C20012A32D0012480F83C40022280F87A
:103810003D2003685A689D6822F070060A683243AA
:103820005A60134B02689A4214D0B2F1804F11D003
:10383000104B9A420ED0104B9A420BD00F4B9A422B
:1038400008D00F4B9A4205D00E4B9A4202D00E4B35
:103850009A4204D1496825F080031943916080F8A9
:103860003D40002180F83C10084670BD022070BD2C
:10387000000001400004004000080040000C00402F
:1038800000040140004001400018004010B5040051
:1038900003D094F83D0010B107E0012010BD0020D6
:1038A00084F83C00204600F00CF8022084F83D002B
:1038B000211D206801F0FEFA012084F83D0000205F
:1038C00010BD70470168CA6842F00102CA60006812
:1038D000816801F00701062903D0016841F0010168
:1038E000016000207047704770B5044600680169A8
:1038F0004FF00005C943890715D4C168C94389073A
:1039000011D4E91E016101202077206880698007B9
:10391000204602D0FFF7E7FF04E000F0C1F82046A0
:1039200000F056F9257720680169C943490717D483
:10393000C168C943490713D46FF004010161022033
:1039400020772068806910F4407F204602D0FFF77E
:10395000CAFF04E000F0A4F8204600F039F925770A
:1039600020680169C943090716D4C168C94309071A
:1039700012D46FF008010161042020772068C0692B
:103980008007204602D0FFF7AEFF04E000F088F881
:10399000204600F01DF9257720680169C943C90652
:1039A00017D4C168C943C90613D46FF0100101616F
:1039B000082020772068C06910F4407F204602D09C
:1039C000FFF791FF04E000F06BF8204600F000F9EB
:1039D000257720680169C943C90708D1C168C9436F
:1039E000C90704D1891E0161204600F015F920683D
:1039F0000169C943090609D4C168C943090605D448
:103A00006FF0800101612046FFF7F5FE2068016933
:103A1000C943490609D4C168C943490605D46FF0B2
:103A200040010161204600F0FEF820680169C943A9
:103A300089060BD4C168C943890607D46FF02001F9
:103A400001612046BDE87040FFF7D6BE70BD0000A2
:103A500010B586B0044614216846FCF7B0FD0D4948
:103A60002068884214D10C480021026842F002020A
:103A70000260006800F00200059020200090022003
:103A8000CDE90101CDE9031069460448FEF7E2FCE7
:103A900006B010BD0004004030380240000402406F
:103AA000704770B5044690F83C000D4601280DD0D3
:103AB000012684F83C60022084F83D0042B1042ACB
:103AC00018D0082A2AD00C2A4DD139E0022070BD26
:103AD000206801F061FA2068816941F00801816184
:103AE0002068816921F004018161206881692A6967
:103AF000114311E0206801F07FFA2068816941F4E8
:103B0000006181612068816921F4806181612068A0
:103B100081692A6941EA0221816124E0206801F07B
:103B2000A1FA2068C16941F00801C1612068C1693A
:103B300021F00401C1612068C1692A69114311E0C3
:103B4000206801F0C3FA2068C16941F40061C161D5
:103B50002068C16921F48061C1612068C1692A6956
:103B600041EA0221C16184F83D60002084F83C00F4
:103B700070BD10B5040003D094F83D0010B107E00B
:103B8000012010BD002084F83C00204600F00CF815
:103B9000022084F83D00211D206801F08BF90120EE
:103BA00084F83D00002010BD08B500680649884231
:103BB00008D10648016841F002010160006800F088
:103BC0000200009008BD00000004004040380240A0
:103BD0007047000010B504460068012201F0CEF9DC
:103BE0000B492068884202D00A49884203D1416CBF
:103BF00041F4004141642068816801F00701062911
:103C000003D0016841F001010160002010BD0000F7
:103C100000000140000401400068B0F1804F01D174
:103C2000FEF7FEBC7047704738B5044690F83E007A
:103C3000202822D181B17AB194F83C0001281CD00F
:103C4000012084F83C002063204601F04DFC002850
:103C500003D1216B012901D0012038BD21680A68F8
:103C60004968009121680C3151E8002F42F01002A0
:103C700041E80023002BF5D138BD022038BD0000FB
:103C800070B50E4618490024164D097826E000BF8D
:103C900055F82420D2F8002182421DD155F8240085
:103CA000D0F8040128B1804755F824003146FCF7CC
:103CB00086FC55F8241091F8FF20D1F80001FFF799
:103CC000B3FF55F82400D0F80001806B006801684C
:103CD00021F00801016070BD641CE4B28C42D7D3AE
:103CE00070BD00006C4C0020C800002070B5124967
:103CF0000024104D09781AE055F82420D2F800214C
:103D0000824212D155F8241091F8FF20D1F8000119
:103D1000FFF78AFF55F82400D0F80001806B006897
:103D2000016821F00801016070BD641CE4B28C429E
:103D3000E2D370BD6C4C0020C8000020F8B50168CB
:103D400004460868CA684B6910F00F0F4FF0000571
:103D500059D003F0010602F49077374365D0C107CC
:103D600005D0D10503D5216C41F001012164410743
:103D700005D5D90703D0216C41F0020121648107E8
:103D800005D5D90703D0216C41F004012164010756
:103D900007D502F02001314303D0216C41F0080126
:103DA0002164216C00293AD0800604D5900602D502
:103DB000204601F0B3FA20684069216CC0F38010FE
:103DC000090700D460B3204601F073FA2068406907
:103DD000400621D52068143050E8001F21F0400132
:103DE00040E80012002AF5D1A06BA8B16C4901652A
:103DF000A06BFEF77FF9002811D0A06B016D01B018
:103E0000BDE8F040084783060FD593060DD5204640
:103E1000BDE8F84001F082BA2046FFF767FFF8BD21
:103E20002046FFF763FF2564F8BD266B2023012E93
:103E300079D1C60677D5D60675D50868486800904A
:103E40004869400640D5A16B086840680004000C32
:103E5000EAD0A28D8242E7D9E085C869B0F5807FBB
:103E60002DD020680C3050E8001F21F4807140E80C
:103E70000012002AF5D12068143050E8001F21F00C
:103E8000010140E80012002AF5D12068143050E802
:103E9000001F21F0400140E80012002AF5D184F80B
:103EA0003E30256320680C3050E8001F21F01001DF
:103EB00040E80012002AF5D1A06BFEF7D4F8A08DDF
:103EC000E18D401A81B229E0A08DE18D401A81B2C6
:103ED000E08D0028A8D00029A6D020680C3050E83A
:103EE000002F22F4907240E80026002EF5D12068C1
:103EF000143050E8002F22F0010240E80026002E86
:103F0000F5D184F83E30256320680C3050E8002F4E
:103F100022F0100240E80023002BF5D12046FFF7E5
:103F2000AFFEF8BDFFE705062BD5150629D594F899
:103F30003D002128F5D1A068B0F5805F01D120694E
:103F4000B0B1206A411C2162216800784860E08C91
:103F5000401E0004000CE084E3D12068C16821F019
:103F60008001C1602068C16841F04001C160D8E7AC
:103F7000206A0088C0F308004860206A801C206224
:103F8000E5E74006CDD55006CBD5CA68204622F0DD
:103F90004002CA6084F83D3000F03CF9C1E70000FF
:103FA0007151000870B5040004D094F83D0000255C
:103FB00010B106E0012070BD84F83C50204600F0AE
:103FC00023F8242084F83D002068C16821F40051C2
:103FD000C160204601F002FA2068016921F4904195
:103FE00001612068416921F02A0141612068C168AE
:103FF00041F40051C1602564202084F83D0084F81C
:104000003E00002070BD00002DE9F04F87B005464E
:1040100014216846FCF7D3FA5448DFF84CC12B68EA
:104020005249103802260327514A00244FF4403BDE
:104030004FF000694FF4806A63455BD10B6843F42D
:1040400080130B60096801F480110591016841F04B
:1040500004010160016801F004010591016841F06B
:1040600008010160006802AB00F0080005909014A0
:10407000CDE900064FF0080883E890016946104634
:10408000FEF7E8F90420CDE9000602AB694683E8B3
:1040900090013848FEF7DEF9384E3748C8463060A0
:1040A000C6E90194C6E9034A7461B461C6E9074BE5
:1040B000574630467462FEF7FFF808B1FDF73EFB45
:1040C000AE63B5632D4E2C486036A830E6E8020892
:1040D000402091C6C00246F81449B461C6E90740C1
:1040E000264874626030FEF7E7F808B1FDF726FB5A
:1040F0006E6334E0DFF888C0634531D10B6843F468
:1041000080230B60096801F480210591016841F06A
:10411000040101600068029400F0040005904FF46F
:104120008460CDE900060720CDE90370694610469A
:10413000FEF790F9114E1048C03618303060C6E9CD
:104140000194C6E9034A7461B461C6E9074B30467D
:104150007462FEF7B1F808B1FDF7F0FAAE63B5632B
:1041600007B0BDE8F08F000000500040403802402A
:1041700000080240000C0240106002403408002099
:10418000004800407047704770B5044690F83D0005
:10419000202836D191B38AB394F83C00012830D05E
:1041A000012084F83C002162A284E2840025256479
:1041B000212084F83D00636B1348D863636B134878
:1041C0001864636B1248D864606B134605652668F3
:1041D000606B321DFEF7DAF821686FF0400008606E
:1041E00084F83C502068143050E8001F41F08001F2
:1041F00040E80012002AF5D1002070BDFFE7012041
:10420000FBE70220F9E7000067520008A952000806
:10421000815100080349884202D1034900204870B7
:1042200070470000AC0700206C0300207047FEE7D9
:104230002DE9F0470E4607460025DFF89491C0E0CF
:10424000785DA52873D178190446052102F0E2FAB9
:1042500000286CD06078A17840EA012805EB0800BE
:104260000930B04246D8204608F1090102F0B4FAFC
:1042700000285CD06079A17940EA012040F2022157
:10428000A0F20222884261D018DCB0F5817F40D0D4
:104290000ADC01281BD0032820D005282BD0A0F54C
:1042A0008070013822D12DE0B0F5827F38D0A0F5A2
:1042B000807005383CD0FC2818D140E0092A15D27E
:1042C000DFE802F0144B525960676E7577000B20DF
:1042D000804602463E48E11D8F3805E0202080469A
:1042E00002463B48E11D8338FCF7F2F805EB080075
:1042F0000930C5B265E00D20804602463448E11D14
:104300006338F1E70420804602463148E11D563803
:10431000EAE70420804602462D48E11D5238E3E7D3
:104320000220804602462A48E11D4E38DCE746E07E
:104330000120804602462648E11D4C38D4E71B2068
:10434000804602462248E11D4B38CDE710208046CA
:1043500002461F48E11D3038C6E71020804602465D
:104360001B48E11D2038BFE701208046024618485F
:10437000E11D1038B8E70120804602461448E11DCF
:104380000F38B1E70120804602461148E11D0E3882
:10439000AAE70720804602460D48E11D0D38A3E735
:1043A0000620804602460A48E11D801F9CE7042043
:1043B00000E0062080460246E11D484694E76D1C59
:1043C000EDB2B542FFF43CAFBDE8F04702F0BCB936
:1043D0006C4F00202DE9F04F09ACDDE90C6594E845
:1043E00080060024DDF838B007E000BFC4F1020801
:1043F000641C00F808C0032C04DA11F804C0BCF1F6
:10440000000FF3D110F8031F62F3020121F038010D
:104410000170018863F389110180417867F3850198
:104420004170828869F309028280B0F805206AF33E
:104430008C02A0F80520C18866F34F11C180B0F846
:10444000091065F38C01A0F8091042896BF34F1233
:104450004281BDE8F08F00000F4810B50D490160A2
:104460000221416000214FF460228160C0E9031203
:104470004FF480024261017641768176C176017700
:104480004177FDF7F2FB002803D0BDE81040FDF7AF
:1044900055B910BD00640040700300200F4810B5EE
:1044A0000D4901600221416000214FF460228160CA
:1044B000C0E903124FF480024261017641768176B1
:1044C000C17601774177FDF7D0FB002803D0BDE826
:1044D0001040FDF733B910BD00680040980300207C
:1044E000114808B5016841F400110160006800221C
:1044F00000F40010009005210C20FEF729F90C2093
:10450000FEF718F9002205210E20FEF721F90E20F2
:10451000FEF710F9002205210F20FEF719F9BDE87A
:1045200008400F20FEF706B93038024010B59CB0A5
:104530001C2216496846FCF710F80021684605F071
:10454000D5FA134C11491C22A0601C3107A8FCF7B6
:1045500004F8002107A805F0C9FA0C4920601C22C4
:1045600038310EA8FBF7F9FF00210EA805F0BEFABE
:104570000649E0601C22543115A8FBF7EEFF00212C
:1045800015A805F0B3FA60601CB010BD58C400084F
:10459000040000202DE9F04186B014216846FCF7A4
:1045A0000EF82F480024016841F004010160016801
:1045B00001F004010591016841F08001016001688A
:1045C00001F080010591016841F00201016001687C
:1045D00001F002010591016841F0010101600168EB
:1045E00001F001010591016841F0080101600068D6
:1045F0001C4F00F0080042F21105059000222946E8
:104600003846FEF702F8DFF86080002203214046BA
:10461000FDF7FBFF00950125CDE9015469463846B9
:104620000394FDF717FF114E0420CDE900066946FB
:1046300002943846FDF70EFF0820CDE900066946D2
:1046400002953846FDF706FF03200090CDE901549E
:10465000694640460394FDF7FDFE06B0BDE8F081D3
:1046600030380240000802400004024000001110EF
:10467000104810B50E4901604FF48271416000216D
:1046800002228160C0E9031201224261520282616A
:104690003022C0E90721416281620A21C162FEF72E
:1046A00011FF002803D0BDE81040FDF747B810BD4A
:1046B000003800401406002010B58AB0002407948A
:1046C0001C2168460894FBF77AFF16481449C0E994
:1046D000001441F28731C0E9024104618461FFF7AF
:1046E00048FA08B1FDF72AF8079407A90D4808947D
:1046F000FFF784F808B1FDF721F86020CDE9000448
:1047000002940422694607480494FFF7CAF908B1E5
:10471000FDF714F80348FFF79BF90AB010BD00003D
:10472000000400406C0700200C4810B50A490160E5
:104730004FF4E1314160002181600C22C160C0E989
:1047400004128161C161FFF72DFC002803D0BDE890
:104750001040FCF7F3BF10BD00500040AC07002034
:104760000C4810B50A4901600B4941600021816085
:104770000C22C160C0E904128161C161FFF712FC23
:10478000002803D0BDE81040FCF7D8BF10BD0000E2
:1047900000480040F0070020A0860100FEE700006E
:1047A00070B5044600202DED028B02464FEA01054C
:1047B00034F91010002934F9101000DC494209B214
:1047C000914200DD0A46401CC0B20428F0D3AA4240
:1047D00022DD104607F0E3FA41EC180B284607F0FB
:1047E000DEFA53EC182B07F017F907F02FF800EE5C
:1047F000100A002034F9101000EE901AF8EEE00ACA
:1048000060EE800AFDEEE00A10EE901A24F8101017
:10481000401CC0B20428EDD3BDEC028B70BDFEE796
:104820000148FEF7EFB80000740B00202DE9F041BD
:1048300003680D4604461E6C03EB4511D1F8080BC6
:10484000D4F810E04FF400474FF0200C04F57172DB
:10485000BEF1010F09D0DFF898E0764539D10204A6
:1048600032D500BFC1F8087B3FE0224B5FEA007EF3
:1048700004D59E4239D90004F4D436E05FEA806E54
:1048800002D5C1F808CB30E010F0280F2DD19E42A0
:1048900001D90004E6D4C5EBC50004EB8000D1F8D3
:1048A000101BD0F80432C1F31201591AC0F81412C7
:1048B000D0F808121944C0F8081295B9D4F81002BB
:1048C00078B9012120680AE080060AD5C1F808CB32
:1048D00007E035B9D4F8100218B90021184601F0E4
:1048E000C7FCE9B22046FDF7A2FF0020BDE8F08139
:1048F0000A31544F0A30544F2DE9F84F0E46C1EBA0
:10490000C60100EB810481460568D4E914103C34EB
:10491000884202D90120BDE8F88F081AA1688142B7
:1049200000D20846C01C870805EB46181BE000BFF4
:10493000A0EB010AA068504500D282460AF10300AC
:10494000870899F8100000901FFA8AF3F2B22846FF
:10495000E16801F0E7FEE16801EB0A00E060A169AF
:1049600001EB0A00A061D8F8180980B2B84205D35B
:10497000D4E90501814201D20028D9D1D4E9050149
:10498000884208D806F00F0101208840D5F8341875
:104990008143C5F834180020BDE70000A0B1D0ED78
:1049A000101AC0ED111A90ED0F1A80ED101AC0ED1B
:1049B000060A80ED070A30EEC00A80ED0F0A017882
:1049C00029B101293BD078E09FED3D0A7047D0ED39
:1049D000010A60EE801AC0ED091AD0ED0A0A90EDC6
:1049E000022A42EE000A30EE410AC0ED0A0A90EDBA
:1049F0000D2A80ED0E2A90ED0C2A80ED0D2A80ED17
:104A00000C0A90ED031A21EE001A80ED0B1A90EDBE
:104A1000050AF4EEC00AF1EE10FA09DCB1EE400A24
:104A2000F4EEC00AF1EE10FA02D390ED0A0A01E0AA
:104A300080ED0A0A31EE800A30EE010A2BE070EEBA
:104A4000410A90ED012A20EE822A80ED092AD0ED5C
:104A5000020A60EE800AC0ED0A0AD0ED0D2A72EE5D
:104A6000200AC0ED0E2AD0ED0C2AC0ED0D2AF0EE82
:104A7000002A01EE620A30EE210A80ED0C0A90ED68
:104A8000031A21EE000A80ED0B0A30EE800AD0ED09
:104A9000080A30EE200A80ED080AD0ED040AB4EED0
:104AA000E00AF1EE10FA06DCF1EE600AB4EEE00A7C
:104AB000F1EE10FA01D2C0ED080A90ED080A704735
:104AC00000000000002828D0002A26D0017092EDB6
:104AD000001A80ED011A92ED011A80ED021A92ED92
:104AE000021A80ED031A80ED040A9FED0C0AC0ED56
:104AF000050A80ED0E0A80ED0D0A80ED0C0A80EDAE
:104B0000080A80ED0B0A80ED0A0A80ED090A80EDA3
:104B1000110A80ED100A80ED0F0A704700000000B6
:104B20002DE9F0434449454C4FF47A662DED028B54
:104B300081B0B1F90600A4F854018A88A4F856217E
:104B40000989A4F858114FF425787742C8F1000973
:104B50003B464246494604F5AA74009604F046FFD7
:104B6000374D3B46424629890844A989401A20808E
:104B70000096B4F90200494604F038FF69893B46C3
:104B80000844E9894246401A60800096B4F904005E
:104B9000494604F02BFF298A9FED2B1A0844698AA5
:104BA0000844A080274895ED0B0AD0ED000A70EE6E
:104BB000600A80EE810A85ED070A02F09DF8B4F9DB
:104BC000000000EE900AF8EEE00A20EE208A95ED53
:104BD000070A02F0A9F9B4F9020000EE900AF8EE13
:104BE000E00A00EEC08ABDEEC80A10EE106A95ED2C
:104BF000070A02F099F9B4F9000000EE900AF8EE05
:104C0000E00A20EE208A95ED070A02F075F8B4F963
:104C10000200268000EE900AF8EEE00A00EE808A9C
:104C2000BDEEC80A10EE100A60800120287001B0A5
:104C3000BDEC028BBDE8F083924F0020A84F00200E
:104C400000030020DC000020333365422DE9F04FE3
:104C50000024DDE90CA5DDE90976DDF838B0DDF8E2
:104C60002C9006E0C4F10208641C00F808C0032C74
:104C700004DA11F804C0BCF1000FF3D110F8031FDF
:104C800021F03801083162F302010170018863F3F9
:104C900089110180417867F385014170818866F34D
:104CA00009018180B0F8052069F38C02A0F8052085
:104CB000C2886AF34F12C280B0F8091065F38C0104
:104CC000A0F8091042896BF34F124281BDE8F08FC2
:104CD00038B504461248134B0068B0FBF3F04FF4AC
:104CE0007A73584300906068B0F5827F0DD10B460F
:104CF000009200228021204600F016F870B1606D0D
:104D000040F020006065032038BD009830B1401E9F
:104D1000009020688068C0430006F6D5002038BDAA
:104D20001400002000366E012DE9F0411D461746A3
:104D30000E460446DDF8188008E0681C06D0FDF732
:104D400069FCA0EB0800A8420BD255B1206880682E
:104D500036EA000030D00020B842EED10020BDE895
:104D6000F0812068416821F0E00141606068B0F5A1
:104D7000827F0BD1A068B0F5004F02D0B0F5806FF4
:104D800004D12068016821F040010160A06AB0F5FB
:104D9000005F09D12068016821F40051016020689A
:104DA000016841F400510160012084F851000020A5
:104DB00084F850000320D2E70120CDE70178407845
:104DC00041EA00207047000010B5502080F31188A0
:104DD000BFF34F8FBFF36F8F06F022FC18B1044969
:104DE0004FF080500860002080F3118810BD000053
:104DF00004ED00E030B593B034216846FBF7DFFBEB
:104E000014210DA8FBF7DBFB1E480025016841F0CB
:104E100080510160006800F0805012901A480168CB
:104E200041F4404101600068022400F440401290C7
:104E300001200090000401908001CDE90640062089
:104E40000890A820CDE909040720CDE90B046846A5
:104E5000FEF796F908B172B6FEE70DA90F2081E8BA
:104E600031004FF4A05010904FF480501190052164
:104E70000DA8FEF759F8002801D072B6FEE713B06E
:104E800030BD000040380240007000400548016815
:104E900041F47001016003494FF0006080390860FF
:104EA0007047000088ED00E00148FEF71DBD0000DE
:104EB0002C070020F0B50268254C264D264E274FC2
:104EC000274B4FF0804CA04209D0604507D0A84244
:104ED00005D0B04203D0B84201D0984204D122F0AC
:104EE000700E4A6842EA0E02A0421BD0604519D0FB
:104EF000A84217D0B04215D0B84213D0984211D072
:104F0000184DA8420ED0184DA8420BD0174DA842FC
:104F100008D0174DA84205D0164DA84202D0164D14
:104F2000A84203D122F44075CA682A434D6922F091
:104F300080022A4302608A68C2620A688262A042D2
:104F400001D0984201D10969016301214161F0BD9D
:104F5000000001400004004000080040000C004038
:104F6000000401400040014000440140004801406D
:104F700000180040001C00400020004010B501F067
:104F80001F030121046A99408C430462016A9A401C
:104F90001143016210BD0000F0B5026A22F0010267
:104FA0000262036A42688469124E24F073050C6839
:104FB0002C4323F002058B682B430D4DA84201D0F2
:104FC000B04205D123F00807CB683B4323F004032C
:104FD000A84201D0B04205D14D6922F44072154378
:104FE0008A692A4342608461496841630362F0BD73
:104FF0000000014000040140F0B5026A22F01002F6
:105000000262026A436884690D6824F4E64444EA53
:1050100005248D6822F0200242EA05120F4D104E41
:10502000A84201D0B04206D1CF6822F0800242EA05
:10503000071222F04002A84201D0B04207D14D69C8
:1050400023F4406343EA85038D6943EA85034360A3
:105050008461496881630262F0BD00000000014084
:1050600000040140F0B5026A22F480720262026A12
:105070004368C46922F4007224F073050C68124E70
:105080002C438D6842EA05220E4DA84201D0B04261
:1050900006D1CF6822F4006242EA072222F480623D
:1050A000A84201D0B04207D14D6923F4405343EAEE
:1050B00005138D6943EA05134360C4614968C16300
:1050C0000262F0BD000001400004014030B5026AF8
:1050D00022F480520262046A4268C3690D6823F4B4
:1050E000E64343EA05238D6824F4005444EA05347A
:1050F000084DA84202D0084DA84204D14D6922F4BF
:10510000804242EA85124260C361496801640462D8
:1051100030BD0000000001400004014010B504480B
:10512000FCF72AF9BDE810400148FEF707BE000071
:10513000AC0700200C4808B501680A684A6800926C
:10514000CA6842F01002CA6001684A6942F040022F
:105150004A61C82100910168044B806BA3F1C80229
:10516000091DFBF795FF08BDAC070020504D00203E
:1051700010B5806B0021C185C184FEF7B7FD10BD5D
:1051800070B5846B2068406994F83D10C0F3C0107E
:105190000025212904D118B1E584204600F0B0F89B
:1051A0002068406994F83E10C0F38010222904D191
:1051B00018B1E585204600F07CF8206C40F0100026
:1051C00020642046FEF792FD70BD10B50146806B4D
:1051D00009680968C9052FD40021C18501680C310F
:1051E00051E8002F22F4807241E80023002BF5D112
:1051F0000168143151E8002F22F0010241E8002338
:10520000002BF5D10168143151E8002F22F0400243
:1052100041E80023002BF5D1202180F83E10016BDE
:10522000012909D101680C3151E8002F22F0100248
:1052300041E80023002BF5D1016B012902D0FEF7D4
:10524000A1FF10BD818DFEF71BFD10BD10B5806B59
:10525000016B012902D0FEF796FF10BD818D490830
:10526000FEF70EFD10BD10B50146806B0968096898
:10527000C90516D40021C1840168143151E8002FFA
:1052800022F0800241E80023002BF5D101680C31A7
:1052900051E8002F42F0400241E80023002BF5D1F5
:1052A00010BDFEF7B7FF10BD10B5806BFEF7BEFF57
:1052B00010BD01680C3151E8002F22F4907241E8D2
:1052C0000023002BF5D10168143151E8002F22F0A2
:1052D000010241E80023002BF5D1016B012909D11E
:1052E00001680C3151E8002F22F0100241E8002340
:1052F000002BF5D1202180F83E100021016370477A
:1053000001680C3151E8002F22F0C00241E800236F
:10531000002BF5D1202180F83D10704708B590F89A
:105320003E10222901D0022008BD82684FF480532C
:105330009A4201D1016921B1816A9A421BD04AB1D6
:105340000AE00268816A5268C2F308020A80816A30
:10535000891C08E0026972B10268526802F07F029B
:105360000A70816A491C8162C18D491E0904090CB9
:10537000C18503D019E002685268F1E70168CA6884
:1053800022F02002CA600168CA6822F48072CA60F2
:1053900001684A6922F001024A61202180F83E102A
:1053A000016B012903D0FEF7EDFE002008BD0021AE
:1053B000016301680C3151E8002F22F0100241E82E
:1053C0000023002BF5D101680A68D20602D50A68CD
:1053D00049680091818DFEF753FCE6E770B50446FD
:1053E00000680169E26821F44051114301612169BB
:1053F000A068E26908436169114308432168CA68EB
:1054000049F20C639A430243CA6020684169A26969
:1054100021F440711143416131492068884202D032
:105420003049884202D1FDF74FFE01E0FDF73CFE16
:10543000E2690023192164253226B2F5004F626823
:1054400028D0A0FB0101930F9200FAF7ABFF0146B1
:10545000B0FBF5F06FF01802504301EB800006EB53
:105460000010B0FBF5F000F0F002B1FBF5F002EB3C
:105470000012B1FBF5F06FF01803584301EB800008
:1054800006EB0010B0FBF5F000F00F0021681044AF
:10549000886070BDA0FB010192185B41FAF782FFA2
:1054A0000146B0FBF5F00201B1FBF5F06FF0180317
:1054B000584301EB800006EBC000B0FBF5F000F0B4
:1054C000F80002EB4002B1FBF5F0584301EB80001D
:1054D00006EBC000B0FBF5F000F00700D6E70000D7
:1054E000001001400014014038B58162828500251A
:1054F000134604460564222084F83E00A26B1C4833
:10550000D063A26B1B481064A26B1B48D064A06BD5
:105510000A4605652168A06B091DFCF737FF206866
:1055200001684068009084F83C50206948B12068C8
:105530000C3050E8001F41F4807140E80012002A4E
:10554000F5D12068143050E8001F41F0010140E817
:105550000012002AF5D12068143050E8001F41F0F5
:10556000400140E80012002AF5D1002038BD0000BB
:10557000CB5100084D520008815100080A2004F068
:10558000A9FA05F01BFD1A4E1A4C1B4FDFF86C8070
:105590004FF000090125308898B1A0880A3080B208
:1055A000A080B0F57A7F01D9A17931B14EF66021A2
:1055B00088420AD9A4F8049007E0A57105F0FEFC22
:1055C00003E0A4F8049084F806900A4997ED010AD4
:1055D0006939012005F094F998F90010012005F0CF
:1055E000A1FC657205F0EAFC0A2004F073FAD2E728
:1055F000EE02002002530020784C0020020300201D
:1056000030B587B00546A5208DF8080008202F4C3E
:10561000ADF8090040F20130A2788DF80B20521C41
:10562000A270ADF80D004FF48070ADF8100028485E
:105630000B4690F84900ADF8120002F043FDADF8BA
:1056400014008DF800508DF801302078214DC0EB0A
:10565000001000EB800005EB400002990160BDF8EE
:105660000C1081809DF80E1081710499C0F807100C
:10567000BDF81410A0F80B10BDF80010A0F80D1024
:105680000521FBF723F820781121C0EB001000EB77
:10569000800005EB4000FBF705F802E0012004F074
:1056A00019FA60780028F9D120781121C0EB001098
:1056B00000EB800005EB400005F022F8207818B1DF
:1056C0000020207007B030BD0120FAE76C030020F5
:1056D000D84E00200451002010B50448FBF756FEB8
:1056E000BDE810400148FEF729BB0000F00700208C
:1056F0000C4808B501680A684A680092CA6842F016
:105700001002CA6001684A6942F040024A611221EF
:1057100000910168044B806BA3F11802091DFBF78F
:10572000B7FC08BDF0070020304E00202DE9F04105
:1057300004460088584DC0F30A02584F2A8060780A
:10574000A178C00840EA4110C0F30A036B80A0783A
:10575000E178800940EA81002179A2F5806240EA7F
:105760008120C0F30A06AE8020796179400840EAC2
:10577000C110C0F30A01E9806079A3F58063C0F32A
:105780000110A8726079A6F580668009E872E08849
:10579000A8812089E88160892882207BA874607BA9
:1057A000E874E089A882208A2A806B80AE80A1F507
:1057B0008061E980A0F5806028810020215C395457
:1057C000401C0728FADD3321344802F03FFA082054
:1057D0003A18215C401C02F8081C0F28F8DD34211F
:1057E0002E4802F033FA207C3870607C78702C48A8
:1057F000DFED2C0A294E90ED000A283E352120EEDF
:10580000200A86ED090ABDEEC00A10EE100A000A51
:10581000B87010EE100AF870002038717871B87105
:10582000F8711E4802F012FAA07B00F001017180AD
:1058300000F00201B18000F00401F18000F00801E5
:10584000318100F04001718100F08001B18100F0F0
:105850001001F18100F020003082A87C3070E87CDB
:105860007070A88A00F48071718200F40071B182B6
:1058700000F48061F18200F40061318300F4805112
:10588000718300F40051B18300F48041F18300F48E
:1058900000403084BDE8F081924F0020F8020020E3
:1058A000680300200000C84210B5D0F8B8220AB141
:1058B00052689047002010BD134610B50A460021DB
:1058C00000F084F9002010BD134610B50A460021EF
:1058D00000F012FA002010BD10B50446802100F03F
:1058E000F9F92046BDE81040002100F0F3B910B5E9
:1058F00005210023C0F894121A46194600F066F9F3
:10590000002010BD10B502238261C0F89432C2613C
:1059100013460A46002100F0EFF9002010BD10B533
:1059200004210023C0F894121A46194600F0E4F945
:10593000002010BDF8B504460020ADF800004888EE
:105940000D46010A062947D006DC01290FD002299D
:1059500012D0032962D11DE0072946D00F295DD15D
:10596000D4F8B402C26920E0694690473BE0D4F81D
:10597000B412207C0A68F7E7207C02260028D4F8BD
:10598000B80205D0C16A684688470146467036E0CD
:10599000816AF8E7C0B2062840D2DFE800F00309C8
:1059A0000D111519D4F8B4024268B2B3207CDBE7BC
:1059B000D4F8B4028268F8E7D4F8B402C268F4E715
:1059C000D4F8B4020269F0E7D4F8B4024269ECE713
:1059D000D4F8B4028269E8E7207CF0B9D4F8B802C0
:1059E000416B68468847014609E0207CA8B9D4F895
:1059F000B802016B68468847014607204870EA886C
:105A00008AB1BDF8000040B1824200D90246ADF82B
:105A100000202046FFF776FFF8BDFFE72946204625
:105A2000FFF75AFFF8E72046FFF779FFF4E7010098
:105A30004FF0000004D0012901D0022901D0032039
:105A400070470120704710B5D0F8C402FCF7FDFE86
:105A5000BDE81040FFF7EBBF70B51646044649B1EC
:105A6000D4F8B80242691AB194F89C02032842D0D3
:105A7000032070BDD4F89412002504F1140002290B
:105A800032D1D0E902318B4206D95A1A82603146AE
:105A90002046FFF719FF0FE0994214D14068884271
:105AA00011D3D4F8981288420DD200221146204614
:105AB000FFF70AFFC4F8985200231A4619462046F9
:105AC00000F084F810E0D4F8B802C16829B194F865
:105AD0009C02032801D1204688478021204600F0FF
